:020000040800F2
:10000000480D00204D020008C33D00089B36000843
:10001000C13D0008C71400082D4E00080000000074
:100020000000000000000000000000004D45000836
:10003000C918000800000000C53D00084F45000831
:1000400067020008670200086702000867020008EC
:1000500067020008670200086702000867020008DC
:1000600067020008670200086702000867020008CC
:1000700067020008670200086702000867020008BC
:10008000670200086702000867020008000000001D
:1000900000000000000000000000000067020008EF
:1000A000670200086702000867020008670200088C
:1000B000670200086702000867020008670200087C
:1000C000670200086702000867020008670200086C
:1000D00067020008670200086702000800000000CD
:1000E00067020008670200086702000800000000BD
:1000F000000000000000000000000000670200088F
:10010000000000006702000867020008670200089C
:1001100000000000000000000000000000000000DF
:100120006702000867020008351800086702000827
:10013000670200080000000000000000000000004E
:10014000000000000000000000000000670200083E
:1001500067020008670200084118000867020008EB
:1001600067020008670200080000000000000000AD
:10017000000000000000000000000000000000007F
:1001800000000000670200080000000000000000FE
:100190006702000800F002F800F049F80AA090E8B1
:1001A000000C82448344AAF10107DA4501D100F032
:1001B0003EF8AFF2090EBAE80F0013F0010F18BFB6
:1001C000FB1A43F001031847E4980000049900006B
:1001D000103A24BF78C878C1FAD8520724BF30C873
:1001E00030C144BF04680C60704700000023002445
:1001F00000250026103A28BF78C1FBD8520728BF37
:1002000030C148BF0B607047662907F0628200204A
:1002100070471FB507F053FA00F014FC04000020EB
:10022000002106F017FCE0601FBD10B510BD00F006
:100230000DFD1146FFF7EDFF06F08CFA00F02BFDE7
:1002400003B4FFF7F2FF03BC00F06EFD09488047DE
:1002500009480047FEE7FEE7FEE7FEE7FEE7FEE7A8
:10026000FEE7FEE7FEE7FEE704480549054A064BC0
:1002700070470000E9450008950100084807002084
:10028000480D0020480900204809002053EA020CCC
:1002900000F069802DE9F04B4FF00006002B1FBFE6
:1002A000B3FA83F503FA05F424FA05F65E4012BFAB
:1002B0001643B2FA82F502FA05F4C5F120051EBF15
:1002C00022FA05FC44EA0C04203556EA044C4FEAB5
:1002D000144418BF641C4FF000084FF0000990420E
:1002E00071EB030C39D3002919BFB1FA81F701FA78
:1002F00007F6B0FA80F700FA07F6C7F120071EBF2D
:1003000020FA07FC46EA0C062037B6FBF4FCA7EB04
:100310000507103F07F01F0BCBF120060CFA0BFB73
:100320002CFA06F644BFB3460026202FA4BF5E4633
:100330004FF0000B5BEA060C08BF4FF0010B19EB06
:100340000B09ABFB027C48EB0608C01B06FB02CC8A
:100350000BFB03CC71EB0C01C1E70B460246414697
:100360004846BDE8F08B13B54FF000004FF0000198
:10037000AFF30080BDE81C40704700000FB41CB50F
:10038000074B06AA7B4469460090059800F01FFBC6
:100390000020694600F02EFB1CBC5DF814FB000039
:1003A0006D06000070B5044685690068C10601D578
:1003B000302600E02026C00707D070BDD4E9012117
:1003C00030469047206A401C20626D1EF6D570BDF5
:1003D00070B5044685690078C00707D170BDD4E9BF
:1003E000012120209047206A401C20626D1EF6D516
:1003F00070BD00002DE9F05F894604464FF0000A09
:10040000DFF824B1FB44C0F820A02046E16888470B
:1004100000287DD0252806D0D4E901219047206A04
:10042000401C2062F1E700255F462046E1688847CE
:100430002028064607DB312E05D2B81910F8200C0B
:1004400008B10543F1E7A80701D525F00405C4F874
:100450001CA00027C4F818A02A2E09D0304606F0A8
:100460007FF838B304EB8708303EC8F8186019E00D
:1004700059F8041B204604EB87029161E168884724
:10048000012F064618D1E069002820DA25F0200562
:100490001DE0D8F8180000EB800006EB4000303873
:1004A000C8F818002046E1688847064606F058F864
:1004B0000028EED1012F0AD02E2E08D12046E16867
:1004C00088477F1C0646022F45F02005C4DBA06943
:1004D000002803DA404245F00105A061E80701D099
:1004E00025F01005A6B1A6F14100192802D8203642
:1004F00045F400654A463146204625604D46FFF7E3
:1005000083FE60B1012807D0ED1D25F0070000E053
:1005100007E000F1080978E705F1040975E73046BE
:100520007AE7206ABDE8F09F8694000002F0FF039E
:1005300043EA032242EA024200F063BA4FF00002AB
:1005400000B5134694469646203922BFA0E80C50C9
:10055000A0E80C50B1F12001BFF4F7AF090728BFA4
:10056000A0E80C5048BF0CC05DF804EB890028BF20
:1005700040F8042B08BF704748BF20F8022B11F049
:10058000804F18BF00F8012B7047704770477047C5
:1005900010B500F05BFA006810BD10B5044600F01D
:1005A00055FA046010BD70472DE9FF4F0C461E46FA
:1005B0004FF0FF378BB0D2E90001DDF860800A9080
:1005C0008A46C1F30A5505B93D46002108464FF059
:1005D0000000BAF1000F00F4400005DA00EB8000E3
:1005E0004FF4400101EA50004FEA9059B9F1010F70
:1005F00000DDB9460A9850EA4A000ED044F6105081
:10060000A5F2FF3545432F14B8F1000F1ED07542F7
:10061000291E1EDDC9F100021CE0B8F1010F4FF0E8
:10062000000001D0302103E0F24305E02154401CDA
:10063000B042FBDB30460022002121540B99C1F867
:100640000880C1E900200FB0BDE8F08FBD1B6D1C14
:10065000DEE74A4600DA694206A800F081FA06ABF6
:1006600093E8070003AB83E8070050460A9900F0BF
:1006700062FB8DE80700A0F500501F38009003983A
:10068000002D0ADD42F21F014A460844002303A957
:100690000390684600F0CBFD09E0A0F500504A4603
:1006A0001F38002303A90390684600F0D5FD8DE8AC
:1006B00007000004000C03D04FF0FF30410800E0B9
:1006C0001046B8F1000F03D00022009215461EE03C
:1006D000751E05D400F0BEF9303262556D1EF9D595
:1006E000B3460122084302D000227F1C04E0207898
:1006F000302801D100227F1E002A099784D01DE0F6
:10070000112D07DA00F0A6F9303262556D1C50EA5F
:100710000102F5D1084302D00098C8B10EE00021D3
:10072000681E05E0235C625C63542254401E491C31
:100730008142F7DBAB46A81B401E0990002004F85D
:100740000B000B98099AC0F80880C0E9002B7AE7E3
:1007500011264FF0000857E72DE9F04F8846044670
:10076000D21D22F0070191B0D1E90001CDE90A01C3
:1007700004F078FB02460B98C00F01D02D2007E053
:100780002068810701D52B2002E0202101EAC0006A
:10079000032A099001D0072A05DB0346414620467B
:1007A00000F09EF90BE12078800601D5E06900E0B9
:1007B0000620B8F1650F814606D0B8F1660F18D053
:1007C000B8F1670F70D131E00020B9F1110F00903E
:1007D00001DB112301E009F101030AAA01A90CA818
:1007E000FFF7E2FEDDE90C70002609F10105834602
:1007F00047E001204B4600904FF000470AAA01A9AC
:100800000CA8FFF7D1FEDDE90DB00C995D4600267E
:1008100010B909F101000D18B9EB050003D4C0F1BE
:10082000FF3609F10105A5EB09002BE0B9F1010F35
:1008300001DA4FF001090020B9F1110F009048468C
:1008400001DD112300E003460AAA01A90CA8FFF765
:10085000ABFEDDE90C704D4600268346207800078C
:100860000AD4AB4500DA5D4601A8012D04DD41192B
:1008700011F8011C302907D04F4502DA17F1040F97
:1008800004DA012082460FE06D1EEEE7002F02DC45
:10089000ED1B3E4403E0781CA84200DD7D1CB81B24
:1008A00000F1010A4FF000472078000703D4AA4561
:1008B00001DB4FF0FF3A0021B7F1004F0DF1430883
:1008C0008DF8431024D002202B23002F01DA7F4221
:1008D0002D230A21021EA0F1010000DC5FB197FB6D
:1008E000F1FC97FBF1F201FB1C7C17460CF1300C7C
:1008F00008F801CDEEE7A8F1010003702188090591
:1009000001D5452100E06521A0F1010800F8011C96
:1009100009980FA9A1EB0807FF1D00B1012041199B
:1009200001EBEA70A1693844081A401EA0612078E2
:10093000C00602D42046FFF735FD099828B1D4E956
:1009400001219047206A401C20622078C00622D5F1
:100950002046FFF727FD1EE0002E04DBB34502DD35
:1009600001A8805D00E03020D4E901219047206A91
:10097000401C2062761CAAF101005FEA000A0AD13D
:1009800000F060F8C0680168405CD4E9012190473C
:10099000206A401C2062281EA5F10105DCDC07E06E
:1009A000D4E9012118F8010B9047206A401C20620D
:1009B000381EA7F10107F3DC2046FFF709FD0320ED
:1009C00011B041E601694A1C02610878704700B520
:1009D0008FB0CDE901310021059105497944CDE978
:1009E000031011466846FFF705FD0FB000BD00007B
:1009F000E5FFFFFF0A6802F8010B0A6070474FF03D
:100A000000020429C0F0128010F0030C3FF498ADEE
:100A1000CCF1040CBCF1020F18BF00F8012BA8BFE9
:100A200020F8022BA1EB0C01FFF78ABD5FEAC17C25
:100A300024BF00F8012B00F8012B48BF00F8012B60
:100A400070470000004870470807002000487047C2
:100A5000E806002030B5B0F10A024FEA900E71F1BD
:100A600000034EEA817EB0EB0E0061EB91014FEA8C
:100A7000101E4EEA017E10EB0E0041EB11114FEA01
:100A8000102E4EEA016E10EB0E0041EB11214FEAE1
:100A9000104E4EEA014E10EB0E0041EB1141401892
:100AA00041F100014FEAD00040EA41704FEAD10124
:100AB00010EB80054FEA810444EA907444EB010492
:100AC0006D1944EB0404521BA3414FF0000348BFCF
:100AD0000A3200D530BD401C41F1000130BD00009C
:100AE0002DE9F0411F46044603260168072A01F458
:100AF000006004DB08B116A505E016A503E008B107
:100B000015A500E015A521F010002060A069C01E09
:100B1000A0610FB1401EA0612046FFF743FC4FB11A
:100B2000D4E9012138469047206A401C2062C01C4D
:100B3000206206E0206AFAE7D4E9012115F8010BEA
:100B40009047761EF8D22046FFF742FCBDE8F081C0
:100B50004E414E006E616E00494E4600696E660061
:100B60002DE9F047814616468AB0354878440DC8CD
:100B70008DE80D0032487844801C03AC0DC884E831
:100B80000D0041F69B300844372190FBF1F290FBB9
:100B9000F1F5A5F1800501FB12041B3C02D564426E
:100BA000012000E00020DFF898A080460027FA44EA
:100BB000AAF1BE0A0EE0E0070AD03246684607EB0B
:100BC000470101230AEB810100F046FB8DE8070095
:100BD00064107F1C002CEED1194F7F44AE3F19E00A
:100BE000E80715D007EB04100DF1180A90E80E0085
:100BF0008AE80E00C068F04201D198190890324688
:100C0000012306A903A800F027FB03AB83E8070034
:100C10006D10641C002DE3D14FF00103324669468C
:100C2000B8F1000F03A802D000F001FB01E000F0D2
:100C300013FBC9E90001C9F808200AB0BDE8F08734
:100C4000248F000000487047E80600207546FFF733
:100C5000F9FFAE4605006946534620F00700854679
:100C600018B020B5FFF700FBBDE820404FF00006AC
:100C70004FF000074FF000084FF0000B21F0070184
:100C8000AC46ACE8C009ACE8C009ACE8C009ACE8C7
:100C9000C0098D46704710B50446AFF3008020466A
:100CA000BDE81040FFF7CCBA4FF0013C50F8042BE0
:100CB00051F8043B9A4221D1A2EB0C03934313EA6F
:100CC000CC1317D150F8042B51F8043B9A4215D19C
:100CD000A2EB0C03934313EACC130BD150F8042B73
:100CE00051F8043B9A4209D1A2EB0C03934313EA57
:100CF000CC13DBD04FF00000704700BFD01A01BA10
:100D0000B1FA81F101F0180122FA01F0CB40C1F1F2
:100D10002001DBB2C0B2C01A2CFA01F3D11A914300
:100D200011EAC311E6D1704701491820ABBEFEE7B6
:100D30002600020070475FEA400C08BF91F0000FE8
:100D40004FEA8C234FEAC12243EA51514FEA1C502B
:100D500018BF00F5F0404FEA300018BF41F00041E5
:100D60005FEA6C5C00F02980BCF1FF3F08BF40F0F7
:100D700080407047130C06BF12044FF0100C4FF068
:100D8000000C130E04BF12020CF1080C130F04BF69
:100D900012010CF1040C930F04BF92000CF1020C31
:100DA000D30F04BF52000CF1010C11464FF00002AA
:100DB000A0F11F00A0EB0C00704711F0004F08BF1E
:100DC000704731F000413FF4D5AF0B0C06BF09046A
:100DD0004FF0100C4FF0000C0B0E04BF09020CF189
:100DE000080C0B0F04BF09010CF1040C8B0F04BF9E
:100DF00089000CF1020CCB0F04BF49000CF1010C6F
:100E0000CCF12003A0EB0C0022FA03F302FA0CF25F
:100E100041EA030100F10100704720F07F4C80EAB5
:100E2000030023F07F47ACEB070303F57C5300F08E
:100E3000004003F1FF032DE980494FEA154B09B447
:100E40004FEA144325EA0B4E24EA03480FF2042626
:100E500006EB132749083E785FEA320203FB066778
:100E6000C7F5000707FB06F64FEA54374FEAD646A8
:100E700006F1020607FB066CCCF1005C4FEA1C474A
:100E80002CEA074C07FB06F40CFB06F504EB1546B1
:100E90004FEA961634BF00204FF000404FEAD1379A
:100EA00006FB07FC4FEA1C4C0CFB0BF7D21B03FBA9
:100EB0000CF761EB07010CFB0EF7B0EB074072EB90
:100EC00017420CFB08F734BFA2EB0742B2EB074214
:100ED00061EB17414FEA0C444FEA910706FB07FC10
:100EE0004FEA1C4C0CFB0BF7B0EBC74072EB5732D0
:100EF00003FB0CF734BFA2EBC742B2EBC74261EB76
:100F000057310CFB0EF7B0EBC70072EB57720CFBBE
:100F100008F734BFA2EBC702B2EBC70261EB57710F
:100F2000039F4FEA816141EA921104EBCC044FEA3E
:100F3000D1374FEA826206FB07FC42EA90124FEA81
:100F400080604FEA1C4C0CFB0BF7D21B03FB0CF729
:100F500061EB07010CFB0EF7B0EB074072EB174299
:100F60000CFB08F734BFA2EB0742B2EB074261EB80
:100F700017414FEA8C554FEA910704EB9C2406FB7E
:100F800007FC4FEA1C4C0CFB0BF7B0EBC74072EBB5
:100F9000573203FB0CF734BFA2EBC742B2EBC74298
:100FA00061EB57310CFB0EF7B0EBC70072EB5772D9
:100FB0000CFB08F734BFA2EBC702B2EBC70261EB30
:100FC000577115EB4C254FEA816141EA92114FEAC6
:100FD00082624FEAD13742EA901206FB07FC44F1E5
:100FE00000044FEA80604FEA1C4C0CFB0BF7D21B4D
:100FF00003FB0CF761EB07010CFB0EF7B0EB0740AE
:1010000072EB17420CFB08F734BFA2EB0742B2EBBE
:10101000074261EB174115EB1C154FEA813141EA9C
:1010200092414FEA823242EA90424FEA80304FEAE0
:101030000C7644F1000448EA03434EEA0B484FF0B3
:10104000000EB2EB080C71EB030724BF6246394671
:101050004EEB0E0E4FF0000B0018524149414BEB86
:101060000B0BB2EB080C71EB03077BF1000B24BFF9
:10107000624639464EEB0E0E4FF0000B00185241FF
:1010800049414BEB0B0BB2EB080C71EB03077BF107
:10109000000B24BF624639464EEB0E0E51EA0207A2
:1010A00018BF46F0010616EB0E7655F1000254F11A
:1010B000000103D5BDE88901BDE80088BDE88901CC
:1010C000BDE80048B619524141EB0101A3F101030B
:1010D000704780807F7E7D7C7B7A797877767675A5
:1010E0007473727171706F6E6E6D6C6C6B6A6A691D
:1010F0006868676666656464636362616160605FB7
:101100005F5E5E5D5D5C5C5B5B5A5A59595858572F
:101110005756565555555454535352525251515097
:1011200050504F4F4F4E4E4D4D4D4C4C4C4B4B4BEA
:101130004A4A4A4949494848484747474746464630
:10114000454545444444444343434342424242416B
:101150004141002B9C4630D477002BD01CB54FEA80
:10116000370703B44FF010004FF01001BAF1000F31
:1011700006D0BCF1000FDCBF40F0080040F00801D1
:101180004FF000000FBCBDE810400BF1010BBBF1AC
:10119000010F08BF5FEA170722BF12F1010211F128
:1011A00001014FF0004143F1000300F0004043EA29
:1011B00000007047F9D35708D0E746EA064613F116
:1011C000400F4FEA16461FDD13F1200FDFBF164315
:1011D0000A46002120335B42BED0C3F1200746EA15
:1011E000064602FA07F74FEA164646EA0706C3F133
:1011F000200722FA03F201FA07F721FA03F14FF070
:10120000000342EA0702A7E746EA020646EA064664
:101210004FEA164646EA0106BCBF46EA0646360CC9
:101220004FF000034FF000024FF0000194E72DE96A
:10123000804C9A46934670B491E8380007C831EA6A
:10124000400C48BF34EA430C03D5FFF7E6FDFFF737
:1012500080FFF0BCBDE8008C2DE9804C9A46934697
:1012600070B491E8380007C810F0804F08BF13F041
:10127000804F03D100F005F8FFF76BFFF0BCBDE82D
:10128000008C20F07F4780EA030023F07F4C07EBBF
:101290000C03A3F57C5300F00040A3F1FE0392F091
:1012A000000F00F0B38095F0000F00F077802DE97B
:1012B00001494FEA11404FEA144621EA004800FB79
:1012C00006FC24EA064708FB06F607FB08F800FBC5
:1012D00007F718EB06484CEB164C4FEA124B18EB8D
:1012E00007484FEA15464CEB174022EA0B4E0BFB22
:1012F00006FC25EA06470EFB06F607FB0EFE0BFB77
:1013000007F71EEB064E4CEB164C4FF000061EEB9B
:10131000074E4CEB174B18EB0B0840F1000018EB95
:101320000E0B58EB000840F100008F1A4FF000013F
:101330003CBFC943661B14BFB5EB040C00213CBF86
:10134000C943F61B4FEA17444EEA8E0E27EA0445BE
:101350004FEA1C4704FB07622CEA074C05FB07F722
:101360000CFB05F604FB0CFC16EB074642EB1742A0
:1013700016EB0C4642EB1C421BEB060658EB020236
:10138000414146EA9E0601D5BDE80189B6195241A0
:1013900041EB0101A3F10103BDE801894FEA1445C6
:1013A0004FEA114724EA054621EA074C05FB07F4FA
:1013B00006FB07F70CFB06F105FB0CFC11EB0741E4
:1013C00044EB17444FEA124711EB0C4144EB1C4429
:1013D00022EA074C05FB07F206FB07F70CFB06F6B3
:1013E00005FB0CFC16EB074642EB174216EB0C46CE
:1013F00042EB1C456A1854F1000148BF7047B6190A
:10140000524141EB0101A3F10103704795F0000F38
:1014100037D04FEA11424FEA144721EA024624EA44
:10142000074C02FB07F106FB07F70CFB06F402FB77
:101430000CFC14EB074441EB17414FEA154714EB42
:101440000C4441EB1C4125EA074C02FB07F506FB67
:1014500007F70CFB06F602FB0CFC16EB074645EB08
:10146000174516EB0C4645EB1C42121951F10001D1
:1014700048BF7047B619524141EB0101A3F1010386
:1014800070474FEA14454FEA114724EA054621EA1E
:10149000074C05FB07F106FB07F70CFB06F24FF0C4
:1014A000000605FB0CFC12EB074241EB174112EB67
:1014B0000C4251EB1C4148BF7047921841EB0101AF
:1014C000A3F101037047FEE770B52DED0A8B8CB0D8
:1014D00002F0ACFE02F032FDAA4A0020694600BFCD
:1014E00052F8203041F82030401C0828F8DB08462C
:1014F00005F0F4F802F0A0FCA3489FEDA41B9FEDBB
:10150000A5BBD0E90045B0EE4B0AF0EE6B0A04F043
:10151000E7F8B0EE408AF0EE608A059805F019FD14
:1015200053EC182B05F064FD41EC180B204605F038
:1015300010FD53EC182B05F067FF41EC180B9FEDE5
:10154000971BB0EE4B0AF0EE6B0A04F0C9F8B0EE50
:10155000409AF0EE609A049805F0FBFC53EC182BCF
:1015600005F046FD53EC192B05F084FB41EC190BFB
:101570009FED8C1BB0EE4B0AF0EE6B0A04F0B0F856
:10158000B0EE40AAF0EE60AA029805F0E2FC53EC3F
:101590001A2B05F02DFD53EC192B05F0AFFA41EC99
:1015A000190B9FED821BB0EE4B0AF0EE6B0A04F0B4
:1015B00097F8B0EE40AAF0EE60AA039805F0C9FCD7
:1015C00053EC182B05F014FD53EC1A2B05F052FBCD
:1015D00041EC1A0B9FED771BB0EE4B0AF0EE6B0A55
:1015E00004F07EF8B0EE40CAF0EE60CA019805F053
:1015F000B0FC53EC1C2B05F0FBFC53EC1A2B05F054
:101600007DFA41EC1A0B9FED6D1BB0EE4B0AF0EE2C
:101610006B0A04F065F8B0EE40CAF0EE60CA0698B6
:1016200005F097FC53EC182B05F0E2FC53EC1C2B57
:1016300005F020FB9FED631B53EC112B05F05EFAC8
:101640009FED628B53EC182B05F014FB614C9FED62
:10165000621BB0EE4B0AF0EE6B0AC4E9000104F025
:101660003FF8B0EE40CAF0EE60CA9FED5D1BB0EEF1
:101670004B0AF0EE6B0A04F033F8B0EE40BAF0EE2D
:1016800060BA284605F065FC53EC1A2B05F0B0FC57
:1016900053EC1B2B05F0EEFA53EC192B05F0B4FEBE
:1016A00053EC1C2B05F0E6FA53EC182B05F0E2FA8C
:1016B0004D4D41EC100B85ED000B9FED4C1B53EC99
:1016C000112B05F0D7FA41EC100B9FED4A1B04F0EB
:1016D00007F89FED4A1B51EC100B53EC112B05F052
:1016E000BBFD9FED481B53EC112B05F081FC05F071
:1016F000D3F9464E0A230B22306045A1474801F03A
:1017000073FF94ED000B46A153EC102B08A8FEF7D5
:1017100035FE0A23052208A9404801F065FF0A2387
:10172000052240A13D4801F05FFF95ED000B3CA173
:1017300053EC102B08A8FEF721FE0A23052208A966
:10174000364801F051FF0A23052238A1334801F041
:101750004BFF306805F042FF41EC100B30A153EC19
:10176000102B08A8FEF70AFE0A23052208A92B4819
:1017700001F03AFF192000F07DFC0CB0BDEC0A8BA3
:1017800070BD000088000020100000200000000054
:1017900000002040000000000000004000000000A9
:1017A0000000184000000000000031400000000070
:1017B00000001C400000000000003040000000005D
:1017C000000037400000000000409F400000000083
:1017D00000005940700000200000000000002E4072
:1017E00000000000000035406800002000000000FC
:1017F00000AA8F4024D1CB28965BC83F0000000090
:101800000000F03F0000000040A5E5405C00002023
:101810000A4D3536313120544D503D0054050020DD
:1018200025660000205053523D00000020414C54DA
:101830003D000000014800F0E3BA00002806002047
:10184000014800F0DDBA0000880600200168182376
:10185000CAB2103AB2FBF3F2054B6FF30901032A47
:101860009B5CC36500D9091D81650846704700006F
:101870006E98000810B5014600208B698A6A4FF007
:10188000C07453B1B3F5005F15D072B1012A0CD00A
:10189000022A0AD0032A09D104E01AB1012A06D08B
:1018A000022A03D1C96AC90100D5012010BDC96A45
:1018B000A142FAD010BD002AF7D0012AF2D0022AA4
:1018C000F3D0032AF3D010BD704710B50446000AC8
:1018D00000F006F8E0B2BDE8104000F001B80000EA
:1018E0000EB50109092900D9C91D303100F00F00DA
:1018F0008DF80010092800D9C01D30308DF8010086
:101900000A2302226946024801F06EFE0EBD000065
:10191000540500202DED0C8B92B09FEDC08AB0EEE7
:10192000489AF0EE488A02F065F9B0EE481ADFED09
:10193000BC0A9FEDBC0ABC4802F05EFE02F090FCBF
:101940000021084602F0C0FC0122B849B8A002F00C
:10195000C5FD02F0D7FD4FF4FA6000F08BFB02F0FA
:101960007FFC0021084602F0AFFC0122AF49B3A082
:1019700002F0B4FD1421002002F0A6FC0122AB49C4
:10198000AFA002F0ABFD2821002002F09DFC012257
:10199000A649ACA002F0A2FD02F0B4FDDFEDAA9AC8
:1019A00064240CAE062564230522D021A74800F04C
:1019B00035FD0028F7D10096CDE9015401233B22E3
:1019C000D021A24800F066FF9DF831009DF830104C
:1019D0009DF8322000EB012000B200EE100A9DF8C5
:1019E00033109DF83430B8EEC00A01EB022109B281
:1019F0009DF8352060EE29BA00EE101A02EB0322A2
:101A000012B2B8EEC00A20EE29BA00EE102AB8EEE3
:101A1000C00A20EE29CA64230522D0218B4800F099
:101A2000FDFC0028F7D10096CDE9015401234322A3
:101A3000D021864800F02EFF9DF831009DF830102F
:101A40009DF8322000EB012001B200EE101A9DF843
:101A500033009DF83430B8EEC00A00EB022000B22B
:101A60009DF8352020EE29DA00EE100A02EB032261
:101A700012B2B8EEC00A01EE102A022060EE29CAA6
:101A8000B8EEC10A60EE29DA02F09EF9C0073CD038
:101A90009DF836706423052218216C4800F0BEFCC6
:101AA0000028F7D10096CDE9015401230322182123
:101AB000664800F0EFFE380727D4BDF93000BDF9C5
:101AC0003280BDF9347005F02DFA9FED61AB53EC17
:101AD0001A2B05F08DFA04F0DFFF09EE100A4046DC
:101AE00005F020FA53EC1A2B05F082FA04F0D4FF2B
:101AF00008EE900A384605F015FA53EC1A2B05F05B
:101B000077FA04F0C9FF08EE100AF0EE683AB0EE7A
:101B1000493AB0EE484AF0EE4C2AB0EE4B2AF0EECD
:101B20006B1AB0EE6D1AF0EE6C0AB0EE4D0A3E483C
:101B300002F07AFD3C480A23022247A1AC3801F0AA
:101B400053FD394FB86805F049FD41EC100B43A136
:101B500053EC102B03A8FEF711FC00211E2002F00D
:101B6000B3FB0122314903A802F0B8FC0A23062284
:101B700003A9A7F1AC0001F037FD0A23022239A125
:101B8000A7F1AC0001F030FD786805F027FD41ECCD
:101B9000100B32A153EC102B03A8FEF7EFFB14211E
:101BA0001E2002F091FB0122204903A802F096FCBE
:101BB0000A23062203A9A7F1AC0001F015FD0A23B0
:101BC000022229A1A7F1AC0001F00EFD386805F052
:101BD00005FD41EC100B21A153EC102B03A8FEF7DF
:101BE000CDFB28211E2002F06FFB01220F4903A824
:101BF00002F074FC0A23062203A9A7F1AC0001F04D
:101C0000F3FC0A23012219A1A7F1AC0001F0ECFCBE
:101C100002F078FC052000F02DFAC4E60000000078
:101C20000000C8429A99193E0006002000000020DA
:101C30004F5249454E544154494F4E00593D0000C2
:101C4000523D0000503D00000000003AA804002072
:101C5000333333333333C33F0A79000025332E3314
:101C600066000000797000007072000072000000D1
:101C70000EB51F4CFFF728FC94ED0C0B1DA153EC87
:101C8000102B6846FEF77AFB00210F2002F01CFBA8
:101C900001221A49684602F021FC94ED0A0B18A1B2
:101CA00053EC102B6846FEF769FB14210F2002F05D
:101CB0000BFB01221149684602F010FCE06905F0B7
:101CC0008DFC41EC100B0EA153EC102B6846FEF777
:101CD00055FB28210F2002F0F7FA01220749684638
:101CE00002F0FCFB02F00EFCFA2000F0C3F9C1E7A1
:101CF00040000020252020302E3266000000002009
:101D00002520302E3266000086B002F0A9FA234C5E
:101D10002068C16841F40051C16005230922694669
:101D20001E4801F001FC2068C16821F40051C16027
:101D30009DF8000059282DD19DF80100592829D17E
:101D40009DF802009DF8031000EB012000EE100A40
:101D5000B8EE400A10EE100A05F040FC41EC100B02
:101D60000FA153EC102B03A8FEF708FB192100204C
:101D700002F0AAFA01220C4903A802F0AFFB1921D4
:101D8000552002F0A1FA0122074908A002F0A6FBA3
:101D900002F0B8FB322000F06DF9B9E754050020DD
:101DA00025302E316600000008000020636D000021
:101DB00072B6FEE710B5040002D0607910B106E0FB
:101DC000012010BD00202071204600F005F8012000
:101DD0006071002010BD000008B500680649884207
:101DE00008D10648016841F480510160006800F4A0
:101DF0008050009008BD00000030024030380240A2
:101E00002DE9F84304464FF00009CDF800906348EF
:101E10004FF41651A56D0068B0FBF1F72E6894F8E9
:101E20005C10082000FA01F131420FD021680A68E5
:101E300052070BD50A6822F004020A6094F85C107D
:101E40008840A860606D40F00100606594F85C1007
:101E50004FF0010808FA01F0304208D021684969C2
:101E6000090604D5A860606D40F00200606594F832
:101E70005C1004208840304208D021680968890736
:101E800004D5A860606D40F00400606594F85C10B3
:101E900010208840304218D021680968090714D5FD
:101EA000A86020680168490304D50068000308D5CC
:101EB000A16C07E00168C90503D4016821F008019D
:101EC0000160216C09B12046884794F85C102020FD
:101ED0008840304231D021680968C9062DD5A860F4
:101EE00094F8350005282068016806D0490347D5D5
:101EF000006800031DD4616C1CE021F01601016034
:101F00002068416921F080014161206C08B9A06C12
:101F100020B12068016821F00801016094F85C108C
:101F20003F208840A86084F8349084F83580216D83
:101F30001FE0E16B09B120468847606D00282BD077
:101F4000606DC00714D0052084F835002068016852
:101F500021F0010101600098401C0090B84203D8B4
:101F600020680068C007F6D184F8349084F8358082
:101F7000E16C002910D001B02046BDE8F0430847CD
:101F80000168C905D5D4016821F01001016084F809
:101F9000349084F83580CCE7BDE8F88384000020D5
:101FA0002DE9F041044600F06FF906465CB10025CA
:101FB00084F83450022084F835002068016821F04C
:101FC000010101600DE00120BDE8F08100F05CF945
:101FD000801B052805D920206065032084F8350082
:101FE000F2E720680068C007F0D122681168204835
:101FF0000140D4E901031843D4E9033633431843BD
:1020000063691843A3691843E3691843236A1843B3
:102010000843616A042903D1D4E90B131943084327
:10202000106020684069666A20F0070130460E4360
:10203000012704280CD1A06A0643E06A40B120467B
:10204000FFF718FC20B14020606584F83570BAE7CE
:10205000206846612046FFF7F9FB94F85C203F2199
:1020600091408160656584F835700020ACE7000020
:102070003F8010F070B5044600F006F90546601C7C
:1020800002D004480078044400F0FEF8401BA0424F
:10209000FAD370BD780000202DE9F84FDFF8B4A125
:1020A000002201240AF1040B03254FF00F090BF164
:1020B000040E00BF0B6804FA02F63340B34272D13B
:1020C0000F7907F00307012F01D0022F16D187687F
:1020D0004FEA420805FA08FC27EA0C07D1F80CC0C1
:1020E0000CFA08FC4CEA070CC0F808C04768B74374
:1020F0000E79C6F3001696403E4346600E79F643CD
:10210000B6070DD0C768560005FA06FC27EA0C078B
:10211000D1F808C00CFA06FC4CEA070CC0F80CC059
:102120000E7906F00306022E10D1D60800EB8608C1
:10213000D8F8206057074FEAD76C09FA0CF7BE436E
:102140000F6907FA0CF73743C8F8207006684FEAA2
:10215000420C05FA0CF7BE430F7907F0030707FAA4
:102160000CF7374307604E68F6006DD53A4E376876
:1021700047F480473760366822F0030706F480464C
:102180000096364E07EB060CDCF8086897073F0F01
:1021900009FA07F826EA0806DFF8C480404503D1AB
:1021A0004FF000081EE04FE0DFF8B880404502D154
:1021B0004FF0010816E0DFF8B080404502D14FF043
:1021C00002080FE0DFF8A480404502D14FF0030879
:1021D00008E0DFF89C80404502D14FF0040801E0A0
:1021E0004FF0070808FA07F848EA0608CCF808880C
:1021F000DAF800605746D1F804C09E435FEACC3C51
:1022000000D51E433E60DBF800605F46D1F804C095
:102210009E435FEA8C3C00D51E433E60DEF80060C2
:102220007746D1F804C09E435FEACC2C00D51E430C
:102230003E60084F0C373E68D1F804C09E435FEA09
:102240008C2C00D51E433E60521C102AFFF432AF86
:10225000BDE8F88F003C01404438024000300140A6
:10226000000002400004024000080240000C02404E
:10227000001002400069084000D0012070470AB1F8
:10228000816170470904FBE70148806870470000DE
:102290007800002070B5040025D094F83D0000259A
:1022A00020B984F83C50204600F088FC242084F8B3
:1022B0003D002068016821F001010160206801688B
:1022C00041F4004101602068016821F4004101608F
:1022D00000F0DCFD4D4A6168914201D84C4900E0B4
:1022E0004C49884201D2012070BD4B492368B0FBA4
:1022F000F1F15E6826F03F060E435E60636893422C
:1023000006D94FF4967359434FF47A73B1FBF3F146
:102310002368491C1E6A26F03F0631431962616832
:10232000914210D84900401EB0FBF1F2521CC2F39A
:102330000B02042A01D2042022E0B0FBF1F0401C81
:10234000C0F30B001CE0A268F2B301EBC10303EB86
:102350000116431EB3FBF6F35B1C43F480431B05DD
:1023600049D092B301EBC10202EB0111401EB0FB58
:10237000F1F0401CC0F30B0040F4804040F40040FA
:102380002168CA694CF6FF739A431043C861D4E9C7
:10239000071001432068026822F0C0021143016067
:1023A000D4E9030101432068826848F2FF339A436D
:1023B00011438160D4E9050108432168CA6822F00D
:1023C000FF021043C86001E00EE016E020680168DB
:1023D00041F0010101602564202084F83D0025635F
:1023E00084F83E50002070BD01EB4106431EB3FB54
:1023F000F6F35B1CB3E70120C2E701EB4101401E8D
:10240000B0FBF1F0401CC0F30B00B7E7A086010061
:1024100080841E0000093D0040420F002DE9FF4F5F
:1024200081B089460446FFF72FFF054694F83D002A
:102430004FF0010820287DD1192301225049204660
:10244000009501F0FFFA002874D194F83C000128AF
:1024500070D0012084F83C0020680168C90703D1CE
:10246000016841F0010101602068016821F4006108
:102470000160242084F83D00002626644148E06283
:102480004FF0011B20272068016841F48071016032
:102490000095002259462046049B01F0D3FA50B122
:1024A00020680068C00502D54FF400702064032046
:1024B00005B0BDE8F08F216809F0FE000861FFF764
:1024C000E3FE2168054648694969C0F34000C1F34D
:1024D00080214FF0A00A0FE0FFF7D6FE411B0498C1
:1024E000814200D808B984F83DA02168486949694B
:1024F000C0F34000C1F3802194F83D20A02A02D00F
:1025000008B90029E8D084F83D7020684169C943C2
:10251000890716D4016841F400710160206841699F
:1025200080691923012216492046009501F08AFA94
:10253000B8B900E021E084F83D7084F83C600020E8
:10254000B6E7016841F40071016021686FF48060B2
:102550004861192301220A492046009501F072FAC8
:1025600008B10120A4E7039808F1010880458AD347
:1025700084F83D7084F83C60F3E7022098E700009F
:10258000020010000000FFFF2DE9F84F1F469046A3
:102590008A460446DDF82890FFF776FE054694F853
:1025A0003D00202875D1192301226C492046009551
:1025B00001F048FA0028F5D194F83C00012868D0D1
:1025C000012084F83C0020680168C90703D1016834
:1025D00041F0010101602068016821F4006101609F
:1025E000222084F83D00102084F83E000026266456
:1025F000C4F824806785608D20855948E0622B46A9
:102600004A465146204601F061F8002878D1208DD5
:10261000544F68B1012814D002282068016816D0F0
:1026200041F480610160206841698069009087E021
:102630002068416981690091016841F4007101607D
:102640007EE02068016821F480610160F0E721F4F8
:10265000806101602068016841F40061E2E70328BD
:1026600048D801280AD0022814D04B460022394607
:102670002046009501F0E6F9D8BB27E02A464946F6
:10268000204601F05EFAA0BB20680069616A08700C
:102690004DE061E04B46002239462046009501F0AE
:1026A000D1F930BB2068016841F4007101602068F5
:1026B0000069616A0870606A401C6062218D491E71
:1026C0002185618D491E618521682EE020680168A1
:1026D00021F48061016020680069616A0870606AA5
:1026E000401C6062208D401E2085608D401E6085EC
:1026F000D0E705E02A464946204601F022FA10B10B
:102700000120BDE8F88F20680069616A0870606A7E
:10271000401C6062218D491E2185618D491E6185A5
:1027200021684A69D24352070AD409690170606A74
:10273000401C6062208D401E2085608D401E60859B
:10274000208D00288BD1202084F83D0084F83E6045
:1027500084F83C600020D4E70220D2E70200100099
:102760000000FFFF040001002DE9F84F1F469046CE
:102770008A460446DDF82890FFF786FD054694F862
:102780003D0020287FD11923012240492046009591
:1027900001F058F9002876D194F83C00012872D055
:1027A000012084F83C0020680168C90703D1016852
:1027B00041F0010101602068016821F400610160BD
:1027C000212084F83D00102084F83E000026266475
:1027D000C4F824806785608D20852D48E0622B46F3
:1027E0004A465146204600F0E7FF90B9206841690B
:1027F0008069009036E02A464946204601F0D4F927
:1028000050B1206C042804D12068016841F40071A3
:1028100001600120BDE8F88F606A216800780861D6
:10282000606A401C6062618D491E6185218D491E70
:1028300089B2218522685369DB435B070BD451B110
:1028400000781061606A401C6062608D401E608587
:10285000208D401E20852A464946204601F0CCF8AE
:102860000028CED1208D0028C5D154F83D0B016839
:1028700041F400710160202004F81E09E6776677B4
:102880000020C7E7FFE70220C4E7000002001000B5
:102890000000FFFF2DE9FF4F83B09A46DDE9119755
:1028A00093460446DDF84080FFF7EEFC054694F8B9
:1028B0003D00202870D1192301227149204600953E
:1028C00001F0C0F80028F5D194F83C00012863D04D
:1028D000012084F83C0020680168C90703D1016821
:1028E00041F0010101602068016821F4006101608C
:1028F000222084F83D00402084F83E000026266413
:10290000C4F82480A4F82A90608D20855D48E06298
:10291000CDE9007553465A462046049900F09AFFC7
:1029200000287CD1208DD0B1012821D00228206838
:1029300024D0416980690090208D032869D801283E
:102940002BD0514902283B464FF00002009559D048
:102950008846204601F076F8002860D13CE02068E7
:10296000416981690091016841F40071016077E07B
:102970002068016821F480610160F0E7016821F4BA
:10298000806101602068016841F400610160206895
:1029900041698069009063E06FE02A46394620462D
:1029A00001F0CFF898BB20680069616A08704EE0BA
:1029B0002068016841F40071016020680069616A63
:1029C0000870606A401C6062218D491E2185618DFE
:1029D000491E6185216838E02068016821F4806122
:1029E000016020680069616A0870606A401C60626A
:1029F000208D401E2085608D401E60853B46002254
:102A000041460095204601F01DF800B9D0E706E0E8
:102A1000FFE72A463946204601F093F818B1012015
:102A200007B0BDE8F08F20680069616A0870606ACD
:102A3000401C6062218D491E2185618D491E618582
:102A400021684A69D24352070AD409690170606A51
:102A5000401C6062208D401E2085608D401E608578
:102A6000208D00287FF468AF202084F83D0084F892
:102A70003E6084F83C600020D2E70220D0E70000EE
:102A8000020010000000FFFF040001002DE9FF4FCD
:102A900083B09A46DDE9119793460446DDF84080FD
:102AA000FFF7F2FB054694F83D0020287FD119235B
:102AB000012240492046009500F0C4FF002876D14D
:102AC00094F83C00012872D0012084F83C00206872
:102AD0000168C90703D1016841F001010160206864
:102AE000016821F400610160212084F83D0040204C
:102AF00084F83E0000262664C4F82480A4F82A90B6
:102B0000608D20852C48E062CDE9007553465A4619
:102B10002046049900F01CFF70B930E02A4639467F
:102B2000204601F041F858B1206C042804D12068F7
:102B3000016841F400710160012007B0BDE8F08F29
:102B4000606A216800780861606A401C6062218DBB
:102B5000491E89B22185628D521E628522685369A1
:102B6000DB435B070BD469B100781061606A401CDD
:102B70006062208D401E2085608D401E6085208D06
:102B80000028CBD12A463946204600F035FF0028E0
:102B9000CAD154F83D0B016841F400710160202056
:102BA00004F81E09E67766770020C6E7FFE70220F3
:102BB000C3E70000020010000000FFFF10B586B060
:102BC000044614216846FDF7B9FC13492068884281
:102BD00020D112480021026842F00202026000681F
:102BE00000F002000590C02000901220CDE9010104
:102BF000032003900420049069460948FFF74CFA2B
:102C000006481030016841F400110160006800F4CA
:102C10000010059006B010BD00540040303802404E
:102C200000040240024881680278114481607047C4
:102C3000780000200B4810B5016841F40071016074
:102C4000016841F480610160016841F480710160B4
:102C5000032000F06FF80F2000F006F800F024F8D1
:102C6000002010BD003C024070B50D4D04464FF4ED
:102C70007A712878B1FBF0F00A490968B1FBF0F0ED
:102C800000F09EFB48B9102C07D200222146501EAE
:102C900000F030F800206C6070BD012070BD0000B5
:102CA00078000020840000200A4808B5016841F43B
:102CB00080410160006800F4804000900548001FDA
:102CC000016841F080510160006800F08050009080
:102CD00008BD000044380240002809DB00F01F0254
:102CE000012191404009800000F1E020C0F800116E
:102CF00070470000F0B40E4B1B680C46C3F3022370
:102D0000C3F10705042D00D90425191D072901D297
:102D1000002300E0DB1E012606FA05F1491E2140D2
:102D200099409E40761E16403143F0BC02F0B2B886
:102D30000CED00E0064900F0070208684FF6FF03BB
:102D4000184040EA0220034A104308607047000020
:102D50000CED00E00000FA052DE9F0470E460500F5
:102D600065D0DFF81481D8F80000F7B200F0070052
:102D7000B04207D288F80070D8F8000000F00700D1
:102D8000B04254D128683D4C810712D5400703D585
:102D9000206840F4E05020602878000703D52068C0
:102DA00040F4604020602068A96820F0F0000843EB
:102DB00020602878C0072DD030496868083901287C
:102DC00012D0022813D0032811D0096889070029DE
:102DD0002DDA216821F0030101432160FFF754FA45
:102DE000814641F2883A0EE009688903EFE70968F5
:102DF0008901ECE7FFF748FAA0EB0901514502D938
:102E00000320BDE8F0872068696800F00C00B0EB93
:102E1000810FEFD1D8F80010404601F00701B14210
:102E200007D90770006800F00700B04201D0012008
:102E3000E7E72878400705D52068E96820F4E050E6
:102E4000084320602878000706D52068296920F407
:102E5000604040EAC100206000F038F82168084A6C
:102E6000C1F30311515CC840064908600648006878
:102E7000FFF7FAFE0020C4E7003C02400838024099
:102E800076980008840000207C0000200448054952
:102E900000680968044AC1F38221515CC840704748
:102EA000840000200838024086980008044805493C
:102EB00000680968044AC1F34231515CC840704758
:102EC000840000200838024086980008154810B594
:102ED000006810F00C02144813D01449042A0FD0D3
:102EE000082A0ED10F4C241F2268236802F03F02EB
:102EF0005B0207D52068C0F38810A0FB010106E043
:102F0000084610BD2168C1F38811A1FB0001002310
:102F1000FDF7BCF92168C1F30141491C4900B0FB30
:102F2000F1F010BD083802400024F40040787D0123
:102F30002DE9F84F04006ED02078DFF84C93C007DD
:102F4000A9F104054AD009F104000168C1F3810127
:102F5000012908D00068C0F3810002280AD1D9F8FD
:102F60000000400206D52868800337D56068002835
:102F7000E1D033E06068B0F5803F10D0B0F5A02F0D
:102F8000286810D020F480302860286820F4802041
:102F900028606068A8B1FFF777F906460DE0286859
:102FA00040F48030F4E740F480202860F7E700BF69
:102FB000FFF76AF9801B642873D828688003F7D567
:102FC0000CE0FFF761F9064605E000BFFFF75CF98A
:102FD000801B6428F0D828688003F7D42078DFF8B5
:102FE000AC8280074FF0000A3ED5A748001D01685B
:102FF00011F00C0F08D00068C0F3810002280BD13B
:10300000D9F80000400207D42868800716D5E06888
:10301000012800D112E033E1E068B8B10120C8F81E
:103020000000FFF731F9064605E000BFFFF72CF975
:10303000801B0228C0D828688007F7D52868216936
:1030400020F0F80040EAC10028600DE0C8F800A0B8
:10305000FFF71AF9064604E0FFF716F9801B02286D
:103060001FD828688007F7D42078000722D5864F1C
:1030700087486169703771B101210160FFF704F978
:10308000064604E0FFF700F9801B022809D83868DB
:103090008007F7D50EE0C0F800A0FFF7F5F8064668
:1030A00005E082E0FFF7F0F8801B02287DD8386841
:1030B0008007F7D42078400768D5DFF8CCB1002727
:1030C0000BF13C0BDBF80000C0000BD4DBF8001068
:1030D00041F08051CBF80010DBF80000012700F030
:1030E000805000906B4E3068C00510D4306840F4BA
:1030F00080703060FFF7C8F8009005E0FFF7C4F873
:103100000099401A022850D83068C005F6D55E4EA6
:10311000A0686C3601280FD00528306810D020F048
:1031200001003060306820F004003060A068B8B161
:10313000FFF7AAF800900FE0306840F00100F4E7D4
:1031400040F004003060F7E7FFF79EF80099411A5D
:1031500041F28830814266D830688007F4D50EE0AD
:10316000FFF792F8009007E0FFF78EF80099411AF8
:1031700041F28830814256D830688007F4D42FB1AC
:10318000DBF8001021F08051CBF80010A069C8B323
:103190003D49091D0968C1F3810102294AD002286D
:1031A000504607D0C8F8600000E03CE0FFF76CF83C
:1031B00004463BE04746C8F86000FFF765F806465E
:1031C00005E000BFFFF760F8801B02282BD82868B5
:1031D0008001F7D4D4E907010843A16A2E4A4908BF
:1031E00002EB0141626A41EA8211084394F82C1013
:1031F00040EA0161C9F8001001203866FFF744F881
:10320000044606E03EE000BFFFF73EF8001B022840
:1032100009D828688001F7D534E000BFFFF734F8FB
:10322000001B022802D90320BDE8F88F286880011E
:10323000F4D427E00128F7D0D9F80000E26900F4BF
:10324000800191421CD1226A00F03F01914217D1C6
:1032500047F6C071626A0140B1EB821F10D1A26AC9
:103260004FF0FF3300F4403103EB5202B1EB024F59
:1032700006D194F82C1000F07060B0EB016F01D013
:103280000120D1E70020CFE7043802400000474288
:10329000800E4742007000400000FFFF70B5040040
:1032A00009D0606A002540B125616561A56294F886
:1032B000510040B10CE0012070BD6068B0F5827F24
:1032C000F4D0E561F2E784F85050204600F044F86D
:1032D000022084F851002068016821F0400101605B
:1032E000A088218900F4827001F404410843A18977
:1032F00001F400610843217C01F002010843217DB3
:1033000001F001010843218B01F400710843217F82
:1033100001F03801084394F8201001F080010843BF
:10332000218D01F40051084321680860A06904213F
:1033300001EA104094F8241001F0100108432168BC
:1033400048602068C16921F40061C16165650120A0
:1033500084F85100002070BD10B586B004461421D9
:103360006846FDF7EBF813492068884220D11248DF
:103370000021026842F480520260006800F480502C
:1033800005900D481438026842F00102026000689E
:1033900000F001000590E02000900220CDE901013D
:1033A000032003900520049069460448FEF774FE4C
:1033B00006B010BD00300140443802400000024019
:1033C00010B5401EB0F1807F01D3012010BD4FF039
:1033D000E02460610F21601701F05CFD0020A06116
:1033E00007202061002010BD70B5040004D094F8BF
:1033F0003D00002510B106E0012070BD84F83C506E
:10340000204600F023F8242084F83D002068C1689D
:1034100021F40051C160204601F050FC2068016990
:1034200021F4904101612068416921F02A01416144
:103430002068C16841F40051C1602564202084F8EF
:103440003D0084F83E00002070BD00002DE9F041F1
:1034500086B0064614216846FDF770F82C4930689E
:10346000884251D12B480024016841F010010160CD
:10347000006800F01000059026481438016841F0FB
:10348000010101600068694600F0010005904FF4F9
:10349000C06000900220CDE90104032003900720C2
:1034A00004901D48FEF7F8FD1D4D1C484FF00067C5
:1034B0002860C5E901744FF48068C5E903488015A8
:1034C0006C61C5E906400002C5E908042846FEF71C
:1034D00067FD08B1FEF76CFCB563AE630F48114D94
:1034E0007830E5E802074020A5E811010D4845F8CD
:1034F0001449AC61EC612C626C62FEF751FD08B1BD
:10350000FEF756FC7563AE6306B0BDE8F0810000BF
:103510000010014044380240000002404064024074
:1035200028060020880600202DE9F84F044690F870
:103530003E009A4616460D46202853D1FDB1F6B1FD
:1035400094F83C0001284DD0012084F83C0000276D
:103550002764222084F83E002763FEF795FEA685A7
:103560008146E685A0684FF48058404501D1206926
:1035700040B12E465FF0000584F83C7027E0012042
:10358000BDE8F88F0026F7E74B46002220212046B1
:10359000CDF800A001F018FC08B10320F0E726B137
:1035A000A06840451BD038B108E020684068C0F3EF
:1035B000080025F8020B07E0206980B12068406808
:1035C00000F07F0006F8010BE08D401EE085E08DE5
:1035D0000028D9D1202084F83E000020D0E72068C0
:1035E0004068EFE70220CBE72DE9F843044690F866
:1035F0003D001F4616460D4620284CD1C5B1BEB130
:1036000094F83C00012846D0012084F83C004FF09B
:103610000008C4F84080212084F83D00FEF734FE05
:10362000A6848146E684A068B0F5805F03D004E0FC
:103630000120BDE8F883206928B12E465FF000051F
:1036400084F83C800EE00026FAE78021204601F055
:10365000BBFBA0B9AEB116F8010B21684860E08C45
:10366000401EE084E08C4B464FF00002009700289B
:10367000EBD14FF04001204601F0A6FB30B1032012
:10368000D7E735F8020BC0F30800E6E7202084F8FE
:103690003D000020CDE70220CBE7FEE701684A6944
:1036A000D24352050FD46FF480624A61002140F882
:1036B000301F202242738173026942F004020261CA
:1036C0000173012070470020704700002DE9F84F7A
:1036D0000446C06A1E4693460D4621680A6842F4B5
:1036E00080620A60082807D0012805D010F5803FC5
:1036F00002D0206B112804D12068016841F4807148
:1037000001604FF001195B460022494620460096B1
:1037100000F098F94FF4007840B120680068C005C7
:1037200001D5C4F840800320BDE8F88F2069DFF898
:1037300084A0B0F5804F0FD00620216800EAD5178D
:1037400047F0F000086133465A460AF10601204668
:1037500000F0ACF958BB03E0E8B240F001001CE017
:103760002168E8B2086133465A465146204600F0C7
:103770009DF9E0B92068416981690091016841F4CF
:10378000807101605B46002249462046009600F0A9
:1037900059F90028C1D147F0F1002168086133468A
:1037A0005A465146204600F081F90028BCD001203D
:1037B000BAE7000002000100F8B50446C06A1E46E0
:1037C0000D461746082807D0012805D010F5803F80
:1037D00002D0206B122804D12068016841F4807166
:1037E0000160134600224FF001112046009600F0C0
:1037F00029F940B120680068C00502D54FF4007077
:1038000020640320F8BD2069B0F5804F0ED006205B
:10381000216800EAD51040F0F000086133463A46CE
:103820000B49204600F042F978B902E005F0FE00AD
:1038300000E0E8B221680861054933463A46891F2D
:10384000204600F033F90028DCD00120F8BD00004C
:10385000080001002DE9F84F0446006889460B9DD9
:1038600001689846174641F480610160206801684C
:1038700041F48071016000954FF0011B0022594610
:1038800020460A9B00F0DEF84FF4007A40B1206831
:103890000068C00501D5C4F840A00320BDE8F88F3A
:1038A000216809F0FE0008612B46284920460A9A43
:1038B00000F0FCF8F0BB20684169806900902A465E
:1038C00020460A9900F070F940B1206C04283AD1E2
:1038D0002068016841F40071016034E0FEB2B8F183
:1038E000010F09D02168380A08612A4620460A9942
:1038F00000F05AF90028E8D1206806612A462046DF
:103900000A9900F051F90028DFD12068016841F4DC
:103910008071016000950022594620460A9B00F004
:1039200091F80028B3D1216809F0FF0040F00100B0
:10393000086100E007E02B46044920460A9A00F09F
:10394000B5F80028AAD00120A8E700000200010075
:103950002DE9F843044600680D46DDE90897016843
:103960009846164641F4807101604B4600224FF0A4
:1039700001112046009700F065F848B12068006802
:10398000C00502D54FF4007020640320BDE8F88321
:10399000216805F0FE0008613B464A46154920466D
:1039A00000F084F888B920684169806900903A463F
:1039B0004946204600F0F8F848B1206C042804D1AC
:1039C0002068016841F4007101600120DEE7F5B272
:1039D000B8F1010F09D02168300A08613A4649461A
:1039E000204600F0E1F80028E7D1206805610020BA
:1039F000CCE700000200010070B516460D460446F3
:103A00000DE02046FFF74AFE08B1012070BD681C9A
:103A100005D0FEF739FC801BA84207D835B12068D5
:103A20004069C0434007ECD4002070BD002044F83A
:103A3000300F20216173A073216941F020012161C1
:103A40002073E2E72DE9F0471E4690460D460446F6
:103A5000C1F30747DDF8209008E0701C06D0FEF7A0
:103A600013FCA0EB0900B0420FD876B12068012FFB
:103A700018D0806925EA00000004000C14D0002151
:103A80004145EAD00020BDE8F087002044F8300F1F
:103A900020216173A073216941F02001216120730D
:103AA0000120F0E74069E5E70121E9E72DE9F0476A
:103AB0009A4691460E46044600254FF02008C1F371
:103AC000074725E020684069C043400514D42068BA
:103AD000016841F40071016021686FF48060486101
:103AE000256384F83D8084F83E50206C40F004004B
:103AF000206484F83C501FE0B9F1FF3F08D0FEF786
:103B0000C3FBA0EB0A0149450CD8B9F1000F09D05D
:103B10002068012F13D0806926EA00000004000C01
:103B20000BD0CFE744F8305F84F80D80A57320698F
:103B300040F02000206125730120BDE8F087406936
:103B4000EAE72DE9F041002590460E46044620277D
:103B500017E04069C043C0060CD454F8301B6FF026
:103B60001000486144F810596777A577206A2062F1
:103B7000257717E0FEF788FBA0EB0800B04208D8D5
:103B80003EB120684169C9434906E2D40020BDE83E
:103B9000F08144F8305F6773A573206940F020001E
:103BA000206125730120F2E770B516460D460446E4
:103BB0000DE02046FFF772FD08B1012070BD681CC2
:103BC00005D0FEF761FB801BA84207D835B12068FD
:103BD0004069C0430006ECD4002070BD002044F8CA
:103BE000300F20216173A073216941F02001216110
:103BF0002073E2E710B500216B2001F019F9642071
:103C0000FEF738FA01216B2001F012F9C820FEF707
:103C100031FA03211A2001F00BF90421192001F0D7
:103C200007F918211B2001F003F918211C2001F0CD
:103C3000FFF803211D2001F0FBF80221372001F0DD
:103C4000F7F86420FEF716FA752000F0D9F804465C
:103C500071280AD00A23082205A10848FFF7C4FCEE
:103C60002046FDF73DFE002010BD012010BD0000E4
:103C70000A4D50552049443D0000000054050020E5
:103C80002DE9F04786B014216846FCF757FC374809
:103C90000025016841F001010160016801F00101A6
:103CA0000591016841F0020101600068DFF8C090F1
:103CB00000F0020005902A4641F20F014846FEF747
:103CC000DEFA4FF40148012241464846FEF7D7FA92
:103CD000DFF8A0A0012210215046FEF7D0FA0327FA
:103CE0000124CDE90074022669464846CDE9026701
:103CF000FEF7D2F90C208DE851006946484603963C
:103D0000FEF7CAF90097CDE9015669465046FEF71D
:103D1000C3F94FF4204000901748CDE901056946EA
:103D20005046FEF7B9F9CDE90084CDE9024769466E
:103D30004846FEF7B1F920038DE831006946484650
:103D40000395FEF7A9F90820CDE90005694602941C
:103D50005046FEF7A1F910208DE8710069465046E3
:103D6000FEF79AF906B0BDE8F0870000303802404F
:103D70000000024000040240000011100F4810B57E
:103D80000D4901604FF4827141600021022281607F
:103D9000C0E9031201224261520282612022C0E97D
:103DA0000721416281620A21C162FFF777FA002888
:103DB00001D072B6FEE710BD00300140FC040020C7
:103DC000FEE7FEE7704700001FB5044664230522A6
:103DD000D0210A48FEF722FB0028F7D101216422F6
:103DE00003A88DE807000B46224618210348FEF77A
:103DF00051FD9DF80C0004B010BD0000A804002087
:103E00001FB5044664230522D0210A48FEF706FBAD
:103E10000028F7D10121642203A88DE807000B4692
:103E20002246D0210348FEF735FD9DF80C0004B072
:103E300010BD0000A8040020FEB53E4D002648201D
:103E40006E602E608DF8080064230522EE213A484A
:103E5000FEF7E4FA0028F7D16424012302AAEE2138
:103E600035480094FEF780FC0A20FEF703F98DF830
:103E7000086064230522EE212F48FEF7CFFA0028C0
:103E8000F7D1012302AAEE212B480094FEF76CFC27
:103E9000032301AAEE2128480094FEF775FB9DF844
:103EA0000400297940EA01209DF8051041EA00202C
:103EB0009DF8061041EA0020686058208DF808003F
:103EC00064230522EE211C48FEF7A8FA0028F7D14A
:103ED000012302AAEE2118480094FEF745FC0A20AF
:103EE000FEF7C8F88DF8086064230522EE21124819
:103EF000FEF794FA0028F7D1012302AAEE210E481A
:103F00000094FEF731FC032301AAEE210A48009435
:103F1000FEF73AFB9DF80400297840EA01209DF85D
:103F2000051041EA00209DF8061041EA00202860B3
:103F3000FEBD000010000020A80400203EB5A02017
:103F40008DF8080064230522EE21B148FEF766FAD9
:103F50000028F7D16425012302AAEE21AC48009580
:103F6000FEF702FC64230522EE21A948FEF756FA6B
:103F70000028F7D1022301AAEE21A5480095FEF7FB
:103F800003FB9DF805009DF80410A24C00EB0120F6
:103F90002060A2208DF8080064230522EE219C48B1
:103FA000FEF73CFA0028F7D1012302AAEE21984837
:103FB0000095FEF7D9FB64230522EE219448FEF715
:103FC0002DFA0028F7D1022301AAEE21904800958E
:103FD000FEF7DAFA9DF805009DF8041000EB0120C9
:103FE0006060A4208DF8080064230522EE21884833
:103FF000FEF714FA0028F7D1012302AAEE21844823
:104000000095FEF7B1FB64230522EE218048FEF700
:1040100005FA0028F7D1022301AAEE217C48009579
:10402000FEF7B2FA9DF805009DF8041000EB0120A0
:10403000A060A6208DF8080064230522EE217448B4
:10404000FEF7ECF90028F7D1012302AAEE2170480F
:104050000095FEF789FB64230522EE216C48FEF7EC
:10406000DDF90028F7D1022301AAEE216848009566
:10407000FEF78AFA9DF805009DF8041000EB012078
:10408000E060A8208DF8080064230522EE21604836
:10409000FEF7C4F90028F7D1012302AAEE215C48FB
:1040A0000095FEF761FB64230522EE215848FEF7D8
:1040B000B5F90028F7D1022301AAEE215448009552
:1040C000FEF762FA9DF805009DF8041000EB012050
:1040D0002061AA208DF8080064230522EE214C48B7
:1040E000FEF79CF90028F7D1012302AAEE214848E7
:1040F0000095FEF739FB64230522EE214448FEF7C4
:104100008DF90028F7D1022301AAEE21404800953D
:10411000FEF73AFA9DF805009DF8041000EB012027
:104120006061AC208DF8080064230522EE21384838
:10413000FEF774F90028F7D1012302AAEE213448D2
:104140000095FEF711FB64230522EE213048FEF7AF
:1041500065F90028F7D1022301AAEE212C48009529
:10416000FEF712FA9DF805009DF8041000EB0120FF
:10417000A061AE208DF8080064230522EE212448BA
:10418000FEF74CF90028F7D1012302AAEE212048BE
:104190000095FEF7E9FA64230522EE211C48FEF79C
:1041A0003DF90028F7D1022301AAEE211848009515
:1041B000FEF7EAF99DF805009DF804100A2300EBCC
:1041C00001211548E161226882606268C260A268CC
:1041D0000261E2684261226982616269C261A26928
:1041E000C0E9082106220DA10E48FFF7FDF90025C0
:1041F00034F8250080B2FDF768FB0A2301220AA1EA
:104200000848FFF7F1F96D1CEDB2082DF0D33EBD63
:10421000A804002088000020100000200A50524FFF
:104220004D3D0000540500203A0000001CB51E2042
:104230008DF8040064230522EE210848FEF7EEF80D
:104240000028F7D164200090012301AAEE21034841
:10425000FEF78AFA0520FDF70DFF1CBDA80400201B
:1042600010B5002000F024F8BDE8104000F04AB975
:1042700070B5802813D2402911D20B4B012401F0D4
:1042800007051E79AC40094BC90800EBC1100EB1FF
:1042900032B101E0012A03D0195CA143195470BD69
:1042A000195C2143FAE7000038000020A800002034
:1042B00028B1FF224FF480610248FCF737B9002291
:1042C000F8E70000A8000020014A108051807047E4
:1042D0003800002010B502F08BFB44F62063012269
:1042E00078215448FEF79AF808B1002010BD40F636
:1042F000C210401EFDD1AE220021782002F07EFBCC
:1043000020220021782002F079FB10220021782061
:1043100002F074FBB0220021782002F06FFBC8226B
:104320000021782002F06AFB00221146782002F07A
:1043300065FB10220021782002F060FB4022002162
:10434000782002F05BFB81220021782002F056FBEE
:10435000FF220021782002F051FBA12200217820C9
:1043600002F04CFBA6220021782002F047FBA82295
:104370000021782002F042FB3F220021782002F049
:104380003DFBA4220021782002F038FBD32200213B
:10439000782002F033FB00221146782002F02EFB39
:1043A000D5220021782002F029FBF022002178207C
:1043B00002F024FBD9220021782002F01FFB2222E8
:1043C0000021782002F01AFBDA220021782002F086
:1043D00015FB12220021782002F010FBDB220021C5
:1043E000782002F00BFB20220021782002F006FB4F
:1043F0008D220021782002F001FB14220021782078
:1044000002F0FCFAAF220021782002F0F7FA2E2207
:104410000021782002F0F2FA0020FFF749FF00F0B7
:1044200071F8054800210180418001214171084651
:1044300010BD0000A8040020380000202DE9F0473E
:10444000814625480D46924601882A7811448029E4
:1044500005D28046408869780844402802D300206D
:10446000BDE8F08700262AE0A9F1200111FB0060D9
:104470006A68002432F810701DE000BF07FA04F0EB
:10448000000409D5B8F80210B8F8000031442044FF
:1044900089B280B252460BE0BAF1000F1AD0002266
:1044A000B8F80210B8F800003144204489B280B254
:1044B000FFF7DEFE641C2878A042DFD8761C6878FF
:1044C000B042D1D8B8F800102A7848461144A8F86C
:1044D0000010C5E70122E3E73800002070B515465B
:1044E0000E46044609E02A463146FFF7A7FF217829
:1044F000884201D0C8B270BD641C20780028F2D177
:10450000C0B270BD70B5104D002400BF04F1B00002
:10451000C2B20021782002F071FA00221146782000
:1045200002F06CFA10220021782002F067FA05EB05
:10453000C41280234021782002F070FA641CE4B297
:10454000082CE3D370BD0000A80000207047FEF7E0
:1045500069BB000030B593B030216846FBF7EEFF31
:1045600014210CA8FBF7EAFF1D480024016841F064
:1045700080510160006800F0805011901948016876
:1045800021F4404141F4004101600068022500F43B
:104590004040119001200390102004900095069552
:1045A0000820CDE907405420CDE9090504200B90EF
:1045B0006846FEF7BDFC08B172B6FEE70F20CDE9F4
:1045C0000C054FF48050CDE90E4002210CA8109448
:1045D000FEF7C2FB002801D072B6FEE713B030BD73
:1045E00040380240007000400248016841F4700108
:1045F0000160704788ED00E080ED040AB7EE000A24
:10460000C0EE201AC0ED091A80ED031A80ED050AEC
:104610009FED040A80ED060A80ED070A80ED080A86
:10462000704700000000000011B504462DED0A0B94
:104630002DED108BB0EE43AAB0EE448AB5EEC0AAC1
:10464000F0EE638AB0EE629AF0EE429AF0EE61AA62
:10465000F1EE10FA8BB009D1F5EEC08AF1EE10FA46
:1046600004D1B5EEC08AF1EE10FA7DD0D4ED063A51
:1046700094ED073AD4ED082A63EEC01AB6EE002A8C
:10468000F5EEC0AA43EE601A42EEC11A21EE82FA9C
:10469000D4ED051A21EE804A03EE014A02EEE04A0B
:1046A00064EE02EA21EEA04A03EEC14A21EE811A2D
:1046B00003EEA01A02EE804A03EE401A24EE02EA4C
:1046C00061EE02DAF1EE10FA09D1F5EEC09AF1EEE0
:1046D00010FA04D1B5EEC09AF1EE10FA7ED02AEEAF
:1046E000AA0A09EEA90A09EE090A02F035F96AEEEA
:1046F000803A69EE802A29EE009A2AEE0A0ACDED68
:104700001E3ACDED1F2A8DED209A08EEA80A08EE7C
:10471000080A02F021F928EE809A68EE008A94EDEA
:10472000052AB0EE008A6AEE009A62EE08FA2FEED1
:10473000A93A2FEEA81A8DED093A2FEE893A8DEDA0
:10474000083AD4ED061A21EE88BA2BEE293A8DEDFF
:10475000073A94ED080AD4ED070A20EE08CA60EE85
:1047600088AA8DED06CA00E086E12FEEA03A62EE3F
:10477000215A22EE207A8DED0A3A2AEE803A62EE34
:10478000007A22EE02DA8DED043ACDED005A8DED7D
:10479000057ACDED037A61EEA05A60EE807A69EE7B
:1047A0008D2ACDED025ACDED017A9DED083A61EEEC
:1047B000A1BA2BEE092A43EE402A61EE80CA20EE10
:1047C000A0AA20EE00CA41EE202A49EEAB2A42EE12
:1047D000202A2BEE282A42EE002A00E00FE19DED70
:1047E000093A49EECA2A20EE032A9DED073A09EE5E
:1047F0000D2A49EECC2A01EE612A03EE202A6AEE48
:10480000A80A09EE6B2A09EE0A2A00EE802A22EE97
:10481000A20A09EE4C2A02EE020A10EE100A02F079
:10482000DDFE41EC100B01F083FD51EC100B02F0AA
:1048300033F994ED062A9DED083AD4ED071A94ED6C
:10484000081A62EE030A9DED093ADDED005A6AEEA0
:10485000892A43EE610A9DED073ADDED1E3AB6EE78
:10486000006A00EE100A9DED057A48EE8D0ADDED36
:10487000037A3CEEC75A20EE084A43EE010A9DED4A
:10488000043A05EE883ADDED025A48EEEB0A75EE81
:10489000E75ADDED017A42EE810ADDED1F2A73EE63
:1048A000622A9DED0A3A48EECA0A1CEE883A22EEC8
:1048B0008BDA48EE8C0A33EE633A76EE4A3A36EEFD
:1048C0006B6A0AEEC3DA73EECC3A61EEA06A36EE9A
:1048D0004A6A9DED06CA63EE803A60EE884A40EE71
:1048E000853A22EE205AB0EE457A73EEE93A65EE4B
:1048F000809ADDED005A00EE417A06EEE3DA75EEBD
:10490000A75AF7EE007A4BEEC87A40EEA59A4AEE27
:10491000487A79EEC95A9DED209AF1EE009A07EE99
:1049200025DA9DED057A37EEC99A62EE297A37EEDF
:104930002C7A27EE007A00EE867A37EE686A63EE0C
:104940000C8A21EE807A4FEEA28A07EE06DA47EE55
:10495000C98A61EE207A47EEA38AD4ED057A22EE69
:104960008C8A04EE415A00EEA77A40EE676A0FEE99
:10497000C38A47EE258A21EE007A04EEC27A22EE3F
:10498000002A47EE068A21EEA97A07EE498A24EE2C
:10499000617A23EE0B9A00EEE77A0AEEA29A07EE0E
:1049A000238AB0EE427A05EE239A00EE817A67EE12
:1049B000800A2DEE0D0A44EEE10A07EE258A06EE86
:1049C000A59A08EEA80A00EE868A02EE069A08EE7C
:1049D000080A09EE090A01F0BFFF6DEE000A28EE91
:1049E000801A68EE001A29EE002A94ED040A00EEFF
:1049F00060FA40EE41EA00EE61EA40EE42DA94ED00
:104A0000052A94ED090A0FEE002A84ED052AD4ED5B
:104A1000060A4EEE800AC4ED060A94ED071A0EEE61
:104A2000001A84ED071AD4ED081A4DEE801A22EE12
:104A3000020A00EEA00AC4ED081A01EE010A01EE16
:104A4000A10A01F089FFD4ED050A60EE800AC4EDE9
:104A5000050AD4ED060A60EE800AC4ED060AD4ED1C
:104A6000070A60EE800AC4ED070AD4ED080A20EEBA
:104A7000800A84ED080A07E0F0EE492AB0EE692AC0
:104A8000F0EE6A1A00F009F80BB02046BDEC108B6E
:104A90000BB0BDE8104001F073BD10B5B6EE004A92
:104AA0002DED0A8BB0EE619AB0EE628AF0EE428A8A
:104AB000B5EEC09A0446D0ED063AD0ED072A90ED47
:104AC000082A63EEC01A42EEE01A42EE411A61EE85
:104AD00084BAD0ED051A21EE803A02EE813A02EE58
:104AE000603A23EE04BA21EEA03A03EEC13A21EE79
:104AF000811A03EEA01A02EE003A02EEC01A63EE2B
:104B000004AA21EE04AAF1EE10FA09D1F5EEC08A4A
:104B1000F1EE10FA04D1B5EEC08AF1EE10FA7ED0B3
:104B200029EE090A08EEA80A08EE080A01F014FFA7
:104B300069EE000A28EE801A28EE006AB0EE000A3C
:104B4000D4ED051A94ED062A94ED073AD4ED083A0F
:104B500021EE807A22EE005A63EE005A63EE807AEC
:104B6000B1EE000A21EEA18A21EE80CA63EE031A9B
:104B700062EE004A63EEA38AF2EE002A6CEE219AFE
:104B800022EE229A63EE226A64EEA8CA45EEA09A4B
:104B900062EE022A23EE004A47EEE0CA4CEE229A69
:104BA00028EE00CA4CEE02CA2CEE032A45EE419ACA
:104BB00007EE202A47EE41CA04EE282A3CEEE48A9A
:104BC00009EE228A07EEC12A09EE218A72EE448A92
:104BD00022EE802A21EE800A46EEA28A22EE239A55
:104BE00004EE868A05EE609A46EEA18A00EE239ACC
:104BF00029EEA90A44EE068A08EE080A05EEC19AD3
:104C000008EEA80A09EE090A01F0A6FE29EE802A9C
:104C100028EE001A68EE800A69EE001A00E009E04A
:104C200094ED040A40EE42BA00EE41BA40EE60AAAA
:104C300000EE61AA94ED052A94ED090A0BEE802A94
:104C400084ED052AD4ED060A4BEE000AC4ED060AEF
:104C500094ED071A0AEE801A84ED071AD4ED081AAB
:104C60004AEE001A22EE020A00EEA00AC4ED081A6B
:104C700001EE010A01EEA10A01F06EFED4ED050A73
:104C8000204660EE800AC4ED050AD4ED060A60EE07
:104C9000800AC4ED060AD4ED070A60EE800AC4ED6E
:104CA000070AD4ED080A20EE800A84ED080ABDEC5C
:104CB0000A8BBDE8104001F063BC000070B50446EB
:104CC00000680169E26821F44051114301612169E2
:104CD000A068E26908436169114308432168CA6812
:104CE00049F20C639A430243CA6020684169A26991
:104CF00021F440711143416131492068884202D05A
:104D00003049884202D1FEF7D1F801E0FEF7BEF843
:104D1000E2690023192164253226B2F5004F62684A
:104D200028D0A0FB0101930F9200FBF7AFFA0146D8
:104D3000B0FBF5F06FF01802504301EB800006EB7A
:104D40000010B0FBF5F000F0F002B1FBF5F002EB63
:104D50000012B1FBF5F06FF01803584301EB80002F
:104D600006EB0010B0FBF5F000F00F0021681044D6
:104D7000886070BDA0FB010192185B41FBF786FAC9
:104D80000146B0FBF5F00201B1FBF5F06FF018033E
:104D9000584301EB800006EBC000B0FBF5F000F0DB
:104DA000F80002EB4002B1FBF5F0584301EB800044
:104DB00006EBC000B0FBF5F000F00700D6E70000FE
:104DC00000100140001401402DE9F04198461746BB
:104DD0000E460446069D1DE0681C1BD02DB1FDF754
:104DE00053FAA0EB0800A84214D92068C16821F446
:104DF000D071C1602068416921F00101416120202A
:104E000084F83D0084F83E00002084F83C00032034
:104E1000BDE8F0812068006836EA000004D0002078
:104E2000B842D9D00020F3E70120F9E7FEE70000FF
:104E30001FB504468DF80C1064230522D0210848C4
:104E4000FDF7ECFA0028F7D10121642203A88DE8D0
:104E500007000B462246D0210148FDF717FE1FBD73
:104E6000A804002003B401984100009850EAC12032
:104E700018BF04204A0D18BF40F0010040F2FF7235
:104E8000B2EB515F08BF40F00200012808BF0520C7
:104E900002B070470907090E002804DB00F1E0208A
:104EA00080F80014704700F00F0000F1E02080F857
:104EB000141D70470000000070B5C1482DED020BB5
:104EC0002DED0E8B82B0119D25F000449FEDBEDBD1
:104ED0009FEDBFEB84423EDBA4F140511098A1F15D
:104EE0007F6108430FD0BC48844202DC28D110986F
:104EF00030B39DED100B02B0BDEC0E8B02B0BDE8DF
:104F0000704001F0E9BA9DED100B53EC1D2B51ECF4
:104F1000100B02F06DF89DED100B41EC180B53ECEB
:104F20001E2B51EC100B02F063F853EC182B01F020
:104F3000E5FD41EC100B02B0BDEC0E8B02B070BD74
:104F40000120FBF72AFB02B0BDEC0E8B02B0BDE8DE
:104F5000704001F0D5BAA1489FEDA18B844256DA8A
:104F60009DED100BB4F1795F0ADA51EC100BFFF7ED
:104F700079FF042808BF01F0E3FA9DED100BDAE792
:104F800053EC102B51EC100B02F032F841EC190BE2
:104F900095480621B0EE490AF0EE690A784401F01E
:104FA00004FA53EC192B51EC100B02F021F841ECF0
:104FB0001A0B8E48B0EE490AF0EE690A04217844D3
:104FC00001F0F3F953EC192B51EC100B02F010F82F
:104FD00053EC182B01F092FD41EC100B51EC1A0B25
:104FE00053EC102B01F046FECDE900019DED000BC6
:104FF00053EC102B9DED100B51EC100B01F0F8FF52
:105000009DED101B53EC112B01F078FDD2E09DEDCE
:10501000100B51EC100B01F091FB53EC182B02F02C
:105020001BF99FED730BCDE9000153EC102B9DEDA7
:10503000000B51EC100B01F0DBFF41EC190B6E483B
:105040000621B0EE490AF0EE690A784401F0ADF9A4
:1050500053EC192B51EC100B01F0CAFF41EC1B0B68
:105060006648B0EE490AF0EE690A0421784401F07E
:105070009CF953EC192B51EC100B01F0B9FF53ECD8
:10508000182B01F03BFD41EC1C0B51EC190B01F00E
:1050900077FC41EC180B5A489FED5BABA04222DC39
:1050A00053EC1C2B51EC1B0B01F0E4FDCDE900018E
:1050B0009DED000B51EC180B53EC102B01F098FFF9
:1050C00053EC182B01F01AFD53EC1A2B01F090FF52
:1050D00053EC1D2B02F098F953EC1E2B02F0BCF898
:1050E00041EC100B5FE08DED008B002000909DEDFA
:1050F000000B51EC180B53EC102B01F0FFFC9DED55
:10510000000B41EC1E0B53EC102B51EC100B01F07B
:105110006FFF53EC192B02F09FF853EC1E2B01F09C
:10512000A9FD41EC190B53EC1C2B51EC1B0B01F0AE
:10513000A1FD41EC1B0B53EC1A2B51EC190B01F0A8
:1051400057FF53EC1D2B02F087F841EC190B53EC81
:105150001A2B51EC180B01F04BFF53EC1B2B01F0F9
:1051600047FF53EC192B02F04FF99DED000B41EC7A
:10517000180B53EC1A2B51EC100B01F039FF9FED7B
:10518000249B53EC192B02F067F841EC100B51EC07
:10519000180B53EC102B02F037F953EC192B02F0DB
:1051A0005BF841EC100B002D3FF7C5AE51EC100B36
:1051B00001F066FC41EC100BBDE6000000000000B1
:1051C0000000F03F00000000075C143326A6913C6D
:1051D000182D4454FB21F93F0000F07F0000E03F10
:1051E000000000000000F03F004900000E490000F0
:1051F000000000000000E03F52480000604800004E
:105200003333EF3F000000000000000000000040CA
:10521000182D4454FB21E93F70B59B482DED020B3E
:105220002DED068B079D25F00044A04218DC974821
:10523000844202DC0AD1069840B19DED060BBDEC1C
:10524000068B02B0BDE8704001F046B9002DCCBF1E
:105250009FED8F0B9FED900BBDEC068B02B070BDE8
:105260008F48A04215DD8F48A042D8BF4FF0FF34D1
:1052700058DD9DED060B51EC100BFFF7F3FD0428F4
:1052800008BF01F05DF99DED060BBDEC068B02B089
:1052900070BD9DED060B51EC100B01F04FFACDE9FE
:1052A000060181489FED828BA0423CDD8248A042EE
:1052B0001FDD00249FED82AB9DED060B53EC1A2BF6
:1052C00051EC100B01F01AFC9DED060B41EC190B93
:1052D00053EC1A2B51EC100B01F08AFE53EC182BF7
:1052E00002F092F853EC192B01F0C4FCCDE9060151
:1052F00049E09DED060B012453EC182B51EC100BEB
:1053000001F0FCFB9DED060B41EC190B53EC182B47
:1053100051EC100B02F078F853EC192B01F0AAFCB9
:10532000CDE906012FE06848A0421FDD02249FED71
:10533000689B9DED060B53EC192B51EC100B01F003
:1053400057FE53EC182B01F0D9FB9DED060B41ECF9
:10535000180B53EC192B51EC100B02F055F853ECD1
:10536000182B01F087FCCDE906010CE09DED060B42
:10537000032453EC102B9FED580B51EC100B01F054
:1053800079FCCDE906019DED060B53EC102B51EC99
:10539000100B01F02DFE41EC180B53EC182B01F013
:1053A00027FE41EC190B4E480621B0EE490AF0EEFB
:1053B000690A784400F0F9FF53EC182B51EC100BFC
:1053C00001F016FE41EC180B4648B0EE490AF0EE2B
:1053D000690A0521784400F0E8FF53EC192B51ECE1
:1053E000100B01F005FE41EC100B51EC180B53ECC7
:1053F000102B002C0EDA01F081FB9DED061B53EC07
:10540000112B01F0F5FD9DED061B53EC112B01F066
:1054100023FF35E001F072FB9DED061B53EC112BD1
:1054200001F0E6FD41EC100B2F48784400EBC4007E
:1054300090ED001B51EC100B53EC112B01F0E4FF2D
:105440009DED061B53EC112B01F0DEFF41EC100B20
:105450002648784400EBC40090ED001B51EC100B83
:1054600053EC112B01F0F8FE41EC100B002DA2BF04
:10547000BDEC068B02B070BD51EC100B01F000FBCF
:1054800041EC100B01E70000000010440000F07F29
:10549000182D4454FB21F93F182D4454FB21F9BF2A
:1054A0000000DC3F0000203E0000F33F0000000051
:1054B000000000000000F03F0000E63F0000000098
:1054C00000000000000000400080034000000000D9
:1054D000000000000000F83F000000000000F0BFE6
:1054E0002A460000E04500006A4500002245000011
:1054F00070B56B4E2DED040B2DED028B82B0DDF8F7
:105500001CC0DDE905235C422CF000411C4341EA4C
:10551000D474049D22F00040B44205D86C422C4360
:1055200040EAD474B4420BD99DED061B9DED040BEB
:1055300002B0BDEC028B04B0BDE8704000F0D6BFF5
:10554000ACF14054A4F17F641C430BD0022404EA64
:10555000AC7444EAD27405439FED538B9FED542BFA
:1055600007D015E09DED040B51EC100B00F0FFFF90
:1055700042E0002C11BF012C9DED040B02B0BDECEC
:10558000028B04BF04B070BD022C38D0032C3BD07A
:105590000B439FED491B9FED4A0B0AD0B14218D136
:1055A000B04209D121F0804120F080400791059060
:1055B0000FE0002A15DA10E0434B7B44002C08BFB3
:1055C00093ED000B0DD0012C10D0022C17D0032C22
:1055D0001AD0B0421DD1002A03DAB0EE410AF0EE33
:1055E000610A02B0BDEC028B04B070BD93ED000BFC
:1055F00051EC100B01F044FA41EC100BF1E7B0EE66
:10560000480AF0EE680AECE7B0EE420AF0EE620AF1
:10561000E7E7401A00153C28C8BF8DED000B19DCE8
:10562000BCF1000FBEBF10F13C0F9FED290B8DEDBB
:10563000000B0FDB9DED060B53EC102B9DED040BC7
:1056400051EC100B01F016FB01F078F800F08FFF21
:10565000CDE90001002C08BF9DED000BC1D0012C4D
:1056600010D0022C9FED1C0B53EC102B9DED000B6A
:1056700051EC100B0DD001F0C7FE53EC182B01F0CC
:10568000C3FEB9E7019880F0004001909DED000B4A
:10569000A7E701F0B9FE53EC182B01F0DDFDABE7F5
:1056A0000000F07F00000000182D4454FB21094049
:1056B000182D4454FB2109C0182D4454FB21F9BF77
:1056C000182D4454FB21F93F524400000000000013
:1056D0000000000000000000075C143326A6A13C77
:1056E0002DE9F04D2DED040B2DED0E8B96B0DDE97F
:1056F0002550279CDDF890A025F0004624F00048B6
:10570000BAF1000F14BF0121002101EB4502FC4951
:1057100053184A1093422AD3002814BF01230023B0
:1057200003EB44030B44F7498B4220D358EA0001B2
:105730009FEDF59B76D0DFF8D8B35D4503D1BAF184
:10574000000F05D188E0BAF1000F08BF002100D09A
:10575000012101EB450111F5001F08D8002814BFF5
:105760000121002101EB440111F5001F0BD99DED32
:10577000261B9DED240B16B0BDEC0E8B04B0BDE8CE
:10578000F04D00F0B3BE0027002DBCBFE1498845B5
:1057900021DAE1498845A8BF02271CDAC3451ADC93
:1057A000DE4901EB2851142908DDC1F1340220FA49
:1057B00002F101FA02F282420DD108E058B9C1F1BA
:1057C000140228FA02F101FA02F2424503D101F073
:1057D0000101C1F1020756EA0A0124D1002C22DAA4
:1057E000002D18BF022F01D0012F0AD00220FAF796
:1057F000D4FE16B0BDEC0E8B04B0BDE8F04D00F049
:1058000053BE0220FAF7C9FE00F04EFE51EC100B19
:1058100001F036F941EC100B16B0BDEC0E8B04B064
:10582000BDE8F08D18E09FEDBEAB9FEDBF8B00286B
:1058300071D1B848804522D105F1804010F5801023
:1058400008BFBAF1000F07D0B3450ADC002CA8BF8F
:105850009DED260BE0DA0DE0B0EE490AF0EE690AA4
:10586000DAE7002C06DA9DED260B51EC100B01F067
:1058700007F96FE0AE48784490ED000BCCE7D845CF
:105880004DD1002C48DA2EB186423AD1BAF1000F40
:1058900042D126E0BAF1000F13D00220FAF77DFEC4
:1058A00000F03EFE8DED020B9DED240B8DED000B07
:1058B00010EE900A039961F31E0003909DED020B18
:1058C000AAE78DED02AB9DED240B1AEE901A10EEB7
:1058D000900A8DED000B61F31E0003909DED020B0D
:1058E0009AE78DED028B9DED240B18EE901A10EEC9
:1058F000900A8DED000B61F31E0003909DED020BED
:105900008AE709DA9DED240B51EC190B53EC102BAF
:1059100001F0B0F91EE020E09DED240B7CE786420B
:105920001BDAB4F1804F0DD0A4F10050B0F1FF505C
:1059300013D1002D11DB9DED240B51EC100B01F068
:105940001FF807E09DED240B53EC102B51EC100BCE
:1059500000F0C2BC41EC100B5EE79DED240B51EC56
:10596000100B00F0EBFEBAF1000FCDE90E0142D1B1
:105970009FED710B46B3A6F1E040B0F17F600CD013
:105980005E4538D1002D00DAA7B3022F0CBF0120ED
:105990004FF0FF3001F0C6FADCE7002D01DD002CEE
:1059A0000DDA002D01DD002C1FDB002D16DA002C96
:1059B00014DB012F08BF9FED620B3FF42DAFB0EE5B
:1059C0004A0AF0EE6A0A27E7022F18BF002D0CD012
:1059D000012F0AD1002DFFF61FAF06E0002DB8BF42
:1059E000002C08DA012F3FF417AFB0EE480AF0EEB2
:1059F000680A11E71BE0012000EBE57050EA07019F
:105A000015D0791EB0EE498AF0EE698A084308BFC6
:105A10009FED4D8B4E480025804570DD4D494E4829
:105A2000884514DDB0420DDB002C19DB2FE001208E
:105A3000FAF7B3FD16B0BDEC0E8B04B0BDE8F04D27
:105A400000F05EBDB34502DC002C09DC1FE086429D
:105A500002DA002C1BDA03E05E452BDD002C16DD9C
:105A60000220FAF79AFD00F05BFD8DED020B53EC7E
:105A70001A2B51EC180B01F0BBFACDE90001039988
:105A8000019861F31E0003909DED020BC4E6022015
:105A9000FAF783FD00F054FD10EE901A18EE900A0C
:105AA0008DED020B8DED008B61F31E0003909DEDDB
:105AB000020BB1E69DED0E0B53EC192B51EC100BC4
:105AC00001F0A2FC9FED260BCDE9080153EC102B51
:105AD0009DED080B51EC100B01F08AFA9FED221B93
