:020000040800F2
:10000000F0080020550200086B340008332B00086C
:100010006934000887150008F93600080000000060
:10002000000000000000000000000000DD340008B7
:100030001D160008000000006D340008DF340008C1
:100040006F0200086F0200086F0200086F020008CC
:100050006F0200086F0200086F0200086F020008BC
:100060006F0200086F0200086F0200086F020008AC
:100070006F0200086F0200086F0200086F0200089C
:100080006F0200086F0200086F0200080000000005
:100090000000000000000000000000006F020008E7
:1000A0006F0200086F0200086F0200086F0200086C
:1000B0006F0200086F0200086F0200086F0200085C
:1000C0006F0200086F0200086F0200086F0200084C
:1000D0006F0200086F0200086F02000800000000B5
:1000E0006F0200086F0200086F02000800000000A5
:1000F0000000000000000000000000006F02000887
:10010000000000006F0200086F0200086F02000884
:1001100000000000000000000000000000000000DF
:100120006F0200086F020008891500086F020008BE
:100130006F02000800000000000000000000000046
:100140000000000000000000000000006F02000836
:100150006F0200086F020008951500086F02000882
:100160006F0200086F02000800000000000000009D
:10017000000000000000000000000000000000007F
:10018000000000006F0200080000000000000000F6
:100190006F02000800F002F800F04CF80AA090E8A6
:1001A000000C82448344AAF10107DA4501D100F032
:1001B00041F8AFF2090EBAE80F0013F0010F18BFB3
:1001C000FB1A43F00103184790410000B0410000C2
:1001D000103A24BF78C878C1FAD8520724BF30C873
:1001E00030C144BF04680C60704700000023002445
:1001F00000250026103A28BF78C1FBD8520728BF37
:1002000030C148BF0B607047662904F04080642904
:1002100000F0F480002070471FB504F02EF800F0C5
:1002200075FC04000020002103F0BAFCE0601FBD53
:1002300010B510BD00F06AFD1146FFF7EDFF03F0A9
:100240004DFC00F088FD03B4FFF7F2FF03BC00F0A3
:10025000CBFD00000948804709480047FEE7FEE75C
:10026000FEE7FEE7FEE7FEE7FEE7FEE7FEE7FEE766
:1002700004480549054A064B7047000079350008D7
:1002800095010008F0020020F0080020F004002092
:10029000F004002053EA020C00F069802DE9F04BD5
:1002A0004FF00006002B1FBFB3FA83F503FA05F4E5
:1002B00024FA05F65E4012BF1643B2FA82F502FA3E
:1002C00005F4C5F120051EBF22FA05FC44EA0C0422
:1002D000203556EA044C4FEA144418BF641C4FF012
:1002E00000084FF00009904271EB030C39D300294C
:1002F00019BFB1FA81F701FA07F6B0FA80F700FAF0
:1003000007F6C7F120071EBF20FA07FC46EA0C06D5
:100310002037B6FBF4FCA7EB0507103F07F01F0BD7
:10032000CBF120060CFA0BFB2CFA06F644BFB346C1
:100330000026202FA4BF5E464FF0000B5BEA060CA0
:1003400008BF4FF0010B19EB0B09ABFB027C48EB2C
:100350000608C01B06FB02CC0BFB03CC71EB0C01A7
:10036000C1E70B46024641464846BDE8F08B13B54F
:100370004FF000004FF00001AFF30080BDE81C40DB
:10038000704700000FB41CB5074B06AA7B446946B2
:100390000090059800F0A1FB0020694600F0B0FB3A
:1003A0001CBC5DF814FB00007107000070B504462A
:1003B00085690068C10601D5302600E02026C00707
:1003C00007D070BDD4E9012130469047206A401C17
:1003D00020626D1EF6D570BD70B504468569007843
:1003E000C00707D170BDD4E9012120209047206AC1
:1003F000401C20626D1EF6D570BD00002DE9F04155
:100400000646002410687529314616A510D0AFF3B2
:100410000080002802DA404213A507E031688A070D
:1004200001D512A502E0490704D511A5012401E078
:10043000AFF3008000210A2206F1240709E0B0FB97
:10044000F2FCB0FBF2F302FB1C003030785418468B
:10045000491C0028F3D123462A463046BDE8F04126
:1004600000F0CEB8000000002D0000002B000000BE
:10047000200000002DE9F05F894604464FF0000A95
:10048000DFF824B1FB44C0F820A02046E16888478B
:1004900000287DD0252806D0D4E901219047206A84
:1004A000401C2062F1E700255F462046E16888474E
:1004B0002028064607DB312E05D2B81910F8200C8B
:1004C00008B10543F1E7A80701D525F00405C4F8F4
:1004D0001CA00027C4F818A02A2E09D0304603F02B
:1004E000F5FA38B304EB8708303EC8F8186019E015
:1004F00059F8041B204604EB87029161E1688847A4
:10050000012F064618D1E069002820DA25F02005E1
:100510001DE0D8F8180000EB800006EB40003038F2
:10052000C8F818002046E1688847064603F0CEFA6E
:100530000028EED1012F0AD02E2E08D12046E168E6
:1005400088477F1C0646022F45F02005C4DBA069C2
:10055000002803DA404245F00105A061E80701D018
:1005600025F01005A6B1A6F14100192802D82036C1
:1005700045F400654A463146204625604D46FFF762
:1005800043FE60B1012807D0ED1D25F0070000E013
:1005900007E000F1080978E705F1040975E730463E
:1005A0007AE7206ABDE8F09F2A3E00004FF0000283
:1005B00000B5134694469646203922BFA0E80C5059
:1005C000A0E80C50B1F12001BFF4F7AF090728BF34
:1005D000A0E80C5048BF0CC05DF804EB890028BFB0
:1005E00040F8042B08BF704748BF20F8022B11F0D9
:1005F000804F18BF00F8012B704770477047704755
:100600002DE9F0470D4699469246044600F124082C
:100610000168880604D5E06921F01001216000E03E
:100620000120A84201DD471B00E00027A1697A19DB
:1006300002EB0900081AA0612078C00602D4204607
:10064000FFF7B4FE002608E0D4E901211AF80600FD
:100650009047206A401C761C20624E45F4DB2078CF
:10066000C0060AD52046FFF7A1FE06E0D4E9012125
:1006700030209047206A401C2062381EA7F10107F5
:10068000F4DC07E0D4E9012118F805009047206A5E
:10069000401C2062281EA5F10105F3DC2046FFF76F
:1006A0009BFE2078000602D50220BDE8F0870120DD
:1006B000FBE770472DE9FF4F0C461E464FF0FF3712
:1006C0008BB0D2E90001DDF860800A908A46C1F360
:1006D0000A5505B93D46002108464FF00000BAF121
:1006E000000F00F4400005DA00EB80004FF44001F9
:1006F00001EA50004FEA9059B9F1010F00DDB94607
:100700000A9850EA4A000ED044F61050A5F2FF3580
:1007100045432F14B8F1000F1ED07542291E1EDD6F
:10072000C9F100021CE0B8F1010F4FF0000001D048
:10073000302103E0F24305E02154401CB042FBDBD2
:1007400030460022002121540B99C1F80880C1E9EC
:1007500000200FB0BDE8F08FBD1B6D1CDEE74A46E0
:1007600000DA694206A800F05BFA06AB93E80700DE
:1007700003AB83E8070050460A9900F03CFB8DE884
:100780000700A0F500501F3800900398002D0ADDE7
:1007900042F21F014A460844002303A90390684619
:1007A00000F0A5FD09E0A0F500504A461F380023DF
:1007B00003A90390684600F0AFFD8DE80700000430
:1007C000000C03D04FF0FF30410800E01046B8F1B4
:1007D000000F03D00022009215461EE0751E05D4BE
:1007E00000F098F9303262556D1EF9D5B3460122FA
:1007F000084302D000227F1C04E02078302801D179
:1008000000227F1E002A099784D01DE0112D07DAEF
:1008100000F080F9303262556D1C50EA0102F5D1CA
:10082000084302D00098C8B10EE00021681E05E020
:10083000235C625C63542254401E491C8142F7DBF6
:10084000AB46A81B401E0990002004F80B000B9833
:10085000099AC0F80880C0E9002B7AE711264FF00A
:10086000000857E72DE9F04F88460446D21D22F0D4
:10087000070191B0D1E90001CDE90A0103F0FEF8CA
:1008800002460B98C00F01D02D2007E02068810799
:1008900001D52B2002E0202101EAC000032A0990A3
:1008A00001D0072A05DB03464146204600F078F9CF
:1008B0000BE12078800601D5E06900E00620B8F160
:1008C000650F814606D0B8F1660F18D0B8F1670FF2
:1008D00070D131E00020B9F1110F009001DB11233C
:1008E00001E009F101030AAA01A90CA8FFF7E2FE41
:1008F000DDE90C70002609F10105834647E001207F
:100900004B4600904FF000470AAA01A90CA8FFF738
:10091000D1FEDDE90DB00C995D46002610B909F154
:1009200001000D18B9EB050003D4C0F1FF3609F141
:100930000105A5EB09002BE0B9F1010F01DA4FF039
:1009400001090020B9F1110F0090484601DD112383
:1009500000E003460AAA01A90CA8FFF7ABFEDDE9F7
:100960000C704D4600268346207800070AD4AB451C
:1009700000DA5D4601A8012D04DD411911F8011CC2
:10098000302907D04F4502DA17F1040F04DA0120AD
:1009900082460FE06D1EEEE7002F02DCED1B3E44A9
:1009A00003E0781CA84200DD7D1CB81B00F1010AA1
:1009B0004FF000472078000703D4AA4501DB4FF031
:1009C000FF3A0021B7F1004F0DF143088DF84310B5
:1009D00024D002202B23002F01DA7F422D230A216D
:1009E000021EA0F1010000DC5FB197FBF1FC97FB58
:1009F000F1F201FB1C7C17460CF1300C08F801CD1C
:100A0000EEE7A8F1010003702188090501D5452111
:100A100000E06521A0F1010800F8011C09980FA968
:100A2000A1EB0807FF1D00B10120411901EBEA709D
:100A3000A1693844081A401EA0612078C00602D47B
:100A40002046FFF7B3FC099828B1D4E9012190476B
:100A5000206A401C20622078C00622D52046FFF77D
:100A6000A5FC1EE0002E04DBB34502DD01A8805D7D
:100A700000E03020D4E901219047206A401C206228
:100A8000761CAAF101005FEA000A0AD100F03EF8E4
:100A9000C0680168405CD4E901219047206A401C8D
:100AA0002062281EA5F10105DCDC07E0D4E9012164
:100AB00018F8010B9047206A401C2062381EA7F1ED
:100AC0000107F3DC2046FFF787FC032011B041E665
:100AD00001694A1C02610878704700B58FB0CDE902
:100AE00001310021059105497944CDE903101146F2
:100AF0006846FFF7BFFC0FB000BD0000E5FFFFFF39
:100B00000A6802F8010B0A6070470000004870474D
:100B1000B002002030B5B0F10A024FEA900E71F138
:100B200000034EEA817EB0EB0E0061EB91014FEACB
:100B3000101E4EEA017E10EB0E0041EB11114FEA40
:100B4000102E4EEA016E10EB0E0041EB11214FEA20
:100B5000104E4EEA014E10EB0E0041EB11414018D1
:100B600041F100014FEAD00040EA41704FEAD10163
:100B700010EB80054FEA810444EA907444EB0104D1
:100B80006D1944EB0404521BA3414FF0000348BF0E
:100B90000A3200D530BD401C41F1000130BD0000DB
:100BA0002DE9F0411F46044603260168072A01F497
:100BB000006004DB08B116A505E016A503E008B146
:100BC00015A500E015A521F010002060A069C01E49
:100BD000A0610FB1401EA0612046FFF7E7FB4FB1B7
:100BE000D4E9012138469047206A401C2062C01C8D
:100BF000206206E0206AFAE7D4E9012115F8010B2A
:100C00009047761EF8D22046FFF7E6FBBDE8F0815C
:100C10004E414E006E616E00494E4600696E6600A0
:100C20002DE9F047814616468AB0354878440DC80C
:100C30008DE80D0032487844801C03AC0DC884E870
:100C40000D0041F69B300844372190FBF1F290FBF8
:100C5000F1F5A5F1800501FB12041B3C02D56442AD
:100C6000012000E00020DFF898A080460027FA4429
:100C7000AAF1BE0A0EE0E0070AD03246684607EB4A
:100C8000470101230AEB810100F046FB8DE80700D4
:100C900064107F1C002CEED1194F7F44AE3F19E049
:100CA000E80715D007EB04100DF1180A90E80E00C4
:100CB0008AE80E00C068F04201D1981908903246C7
:100CC000012306A903A800F027FB03AB83E8070074
:100CD0006D10641C002DE3D14FF0010332466946CC
:100CE000B8F1000F03A802D000F001FB01E000F012
:100CF00013FBC9E90001C9F808200AB0BDE8F08774
:100D00001037000000487047900200207546FFF73A
:100D1000F9FFAE4605006946534620F007008546B8
:100D200018B020B5FFF7A4FABDE820404FF0000648
:100D30004FF000074FF000084FF0000B21F00701C3
:100D4000AC46ACE8C009ACE8C009ACE8C009ACE806
:100D5000C0098D46704710B50446AFF300802046A9
:100D6000BDE81040FFF76FBA4FF0013C50F8042B7C
:100D700051F8043B9A4221D1A2EB0C03934313EAAE
:100D8000CC1317D150F8042B51F8043B9A4215D1DB
:100D9000A2EB0C03934313EACC130BD150F8042BB2
:100DA00051F8043B9A4209D1A2EB0C03934313EA96
:100DB000CC13DBD04FF00000704700BFD01A01BA4F
:100DC000B1FA81F101F0180122FA01F0CB40C1F132
:100DD0002001DBB2C0B2C01A2CFA01F3D11A914340
:100DE00011EAC311E6D1704701491820ABBEFEE7F6
:100DF0002600020070475FEA400C08BF91F0000F28
:100E00004FEA8C234FEAC12243EA51514FEA1C506A
:100E100018BF00F5F0404FEA300018BF41F0004124
:100E20005FEA6C5C00F02980BCF1FF3F08BF40F036
:100E300080407047130C06BF12044FF0100C4FF0A7
:100E4000000C130E04BF12020CF1080C130F04BFA8
:100E500012010CF1040C930F04BF92000CF1020C70
:100E6000D30F04BF52000CF1010C11464FF00002E9
:100E7000A0F11F00A0EB0C00704711F0004F08BF5D
:100E8000704731F000413FF4D5AF0B0C06BF0904A9
:100E90004FF0100C4FF0000C0B0E04BF09020CF1C8
:100EA000080C0B0F04BF09010CF1040C8B0F04BFDD
:100EB00089000CF1020CCB0F04BF49000CF1010CAE
:100EC000CCF12003A0EB0C0022FA03F302FA0CF29F
:100ED00041EA030100F10100704720F07F4C80EAF5
:100EE000030023F07F47ACEB070303F57C5300F0CE
:100EF000004003F1FF032DE980494FEA154B09B487
:100F00004FEA144325EA0B4E24EA03480FF2042665
:100F100006EB132749083E785FEA320203FB0667B7
:100F2000C7F5000707FB06F64FEA54374FEAD646E7
:100F300006F1020607FB066CCCF1005C4FEA1C4789
:100F40002CEA074C07FB06F40CFB06F504EB1546F0
:100F50004FEA961634BF00204FF000404FEAD137D9
:100F600006FB07FC4FEA1C4C0CFB0BF7D21B03FBE8
:100F70000CF761EB07010CFB0EF7B0EB074072EBCF
:100F800017420CFB08F734BFA2EB0742B2EB074253
:100F900061EB17414FEA0C444FEA910706FB07FC4F
:100FA0004FEA1C4C0CFB0BF7B0EBC74072EB57320F
:100FB00003FB0CF734BFA2EBC742B2EBC74261EBB5
:100FC00057310CFB0EF7B0EBC70072EB57720CFBFE
:100FD00008F734BFA2EBC702B2EBC70261EB57714F
:100FE000039F4FEA816141EA921104EBCC044FEA7E
:100FF000D1374FEA826206FB07FC42EA90124FEAC1
:1010000080604FEA1C4C0CFB0BF7D21B03FB0CF768
:1010100061EB07010CFB0EF7B0EB074072EB1742D8
:101020000CFB08F734BFA2EB0742B2EB074261EBBF
:1010300017414FEA8C554FEA910704EB9C2406FBBD
:1010400007FC4FEA1C4C0CFB0BF7B0EBC74072EBF4
:10105000573203FB0CF734BFA2EBC742B2EBC742D7
:1010600061EB57310CFB0EF7B0EBC70072EB577218
:101070000CFB08F734BFA2EBC702B2EBC70261EB6F
:10108000577115EB4C254FEA816141EA92114FEA05
:1010900082624FEAD13742EA901206FB07FC44F124
:1010A00000044FEA80604FEA1C4C0CFB0BF7D21B8C
:1010B00003FB0CF761EB07010CFB0EF7B0EB0740ED
:1010C00072EB17420CFB08F734BFA2EB0742B2EBFE
:1010D000074261EB174115EB1C154FEA813141EADC
:1010E00092414FEA823242EA90424FEA80304FEA20
:1010F0000C7644F1000448EA03434EEA0B484FF0F3
:10110000000EB2EB080C71EB030724BF62463946B0
:101110004EEB0E0E4FF0000B0018524149414BEBC5
:101120000B0BB2EB080C71EB03077BF1000B24BF38
:10113000624639464EEB0E0E4FF0000B001852413E
:1011400049414BEB0B0BB2EB080C71EB03077BF146
:10115000000B24BF624639464EEB0E0E51EA0207E1
:1011600018BF46F0010616EB0E7655F1000254F159
:10117000000103D5BDE88901BDE80088BDE889010B
:10118000BDE80048B619524141EB0101A3F101034A
:10119000704780807F7E7D7C7B7A797877767675E4
:1011A0007473727171706F6E6E6D6C6C6B6A6A695C
:1011B0006868676666656464636362616160605FF6
:1011C0005F5E5E5D5D5C5C5B5B5A5A59595858576F
:1011D00057565655555554545353525252515150D7
:1011E00050504F4F4F4E4E4D4D4D4C4C4C4B4B4B2A
:1011F0004A4A4A4949494848484747474746464670
:1012000045454544444444434343434242424241AA
:101210004141002B9C4630D477002BD01CB54FEABF
:10122000370703B44FF010004FF01001BAF1000F70
:1012300006D0BCF1000FDCBF40F0080040F0080110
:101240004FF000000FBCBDE810400BF1010BBBF1EB
:10125000010F08BF5FEA170722BF12F1010211F167
:1012600001014FF0004143F1000300F0004043EA68
:1012700000007047F9D35708D0E746EA064613F155
:10128000400F4FEA16461FDD13F1200FDFBF164354
:101290000A46002120335B42BED0C3F1200746EA54
:1012A000064602FA07F74FEA164646EA0706C3F172
:1012B000200722FA03F201FA07F721FA03F14FF0AF
:1012C000000342EA0702A7E746EA020646EA0646A4
:1012D0004FEA164646EA0106BCBF46EA0646360C09
:1012E0004FF000034FF000024FF0000194E72DE9AA
:1012F000804C9A46934670B491E8380007C831EAAA
:10130000400C48BF34EA430C03D5FFF7E6FDFFF776
:1013100080FFF0BCBDE8008C2DE9804C9A469346D6
:1013200070B491E8380007C810F0804F08BF13F080
:10133000804F03D100F005F8FFF76BFFF0BCBDE86C
:10134000008C20F07F4780EA030023F07F4C07EBFE
:101350000C03A3F57C5300F00040A3F1FE0392F0D0
:10136000000F00F0B38095F0000F00F077802DE9BA
:1013700001494FEA11404FEA144621EA004800FBB8
:1013800006FC24EA064708FB06F607FB08F800FB04
:1013900007F718EB06484CEB164C4FEA124B18EBCC
:1013A00007484FEA15464CEB174022EA0B4E0BFB61
:1013B00006FC25EA06470EFB06F607FB0EFE0BFBB6
:1013C00007F71EEB064E4CEB164C4FF000061EEBDB
:1013D000074E4CEB174B18EB0B0840F1000018EBD5
:1013E0000E0B58EB000840F100008F1A4FF000017F
:1013F0003CBFC943661B14BFB5EB040C00213CBFC6
:10140000C943F61B4FEA17444EEA8E0E27EA0445FD
:101410004FEA1C4704FB07622CEA074C05FB07F761
:101420000CFB05F604FB0CFC16EB074642EB1742DF
:1014300016EB0C4642EB1C421BEB060658EB020275
:10144000414146EA9E0601D5BDE80189B6195241DF
:1014500041EB0101A3F10103BDE801894FEA144505
:101460004FEA114724EA054621EA074C05FB07F439
:1014700006FB07F70CFB06F105FB0CFC11EB074123
:1014800044EB17444FEA124711EB0C4144EB1C4468
:1014900022EA074C05FB07F206FB07F70CFB06F6F2
:1014A00005FB0CFC16EB074642EB174216EB0C460D
:1014B00042EB1C456A1854F1000148BF7047B61949
:1014C000524141EB0101A3F10103704795F0000F78
:1014D00037D04FEA11424FEA144721EA024624EA84
:1014E000074C02FB07F106FB07F70CFB06F402FBB7
:1014F0000CFC14EB074441EB17414FEA154714EB82
:101500000C4441EB1C4125EA074C02FB07F506FBA6
:1015100007F70CFB06F602FB0CFC16EB074645EB47
:10152000174516EB0C4645EB1C42121951F1000110
:1015300048BF7047B619524141EB0101A3F10103C5
:1015400070474FEA14454FEA114724EA054621EA5D
:10155000074C05FB07F106FB07F70CFB06F24FF003
:10156000000605FB0CFC12EB074241EB174112EBA6
:101570000C4251EB1C4148BF7047921841EB0101EE
:10158000A3F101037047FEE7014800F06FB80000C7
:10159000D0010020014800F069B8000030020020AE
:1015A00001681823CAB2103AB2FBF3F2054B6FF38D
:1015B0000901032A9B5CC36500D9091D81650846A2
:1015C000704700009242000810B5014600208B6968
:1015D0008A6A4FF0C07453B1B3F5005F15D072B191
:1015E000012A0CD0022A0AD0032A09D104E01AB138
:1015F000012A06D0022A03D1C96AC90100D50120F7
:1016000010BDC96AA142FAD010BD002AF7D0012A44
:10161000F2D0022AF3D0032AF3D010BD704772B67D
:10162000FEE710B5040002D0607910B106E0012099
:1016300010BD00202071204600F004F801206071E8
:10164000002010BD08B500680649884208D1064848
:10165000016841F480510160006800F480500090FE
:1016600008BD000000300240303802402DE9F84348
:1016700004464FF00009CDF8009063484FF416512E
:10168000A56D0068B0FBF1F72E6894F85C10082097
:1016900000FA01F131420FD021680A6852070BD5D8
:1016A0000A6822F004020A6094F85C108840A8607E
:1016B000606D40F00100606594F85C104FF0010827
:1016C00008FA01F0304208D021684969090604D5BA
:1016D000A860606D40F00200606594F85C10042022
:1016E0008840304208D021680968890704D5A8607D
:1016F000606D40F00400606594F85C101020884034
:10170000304218D021680968090714D5A8602068FC
:101710000168490304D50068000308D5A16C07E0FF
:101720000168C90503D4016821F008010160216C3A
:1017300009B12046884794F85C1020208840304248
:1017400031D021680968C9062DD5A86094F8350004
:1017500005282068016806D0490347D500680003C2
:101760001DD4616C1CE021F0160101602068416904
:1017700021F080014161206C08B9A06C20B1206883
:10178000016821F00801016094F85C103F20884056
:10179000A86084F8349084F83580216D1FE0E16BF7
:1017A00009B120468847606D00282BD0606DC007C6
:1017B00014D0052084F835002068016821F001016B
:1017C00001600098401C0090B84203D8206800686F
:1017D000C007F6D184F8349084F83580E16C002994
:1017E00010D001B02046BDE8F04308470168C905A4
:1017F000D5D4016821F01001016084F8349084F898
:101800003580CCE7BDE8F8834C0000202DE9F0419D
:10181000044600F06BF906465CB1002584F83450AC
:10182000022084F835002068016821F00101016080
:101830000DE00120BDE8F08100F058F9801B05287B
:1018400005D920206065032084F83500F2E7206880
:101850000068C007F0D12268116820480140D4E92F
:1018600001031843D4E9033633431843636918432B
:10187000A3691843E3691843236A18430843616A5C
:10188000042903D1D4E90B131943084310602068DD
:101890004069666A20F0070130460E43012704289C
:1018A0000CD1A06A0643E06A40B12046FFF78CFEE7
:1018B00020B14020606584F83570BAE72068466141
:1018C0002046FFF76DFE94F85C203F219140816037
:1018D000656584F835700020ACE700003F8010F0AB
:1018E00070B5044600F002F90546601C02D00448B9
:1018F0000078044400F0FAF8401BA042FAD370BD0F
:10190000400000202DE9F84FDFF8B4A100220124A7
:101910000AF1040B03254FF00F090BF1040E00BF71
:101920000B6804FA02F63340B34272D10F7907F024
:101930000307012F01D0022F16D187684FEA420812
:1019400005FA08FC27EA0C07D1F80CC00CFA08FCD1
:101950004CEA070CC0F808C04768B7430E79C6F3D5
:10196000001696403E4346600E79F643B6070DD00A
:10197000C768560005FA06FC27EA0C07D1F808C02C
:101980000CFA06FC4CEA070CC0F80CC00E7906F005
:101990000306022E10D1D60800EB8608D8F8206086
:1019A00057074FEAD76C09FA0CF7BE430F6907FADD
:1019B0000CF73743C8F8207006684FEA420C05FA66
:1019C0000CF7BE430F7907F0030707FA0CF737430C
:1019D00007604E68F6006DD53A4E376847F4804789
:1019E0003760366822F0030706F480460096364ECC
:1019F00007EB060CDCF8086897073F0F09FA07F8B1
:101A000026EA0806DFF8C480404503D14FF00008FD
:101A10001EE04FE0DFF8B880404502D14FF00108EA
:101A200016E0DFF8B080404502D14FF002080FE029
:101A3000DFF8A480404502D14FF0030808E0DFF84A
:101A40009C80404502D14FF0040801E04FF00708A8
:101A500008FA07F848EA0608CCF80888DAF80060BF
:101A60005746D1F804C09E435FEACC3C00D51E43E4
:101A70003E60DBF800605F46D1F804C09E435FEA39
:101A80008C3C00D51E433E60DEF800607746D1F8FE
:101A900004C09E435FEACC2C00D51E433E60084F35
:101AA0000C373E68D1F804C09E435FEA8C2C00D509
:101AB0001E433E60521C102AFFF432AFBDE8F88F7F
:101AC000003C014044380240003001400000024028
:101AD0000004024000080240000C024000100240D6
:101AE0000AB1816170470904FBE700000148806882
:101AF000704700004000002070B5040025D094F825
:101B00003D00002520B984F83C50204600F002FB3F
:101B1000242084F83D002068016821F00101016063
:101B20002068016841F4004101602068016821F4E7
:101B30000041016000F056FC4D4A6168914201D8B5
:101B40004C4900E04C49884201D2012070BD4B490C
:101B50002368B0FBF1F15E6826F03F060E435E603D
:101B60006368934206D94FF4967359434FF47A73DE
:101B7000B1FBF3F12368491C1E6A26F03F0631438E
:101B800019626168914210D84900401EB0FBF1F221
:101B9000521CC2F30B02042A01D2042022E0B0FB43
:101BA000F1F0401CC0F30B001CE0A268F2B301EBA3
:101BB000C10303EB0116431EB3FBF6F35B1C43F4B6
:101BC00080431B0549D092B301EBC10202EB011126
:101BD000401EB0FBF1F0401CC0F30B0040F480400D
:101BE00040F400402168CA694CF6FF739A431043E1
:101BF000C861D4E9071001432068026822F0C002DE
:101C000011430160D4E9030101432068826848F26E
:101C1000FF339A4311438160D4E9050108432168E9
:101C2000CA6822F0FF021043C86001E00EE016E02F
:101C30002068016841F0010101602564202084F8DA
:101C40003D00256384F83E50002070BD01EB410645
:101C5000431EB3FBF6F35B1CB3E70120C2E701EBC5
:101C60004101401EB0FBF1F0401CC0F30B00B7E790
:101C7000A086010080841E0000093D0040420F0044
:101C80002DE9FF4F81B089460446FFF72FFF054637
:101C900094F83D004FF0010820287DD1192301223E
:101CA00050492046009501F055F8002874D194F869
:101CB0003C00012870D0012084F83C0020680168B5
:101CC000C90703D1016841F0010101602068016882
:101CD00021F400610160242084F83D000026266480
:101CE0004148E0624FF0011B20272068016841F461
:101CF000807101600095002259462046049B01F046
:101D000029F850B120680068C00502D54FF4007072
:101D10002064032005B0BDE8F08F216809F0FE00C3
:101D20000861FFF7E3FE2168054648694969C0F389
:101D30004000C1F380214FF0A00A0FE0FFF7D6FE6C
:101D4000411B0498814200D808B984F83DA021685D
:101D500048694969C0F34000C1F3802194F83D20EF
:101D6000A02A02D008B90029E8D084F83D70206884
:101D70004169C943890716D4016841F400710160C3
:101D8000206841698069192301221649204600957F
:101D900000F0E0FFB8B900E021E084F83D7084F87D
:101DA0003C600020B6E7016841F4007101602168E1
:101DB0006FF480604861192301220A49204600958A
:101DC00000F0C8FF08B10120A4E7039808F101085A
:101DD00080458AD384F83D7084F83C60F3E70220A4
:101DE00098E70000020010000000FFFF2DE9FF4F00
:101DF00083B09A46DDE9119793460446DDF84080AA
:101E0000FFF774FE054694F83D00202870D1192391
:101E1000012271492046009500F09CFF0028F5D171
:101E200094F83C00012863D0012084F83C0020682D
:101E30000168C90703D1016841F001010160206810
:101E4000016821F400610160222084F83D004020F7
:101E500084F83E0000262664C4F82480A4F82A9062
:101E6000608D20855D48E062CDE9007553465A4695
:101E70002046049900F076FE00287CD1208DD0B158
:101E8000012821D00228206824D04169806900906F
:101E9000208D032869D801282BD0514902283B46C0
:101EA0004FF00002009559D08846204600F052FFBE
:101EB000002860D13CE02068416981690091016897
:101EC00041F40071016077E02068016821F48061CD
:101ED0000160F0E7016821F4806101602068016819
:101EE00041F400610160206841698069009063E00D
:101EF0006FE02A463946204600F0ABFF98BB2068C9
:101F00000069616A08704EE02068016841F4007160
:101F1000016020680069616A0870606A401C606244
:101F2000218D491E2185618D491E6185216838E01A
:101F30002068016821F48061016020680069616A9D
:101F40000870606A401C6062208D401E2085608D94
:101F5000401E60853B46002241460095204600F029
:101F6000F9FE00B9D0E706E0FFE72A4639462046E9
:101F700000F06FFF18B1012007B0BDE8F08F2068B6
:101F80000069616A0870606A401C6062218D491EA8
:101F90002185618D491E618521684A69D2435207B6
:101FA0000AD409690170606A401C6062208D401E7D
:101FB0002085608D401E6085208D00287FF468AFED
:101FC000202084F83D0084F83E6084F83C600020C6
:101FD000D2E70220D0E70000020010000000FFFF5F
:101FE000040001002DE9FF4F83B09A46DDE9119707
:101FF00093460446DDF84080FFF778FD054694F8E7
:102000003D0020287FD11923012240492046009518
:1020100000F0A0FE002876D194F83C00012872D090
:10202000012084F83C0020680168C90703D10168D9
:1020300041F0010101602068016821F40061016044
:10204000212084F83D00402084F83E0000262664CC
:10205000C4F82480A4F82A90608D20852C48E06282
:10206000CDE9007553465A462046049900F0F8FD24
:1020700070B930E02A463946204600F01DFF58B1BD
:10208000206C042804D12068016841F400710160CB
:10209000012007B0BDE8F08F606A21680078086110
:1020A000606A401C6062218D491E89B22185628D63
:1020B000521E628522685369DB435B070BD469B10A
:1020C00000781061606A401C6062208D401E20858F
:1020D000608D401E6085208D0028CBD12A46394670
:1020E000204600F011FE0028CAD154F83D0B0168CB
:1020F00041F400710160202004F81E09E67766773C
:102100000020C6E7FFE70220C3E70000020010003E
:102110000000FFFF10B586B0044614216846FEF7A4
:1021200045FA13492068884220D1124800210268EC
:1021300042F002020260006800F002000590C02038
:1021400000901220CDE901010320039004200490A7
:1021500069460948FFF7D6FB06481030016841F48C
:1021600000110160006800F40010059006B010BD79
:1021700000540040303802400004024002488168A8
:102180000278114481607047400000200B4810B570
:10219000016841F400710160016841F480610160EF
:1021A000016841F480710160032000F06FF80F2096
:1021B00000F006F800F024F8002010BD003C0240BA
:1021C00070B50D4D04464FF47A712878B1FBF0F0EC
:1021D0000A490968B1FBF0F000F09EFB48B9102CE9
:1021E00007D200222146501E00F030F800206C601B
:1021F00070BD012070BD0000400000204C00002098
:102200000A4808B5016841F480410160006800F4A3
:10221000804000900548001F016841F08051016036
:10222000006800F08050009008BD00004438024073
:10223000002809DB00F01F020121914040098000C5
:1022400000F1E020C0F8001170470000F0B40E4B20
:102250001B680C46C3F30223C3F10705042D00D904
:102260000425191D072901D2002300E0DB1E0126E9
:1022700006FA05F1491E214099409E40761E1640FF
:102280003143F0BC01F012BC0CED00E0064900F057
:10229000070208684FF6FF03184040EA0220034A8D
:1022A00010430860704700000CED00E00000FA05E4
:1022B0002DE9F0470E46050065D0DFF81481D8F807
:1022C0000000F7B200F00700B04207D288F80070B3
:1022D000D8F8000000F00700B04254D128683D4C07
:1022E000810712D5400703D5206840F4E0502060F4
:1022F0002878000703D5206840F4604020602068FB
:10230000A96820F0F000084320602878C0072DD08D
:10231000304968680839012812D0022813D00328F0
:1023200011D00968890700292DDA216821F00301FD
:1023300001432160FFF7DAFB814641F2883A0EE063
:1023400009688903EFE709688901ECE7FFF7CEFB2D
:10235000A0EB0901514502D90320BDE8F0872068B0
:10236000696800F00C00B0EB810FEFD1D8F80010D5
:10237000404601F00701B14207D90770006800F03C
:102380000700B04201D00120E7E72878400705D5D3
:102390002068E96820F4E0500843206028780007AE
:1023A00006D52068296920F4604040EAC100206019
:1023B00000F038F82168084AC1F30311515CC840A5
:1023C0000649086006480068FFF7FAFE0020C4E7E7
:1023D000003C0240083802409A4200084C000020AD
:1023E000440000200448054900680968044AC1F314
:1023F0008221515CC84070474C00002008380240E0
:10240000AA4200080448054900680968044AC1F363
:102410004231515CC84070474C00002008380240EF
:10242000AA420008154810B5006810F00C021448C4
:1024300013D01449042A0FD0082A0ED10F4C241FA0
:102440002268236802F03F025B0207D52068C0F3D0
:102450008810A0FB010106E0084610BD2168C1F309
:102460008811A1FB00010023FDF714FF2168C1F3CF
:102470000141491C4900B0FBF1F010BD0838024091
:102480000024F40040787D012DE9F84F04006ED05F
:102490002078DFF84C93C007A9F104054AD009F170
:1024A00004000168C1F38101012908D00068C0F36C
:1024B000810002280AD1D9F80000400206D5286818
:1024C000800337D560680028E1D033E06068B0F55C
:1024D000803F10D0B0F5A02F286810D020F48030B5
:1024E0002860286820F4802028606068A8B1FFF781
:1024F000FDFA06460DE0286840F48030F4E740F429
:1025000080202860F7E700BFFFF7F0FA801B6428FF
:1025100073D828688003F7D50CE0FFF7E7FA064682
:1025200005E000BFFFF7E2FA801B6428F0D82868B6
:102530008003F7D42078DFF8AC8280074FF0000AE0
:102540003ED5A748001D016811F00C0F08D00068A7
:10255000C0F3810002280BD1D9F80000400207D453
:102560002868800716D5E068012800D112E033E121
:10257000E068B8B10120C8F80000FFF7B7FA0646D6
:1025800005E000BFFFF7B2FA801B0228C0D8286818
:102590008007F7D52868216920F0F80040EAC100DB
:1025A00028600DE0C8F800A0FFF7A0FA064604E096
:1025B000FFF79CFA801B02281FD828688007F7D4F1
:1025C0002078000722D5864F87486169703771B13E
:1025D00001210160FFF78AFA064604E0FFF786FA58
:1025E000801B022809D838688007F7D50EE0C0F8AC
:1025F00000A0FFF77BFA064605E082E0FFF776FAD7
:10260000801B02287DD838688007F7D420784007DF
:1026100068D5DFF8CCB100270BF13C0BDBF80000EC
:10262000C0000BD4DBF8001041F08051CBF8001053
:10263000DBF80000012700F0805000906B4E3068FE
:10264000C00510D4306840F480703060FFF74EFA57
:10265000009005E0FFF74AFA0099401A022850D886
:102660003068C005F6D55E4EA0686C3601280FD0E4
:102670000528306810D020F001003060306820F06C
:1026800004003060A068B8B1FFF730FA00900FE0A6
:10269000306840F00100F4E740F004003060F7E7F4
:1026A000FFF724FA0099411A41F28830814266D836
:1026B00030688007F4D50EE0FFF718FA009007E0C5
:1026C000FFF714FA0099411A41F28830814256D836
:1026D00030688007F4D42FB1DBF8001021F080516E
:1026E000CBF80010A069C8B33D49091D0968C1F3C2
:1026F000810102294AD00228504607D0C8F860005C
:1027000000E03CE0FFF7F2F904463BE04746C8F83A
:102710006000FFF7EBF9064605E000BFFFF7E6F9BA
:10272000801B02282BD828688001F7D4D4E9070140
:102730000843A16A2E4A490802EB0141626A41EA54
:102740008211084394F82C1040EA0161C9F8001086
:1027500001203866FFF7CAF9044606E03EE000BFF4
:10276000FFF7C4F9001B022809D828688001F7D5B3
:1027700034E000BFFFF7BAF9001B022802D903209A
:10278000BDE8F88F28688001F4D427E00128F7D04D
:10279000D9F80000E26900F4800191421CD1226A5C
:1027A00000F03F01914217D147F6C071626A0140C3
:1027B000B1EB821F10D1A26A4FF0FF3300F4403119
:1027C00003EB5202B1EB024F06D194F82C1000F04B
:1027D0007060B0EB016F01D00120D1E70020CFE79E
:1027E0000438024000004742800E4742007000401B
:1027F0000000FFFF70B5040009D0606A002540B1F9
:1028000025616561A56294F8510040B10CE001209A
:1028100070BD6068B0F5827FF4D0E561F2E784F8BE
:102820005050204600F044F8022084F851002068FF
:10283000016821F040010160A088218900F48270C4
:1028400001F404410843A18901F400610843217C9B
:1028500001F002010843217D01F001010843218BB1
:1028600001F400710843217F01F03801084394F816
:10287000201001F080010843218D01F4005108432C
:1028800021680860A069042101EA104094F824102E
:1028900001F010010843216848602068C16921F4F3
:1028A0000061C1616565012084F85100002070BDA0
:1028B00010B586B0044614216846FDF777FE13492B
:1028C0002068884220D112480021026842F48052D8
:1028D0000260006800F4805005900D4814380268CA
:1028E00042F001020260006800F001000590E02063
:1028F00000900220CDE901010320039005200490FF
:1029000069460448FEF7FEFF06B010BD00300140E6
:10291000443802400000024010B5401EB0F1807FF4
:1029200001D3012010BD4FF0E02460610F2160173A
:1029300001F0BCF80020A06107202061002010BD3C
:1029400070B5040004D094F83D00002510B106E0F5
:10295000012070BD84F83C50204600F023F824206C
:1029600084F83D002068C16821F40051C160204610
:1029700000F00AFE2068016921F49041016120689D
:10298000416921F02A0141612068C16841F4005188
:10299000C1602564202084F83D0084F83E000020BA
:1029A00070BD00002DE9F04186B00646142168464E
:1029B000FDF7FCFD2C493068884251D12B4800249A
:1029C000016841F010010160006800F010000590FE
:1029D00026481438016841F0010101600068694629
:1029E00000F0010005904FF4C06000900220CDE996
:1029F000010403200390072004901D48FEF782FF86
:102A00001D4D1C484FF000672860C5E901744FF464
:102A10008068C5E9034880156C61C5E9064000027D
:102A2000C5E908042846FEF7F1FE08B1FEF7F7FDF8
:102A3000B563AE630F48114D7830E5E802074020DA
:102A4000A5E811010D4845F81449AC61EC612C6210
:102A50006C62FEF7DBFE08B1FEF7E1FD7563AE6365
:102A600006B0BDE8F081000000100140443802408B
:102A70000000024040640240D001002030020020EB
:102A80002DE9F843044690F83D001F4616460D46D2
:102A900020284CD1C5B1BEB194F83C00012846D0E5
:102AA000012084F83C004FF00008C4F84080212049
:102AB00084F83D00FFF71AF8A6848146E684A068F2
:102AC000B0F5805F03D004E00120BDE8F883206901
:102AD00028B12E465FF0000584F83C800EE0002609
:102AE000FAE78021204600F0D5FDA0B9AEB116F876
:102AF000010B21684860E08C401EE084E08C4B466E
:102B00004FF0000200970028EBD14FF04001204623
:102B100000F0C0FD30B10320D7E735F8020BC0F359
:102B20000800E6E7202084F83D000020CDE70220E1
:102B3000CBE7FEE701684A69D24352050FD46FF430
:102B400080624A61002140F8301F20224273817365
:102B5000026942F004020261017301207047002003
:102B6000704700002DE9F84F0446006889460B9D28
:102B700001689846174641F4806101602068016849
:102B800041F48071016000954FF0011B002259460D
:102B900020460A9B00F0DEF84FF4007A40B120682E
:102BA0000068C00501D5C4F840A00320BDE8F88F37
:102BB000216809F0FE0008612B46284920460A9A40
:102BC00000F0FCF8F0BB20684169806900902A465B
:102BD00020460A9900F070F940B1206C04283AD1DF
:102BE0002068016841F40071016034E0FEB2B8F180
:102BF000010F09D02168380A08612A4620460A993F
:102C000000F05AF90028E8D1206806612A462046DB
:102C10000A9900F051F90028DFD12068016841F4D9
:102C20008071016000950022594620460A9B00F001
:102C300091F80028B3D1216809F0FF0040F00100AD
:102C4000086100E007E02B46044920460A9A00F09C
:102C5000B5F80028AAD00120A8E700000200010072
:102C60002DE9F843044600680D46DDE90897016840
:102C70009846164641F4807101604B4600224FF0A1
:102C800001112046009700F065F848B120680068FF
:102C9000C00502D54FF4007020640320BDE8F8831E
:102CA000216805F0FE0008613B464A46154920466A
:102CB00000F084F888B920684169806900903A463C
:102CC0004946204600F0F8F848B1206C042804D1A9
:102CD0002068016841F4007101600120DEE7F5B26F
:102CE000B8F1010F09D02168300A08613A46494617
:102CF000204600F0E1F80028E7D1206805610020B7
:102D0000CCE700000200010070B516460D460446EF
:102D10000DE02046FFF70EFF08B1012070BD681CD2
:102D200005D0FEF7E3FE801BA84207D835B1206826
:102D30004069C0434007ECD4002070BD002044F837
:102D4000300F20216173A073216941F020012161BE
:102D50002073E2E72DE9F0471E4690460D460446F3
:102D6000C1F30747DDF8209008E0701C06D0FEF79D
:102D7000BDFEA0EB0900B0420FD876B12068012F4C
:102D800018D0806925EA00000004000C14D000214E
:102D90004145EAD00020BDE8F087002044F8300F1C
:102DA00020216173A073216941F02001216120730A
:102DB0000120F0E74069E5E70121E9E72DE9F04767
:102DC0009A4691460E46044600254FF02008C1F36E
:102DD000074725E020684069C043400514D42068B7
:102DE000016841F40071016021686FF480604861FE
:102DF000256384F83D8084F83E50206C40F0040048
:102E0000206484F83C501FE0B9F1FF3F08D0FEF782
:102E10006DFEA0EB0A0149450CD8B9F1000F09D0AD
:102E20002068012F13D0806926EA00000004000CFE
:102E30000BD0CFE744F8305F84F80D80A57320698C
:102E400040F02000206125730120BDE8F087406933
:102E5000EAE72DE9F041002590460E46044620277A
:102E600017E04069C043C0060CD454F8301B6FF023
:102E70001000486144F810596777A577206A2062EE
:102E8000257717E0FEF732FEA0EB0800B04208D825
:102E90003EB120684169C9434906E2D40020BDE83B
:102EA000F08144F8305F6773A573206940F020001B
:102EB000206125730120F2E770B516460D460446E1
:102EC0000DE02046FFF736FE08B1012070BD681CFA
:102ED00005D0FEF70BFE801BA84207D835B120684D
:102EE0004069C0430006ECD4002070BD002044F8C7
:102EF000300F20216173A073216941F0200121610D
:102F00002073E2E72DE9F04F00263446254697B0BE
:102F1000A946CB46DA467520049600F0A9FA712836
:102F200009D00A230E22F9A1FC48FFF7A9FD17B02A
:102F30003046BDE8F08F80216B2000F085FD6420D5
:102F4000FEF7CEFC80216B2000F07EFD6420FEF7B2
:102F5000C7FC01216B2000F077FD00216C2000F000
:102F600073FDC820FEF7BCFC0021382000F06CFD8A
:102F70000021232000F068FD00216B2000F064FD9B
:102F80000021242000F060FD00216A2000F05CFD9B
:102F90000C216A2000F058FD0F20FEF7A1FC012152
:102FA0001A2000F051FD0021192000F04DFD0021F4
:102FB0001B2000F049FD00211C2000F045FD4FF4CE
:102FC00080400D9040216A2000F03EFD78212320B2
:102FD00000F03AFD2820FEF783FC0021232000F0BA
:102FE00033FD64230522D021CD48FEF749FE002899
:102FF000F7D1642202210FA88DE807000123722275
:10300000D021C748FEF7F2FEBDF83C000C2140BAC3
:10301000B0FBF1F6002736E064230522D021C0483A
:10302000FEF72EFE0028F7D164220C210FA88DE8B0
:10303000070001237422D021B948FEF7D7FEBDF85E
:103040003C007F1C40BA0FFA80FCBDF83E00E34410
:1030500040BA03B2BDF840009A4440BA0FFA80FE6D
:10306000BDF84200049B40BA02B2BDF8440073446C
:1030700040BA01B2BDF84600144440BA00B20D4453
:103080008144BFB20493B742C6D3049894FBF6F3CD
:1030900090FBF6F09BFBF6F89AFBF6F795FBF6F142
:1030A00099FBF6F20D9C002801DD041B00E00444AE
:1030B0005842C31700EB9370830A8DF83C308008A8
:1030C0008DF83D004842C11700EB9170810A8DF8E0
:1030D0003E1080088DF83F005042C11700EB917000
:1030E000810A4FF0000A8DF8401080088DF84100E9
:1030F000CDF828A0CDF82CA0CDF830A0642305226F
:10310000D0218748FEF7BCFD0028F7D102260DF13B
:103110003C0BCDE900B6642501237722D02102952E
:103120007F48FEF763FE9DF83C009DF83D100002CD
:1031300000B208430A9064230522D0217848FEF7A4
:103140009FFD0028F7D1A9465D468DE86002012366
:103150007A22D0217248FEF749FE9DF83C009DF886
:103160003D10000200B208430B9064230522D021D9
:103170006B48FEF785FD0028F7D18DE8600201233A
:103180007D22D0216648FEF731FE9DF83C009DF877
:103190003D10000200B2084301210C90CDF850A070
:1031A00000200AAA14AB0D4652F820600E4200D04F
:1031B0001D54401C80B20328F6D34FEAE8720A99E6
:1031C00008EB5270A1EBE0000A90F9170B9807EB9F
:1031D0005171A0EBE1000B90E1170C9804EB5171D9
:1031E000A0EBE1000C900A98000A8DF83C009DF8D5
:1031F00050100A9808438DF83D000B98000A8DF88E
:103200003E009DF851100B9808438DF83F000C9834
:103210009DF85210000A8DF840000C9808438DF874
:10322000410000216B2000F00FFC6420FEF758FBEA
:1032300001216B2000F008FC03211A2000F004FC9F
:103240000421192000F000FC1B2000F011F9354C7E
:1032500020F01A00617840EAC100C1B21B2000F0E2
:10326000F3FB1C2000F004F9217820F0180040EA5C
:10327000C100C1B21C2000F0E7FB1D2000F0F8F8EF
:1032800020F00F0040F003011D2000F0DDFB2221A3
:10329000372000F0D9FB0121382000F0D5FB0021B8
:1032A0000A2000F0B7FB0A20FEF71AFB0F210A20C4
:1032B00000F0B0FB0A20FEF713FB6423052218215F
:1032C0001748FEF7DDFC0028F7D1032116AACDE947
:1032D00000210123CDF80890102218211048FEF794
:1032E00085FD00210A2000F095FB0A20FEF7F8FA80
:1032F000E078A17840EA0110C1B20A2000F08AFB10
:103300000A20FEF7EDFA012611E600000A4D50559D
:10331000204E6F7420466F756E640000FC00002024
:1033200050000020000000202DE9F04786B0142155
:103330006846FDF73BF937480025016841F0010177
:103340000160016801F001010591016841F002018D
:1033500001600068DFF8C09000F0020005902A4686
:1033600041F20F014846FEF7BBFB4FF40148012232
:1033700041464846FEF7B4FBDFF8A0A00122102129
:103380005046FEF7ADFB03270124CDE90074022669
:1033900069464846CDE90267FEF7B4FA0C208DE88D
:1033A0005100694648460396FEF7ACFA0097CDE90E
:1033B000015669465046FEF7A5FA4FF420400090AA
:1033C0001748CDE9010569465046FEF79BFACDE95D
:1033D0000084CDE9024769464846FEF793FA200388
:1033E0008DE83100694648460395FEF78BFA0820C0
:1033F000CDE90005694602945046FEF783FA102095
:103400008DE8710069465046FEF77CFA06B0BDE8CB
:10341000F087000030380240000002400004024003
:10342000000011100F4810B50D4901604FF4827172
:103430004160002102228160C0E903120122426141
:10344000520282612022C0E90721416281620A2181
:10345000C162FFF7CFF9002801D072B6FEE710BDB8
:1034600000300140A4000020FEE7FEE770470000A6
:103470001FB5044664230522D0210A48FEF700FC4C
:103480000028F7D10121642203A88DE807000B462C
:103490002246D0210348FEF7A9FC9DF80C0004B099
:1034A00010BD000050000020FEB514460D46064633
:1034B00064230522D0210848FEF7E2FB0028F7D15B
:1034C00064200095CDE9014001233246D021024815
:1034D000FEF78CFCFEBD0000500000207047FEF798
:1034E0004DBE000030B593B030216846FDF75EF860
:1034F00014210CA8FDF75AF81D480024016841F07A
:1035000080510160006800F08050119019480168F6
:1035100021F4404141F4004101600068022500F4BB
:1035200040401190012003901020049000950695D2
:103530000820CDE907405420CDE9090504200B906F
:103540006846FEF7A1FF08B172B6FEE70F20CDE98D
:103550000C054FF48050CDE90E4002210CA81094C8
:10356000FEF7A6FE002801D072B6FEE713B030BD0C
:1035700040380240007000400248016841F4700188
:103580000160704788ED00E070B50446006801698D
:10359000E26821F44051114301612169A068E269A8
:1035A00008436169114308432168CA6849F20C6302
:1035B0009A430243CA6020684169A26921F44071BC
:1035C0001143416131492068884202D03049884224
:1035D00002D1FEF717FF01E0FEF704FFE2690023C6
:1035E000192164253226B2F5004F626828D0A0FB6D
:1035F0000101930F9200FCF74DFE0146B0FBF5F080
:103600006FF01802504301EB800006EB0010B0FB96
:10361000F5F000F0F002B1FBF5F002EB0012B1FBA7
:10362000F5F06FF01803584301EB800006EB001033
:10363000B0FBF5F000F00F0021681044886070BD09
:10364000A0FB010192185B41FCF724FE0146B0FB90
:10365000F5F00201B1FBF5F06FF01803584301EBF0
:10366000800006EBC000B0FBF5F000F0F80002EBC4
:103670004002B1FBF5F0584301EB800006EBC000BF
:10368000B0FBF5F000F00700D6E7000000100140A5
:10369000001401402DE9F041984617460E460446B5
:1036A000069D1DE0681C1BD02DB1FEF71FFAA0EB94
:1036B0000800A84214D92068C16821F4D071C16003
:1036C0002068416921F001014161202084F83D001A
:1036D00084F83E00002084F83C000320BDE8F0811F
:1036E0002068006836EA000004D00020B842D9D033
:1036F0000020F3E70120F9E7FEE700002DED088B3D
:10370000002486B001259FEDB48AF0EE488AB0EE21
:10371000489AFFF7F7FB00266F469FEDB0AB0020FD
:103720003E54401C0628FBDB062269463B20FFF77F
:10373000BBFE9DF801009DF800109DF8022000EBF3
:1037400001209DF8031000B201EB02210FFA81F86D
:103750009DF805109DF8042001EB02210FFA81F974
:1037600000F00EFB53EC1A2B00F022FB41EC1B0B7C
:1037700018EE100A00F010FD53EC1B2B00F058FA65
:1037800000F024FA08EE100A404600F0F9FA53EC73
:103790001A2B00F00DFB41EC1B0B18EE900A00F009
:1037A000FBFC53EC1B2B00F043FA00F00FFA08EE81
:1037B000900A484600F0E4FA53EC1A2B00F0F8FAAD
:1037C0009FED881B53EC112B00F0F0FB41EC1B0B21
:1037D00019EE100A00F0E0FC53EC1B2B00F028FA65
:1037E00000F0F4F909EE100A14230B227FA183489C
:1037F000FFF746F90A20FEF773F8641CE4B2642C64
:103800008DD39FED7F0AC8EE009A88EE808AF5EE90
:10381000C09AC9EE008AF1EE10FA01D2F1EE699A6F
:10382000B5EEC08AF1EE10FA01D2B1EE488AF5EE9B
:10383000C08AF1EE10FA01D2F1EE688A4FF02C0B3B
:103840000020024669460A54401C0628FBDB06227B
:103850003B20FFF729FE9DF801009DF8001000EBCA
:10386000012007B29DF803009DF8021000EB012033
:1038700004B29DF805009DF8041000EB012006B28B
:1038800019EE900A00F088FC41EC1B0B384600F062
:1038900077FA53EC1A2B00F08BFA53EC1B2B00F049
:1038A000C7F900F093F9074618EE100A00F074FC0F
:1038B00041EC1B0B204600F063FA53EC1A2B00F08E
:1038C00077FA53EC1B2B00F0B3F900F07FF9824636
:1038D00018EE900A00F060FC41EC1B0B304600F043
:1038E0004FFA53EC1A2B00F063FA53EC1B2B00F049
:1038F0009FF900F06BF9DFF80481814608F1440874
:10390000242088F8000001262A463EA102A8FCF7E0
:1039100039FD002002AC215C08F80610761C401C22
:10392000F6B20528F7DB08F806B0761CF6B2384682
:1039300000F032FC41EC100B34A153EC102B02A828
:10394000FCF720FD00204746215CB955761C401C41
:10395000F6B20528F8DB07F806B0761CD846F6B2B2
:10396000504600F019FC41EC100B28A153EC102B31
:1039700002A8FCF707FD0020215CB955761C401C0D
:10398000F6B20528F8DB07F80680761CF6B2484642
:1039900000F002FC41EC100B1CA153EC102B02A810
:1039A000FCF7F0FC00203946225C8A55761C401C4E
:1039B000F6B20528F8DB0A20B8551049761CF2B299
:1039C000142344310D48FFF75BF86D1CADB20A209B
:1039D000FDF786FF34E7000000000000581CCEFC15
:1039E0006A0E403F000000000000F03F0A43616C97
:1039F0006962726174696E6700000000FC0000205B
:103A00000000C842253035640000000025302E3407
:103A1000660000001FB504468DF80C1064230522D3
:103A2000D0210848FEF72CF90028F7D101216422A3
:103A300003A88DE807000B46224618210148FEF72F
:103A4000D1FA1FBD500000201FB504468DF80C10A0
:103A500064230522D0210848FEF712F90028F7D187
:103A60000121642203A88DE807000B462246D021DD
:103A70000148FEF7B7FA1FBD5000002003B40198BB
:103A80004100009850EAC12018BF04204A0D18BF19
:103A900040F0010040F2FF72B2EB515F08BF40F00E
:103AA0000200012808BF052002B070470907090E6F
:103AB000002804DB00F1E02080F80014704700F0DB
:103AC0000F0000F1E02080F8141D704730380A28FC
:103AD00001D20120704700207047000008B5FEF7B2
:103AE00055FBFFF7FFFCFFF71FFC26480024016889
:103AF00041F4800101600068224600F480000090DB
:103B000021463A20FEF7A2FB3A20FEF791FB002265
:103B100011464620FEF79AFB4620FEF789FB1B481C
:103B2000194901604FF4E131C0E901140C21C4606E
:103B3000C0E904418461C461FEF702FF08B172B6B6
:103B4000FEE7FFF76FFC11481149AC3801601149DD
:103B5000C0E901144FF48041C0E90341446184612C
:103B6000C4610462FDF7C8FF08B172B6FEE70B49F5
:103B7000094808600846FDF754FD08B172B6FEE733
:103B8000FFF7BCFD3038024000100140FC0000206F
:103B900000540040801A0600003002402800002037
:103BA00010B500290AD00878002807D005487844C5
:103BB000FDF7DAF8002801D0002010BD0248784453
:103BC00010BD0000CA070000C207000021F000423B
:103BD000A2F16052B2F5801F01F0004328BFD2F17C
:103BE0007F6C0BD95FEA001C43EAC20242EB5070C3
:103BF00018BF704728BF20F001007047B2F5801F42
:103C0000BCBF184670474FEA410C1CF5001F02D29A
:103C1000084600F037BB70B500F074F90000008969
:103C2000FFF7F6BF4FF00040A0F58000704700009E
:103C300010B591EA030F48BF83F0004300F1CA8139
:103C4000841A71EB030C05D2121943EB0C03001B11
:103C500061EB0C01DFF824E14FEA1154A4EB135C93
:103C60001EEA430F18BF9EEA445F73D023EA0E0397
:103C7000DCF1200E21EA045143F4801332D322FAFE
:103C80000CFE10EB0E0023FA0CFE41EB0E01CCF102
:103C9000200E03FA0EFE10EB0E0051F10001B1F5FB
:103CA000801FCCF1200E32D201EB045112FA0EF239
:103CB000BDE8104058BF7047401C38BF5FEA420261
:103CC00018BF7047002814BF20F0010041F1000127
:103CD0004FEA410313F5001F38BF7047A1F1C041FF
:103CE00000F05EB9012A43EB0302ACF1200CDCF1D9
:103CF0001F0E32BF4FF0000E23FA0CF310EB03003F
:103D000041EB0451B4EB115FD0D0A1EB045101F5AC
:103D1000801149085FEA300001EB04510ED350F1E5
:103D2000000038BF12FA0EFE08D1BDE81040C9E706
:103D3000401C38BF5FEA4202CAD1C3E7BDE8104069
:103D40004FEA410313F5001F38BF7047A1F1C0418E
:103D500000F026B99EEA445F08D011EA5E0FBDE884
:103D6000104004BF01F0004100207047BDE8104042
:103D700070B500F0C7F800BF64FBBE3E0000E0FF76
:103D800010F0004248BF4042B0FA80F310FA03F14D
:103D90000AD0C3F11D0303F580634FEA415002EBE3
:103DA000035202EBD12170474FF000007047000032
:103DB000DFF848C170B51CEA111E1EBF1CEA1315BE
:103DC0009EEA0C0F95EA0C0F00F06F8081EA030465
:103DD00023EA4C134EEAD47E21EA4C1141F48011BF
:103DE00043F48013AE44A1FB024CA0FB0365AEF18B
:103DF0007F7E361955EB0C05A1FB034C4CF10003FB
:103E0000A0FB021C16EB0C06654153F100030942AE
:103E100018BF46F0010613F4007F0BD14FEA0331BF
:103E20004FEA0530340341EA155140EA16506FF06D
:103E300003020AE04FEAC3214FEAC520F40241EA37
:103E4000555140EA56506FF0020202EB2E4201EB50
:103E5000025585EACE710AD05FEA440C18BF24F0FF
:103E6000004450F1000041F1000120EAD47040F21A
:103E7000FE7C624500D270BDA84214BF4FF0804462
:103E80004FF04044002E08BF0024BEF1806FA8BF51
:103E9000A1F1C041BDE8704080F282804FF0000087
:103EA00001F1C04101F0004170479EEA0C0F0CEA9D
:103EB000131518BF95EA0C0F06D04FF0000081EAE9
:103EC000030E0EF0004170BD00F01CF88900013EA9
:103ED00000F007B800F009B84FEA430C5FEA5C5CF9
:103EE00008D081EA030100F05BB84FEA410C5FEAB9
:103EF0005C5CF6D14FF00000014970470000FF07FD
:103F00000000F87F0EF1020E2EF0030E5EF8046B37
:103F1000364205D4012A43EB030515F5001F12D8DC
:103F2000012841EB010C1CF5001F0CD80ED14FEA03
:103F3000D17C15F5001F0CEB4C0C0CF1020C08BFEA
:103F40004CEBD37C04E04FF0080C01E04FEAD37C4B
:103F50000CEB4C0526FA05F606F00706B6F1040C44
:103F600006D20EEB860CBDE870404CF0010C6047A9
:103F7000DFE80CF0090B02024FF000414FF00000A7
:103F8000A1F5002170BD19461046012851EB01042E
:103F900018BFD4F5001484BF002001F0004170BDAB
:103FA0000808A0F500114FEA3101704791EA030FAC
:103FB00010B581F000413FF543AE83F0004300F0BF
:103FC00009B8000010B591EA030F48BF83F0004321
:103FD0003FF536AE841A71EB030C07D212198CF040
:103FE000004C43EB0C03001B61EB0C01DFF8A4E178
:103FF0004FEA1154A4EB135C1EEA430F18BF9EEA6C
:10400000445F00F0B08023EA6E03524221EA04517B
:10401000C3EB6E0338BF5B1EDCF1200E25D322FA02
:104020000CFE10EB0E0043FA0CFE41EB0E01CCF13E
:10403000200E03FA0EFE10EB0E0051F10001CCF140
:10404000200E29D412FA0EF201EB0451BDE8104003
:1040500058BF7047401C1CBFB2F1004F704700288A
:104060000CBF491C20F00100704712EB020E43EB1D
:10407000030218BF4FF0010E4EEA4202ACF1200CD1
:10408000DCF11E0E54D943FA0CFE10EB0E0051F178
:10409000FF31CCF11E0ED5D50EF1010E12FA0EFE37
:1040A000404141EB010101EB445C5FEA5C5C10D9EB
:1040B00010EBDE7001EB045138BFBEF1004FBDE8DC
:1040C000104018BF704700280CBF491C20F00100A9
:1040D000704730D24FEAD42C11F5001124F400645B
:1040E0001BD0B1FA81F20B3AA41AA41ED2F120031C
:1040F000914030FA03F31943904001EBCC71002C4E
:1041000001EB0451BDE81040A8BF704701F1C04168
:104110004FF0000001F000417047B0FA80F310FA50
:1041200003F100D110BDE41A173C4805C90AE4E7C1
:1041300001EB045110BD491001EB0451BDE81040E2
:104140004FEA300002E04FF0000170474A0008BF1C
:104150000042F8D0B2F5001F28BF704701F00041BF
:104160004FF0000070479EEA445F07D011EA5E0FEF
:10417000BDE8104004BF002100207047BDE810409A
:1041800070B5FFF7BFFE00BF40DFF63E83F0004191
:10419000104670470000E0FF43004FEAD30C4FEA9F
:1041A0003C0C43401FBF40070CF1605113F0FE4F21
:1041B00070471CF0006F03D100200CF000417047E5
:1041C0000CF0004343EA507010B540EACC0000F018
:1041D0000EF800BF000000924FEA0001FFF7E0BEBA
:1041E0004FF000414FF00000A1F5002170470EF1A3
:1041F000020E2EF0030E5EF8044B244204D44FEA64
:104200004102B2F17F4F11D84FEA4003B3F17F4F23
:104210000CD80ED14FEAD07CB2F17F4F0CEB4C0C96
:104220000CF1020C08BF4CEBD17C04E04FF0080C01
:1042300001E04FEAD17C0CEB4C0324FA03F404F0C8
:104240000704B4F1040C06D20EEB840CBDE8104058
:104250004CF0010C6047DFE80CF0070802024FF059
:104260000040A0F5800010BD0846420018BFD2F102
:10427000807288BF00F0004010BD4FF04070E1EE4A
:10428000100A7047FF2141EAD050C0057047FCF783
:10429000E9BA000610160006101600000000000023
:1042A00000000102030406070809000000000102E3
:1042B00003040400000800000000000000020001E8
:1042C0000000100002400000000000A000000000FC
:1042D00005400000000000C8000000000C40000085
:1042E0000000409C00000000194000000020BCBEFF
:1042F0000000000034400000BFC91B8E0000000415
:10430000B5400000504BCFD06607E2CF010000005F
:104310006C4100003E8251AADFEEA734010000008C
:10432000D9420000DCB5A0E23A301F97FFFFFFFF43
:10433000B4450000FD25A0C8E9A3C14FFFFFFFFF62
:10434000FF3F00000000008000000000FF3F000071
:1043500000000080000000009443000800000020DE
:1043600050000000D0010008E44300085000002085
:10437000A0080000EC0100081C0000004300000041
:10438000F8FFFFFF0C0000000E0000000F0000000F
:104390002E00000003000106000000003130000084
:1043A0008FC2454000000000E7FB293E00000000EE
:1043B0008FC2F53D000040C000000000000000007A
:1043C00000000000000000000000000000000000ED
:1043D00000000000010000001000000000000000CC
:0443E0000024F400C1
:040000050800019559
:00000001FF
