:020000040800F2
:100000000809002055020008CB4200087D3800088E
:10001000C9420008DB160008174D00080000000068
:10002000000000000000000000000000694A000815
:10003000C11A000800000000CD420008A14A0008D3
:100040006F0200086F0200086F0200086F020008CC
:100050006F0200086F0200086F0200086F020008BC
:100060006F0200086F0200086F0200086F020008AC
:100070006F0200086F0200086F0200086F0200089C
:100080006F0200086F0200086F0200080000000005
:100090000000000000000000000000006F020008E7
:1000A0006F0200086F0200086F0200086F0200086C
:1000B0006F0200086F0200086F0200086F0200085C
:1000C0006F0200086F0200086F0200086F0200084C
:1000D0006F0200086F0200086F02000800000000B5
:1000E0006F0200086F0200086F02000800000000A5
:1000F0000000000000000000000000006F02000887
:10010000000000006F0200086F0200086F02000884
:1001100000000000000000000000000000000000DF
:100120006F0200086F0200082D1A00086F02000815
:100130006F02000800000000000000000000000046
:100140000000000000000000000000006F02000836
:100150006F0200086F020008391A00086F020008D9
:100160006F0200086F02000800000000000000009D
:10017000000000000000000000000000000000007F
:10018000000000006F0200080000000000000000F6
:100190006F02000800F002F800F04CF80AA090E8A6
:1001A000000C82448344AAF10107DA4501D100F032
:1001B00041F8AFF2090EBAE80F0013F0010F18BFB3
:1001C000FB1A43F001031847745A0000945A0000C8
:1001D000103A24BF78C878C1FAD8520724BF30C873
:1001E00030C144BF04680C60704700000023002445
:1001F00000250026103A28BF78C1FBD8520728BF37
:1002000030C148BF0B607047662905F0AE84642991
:1002100000F0F480002070471FB505F09CFC00F052
:10022000A7FC04000020002105F034F9E0601FBDA8
:1002300010B510BD00F09CFD1146FFF7EDFF04F076
:10024000EFFE00F0BAFD03B4FFF7F2FF03BC00F0CD
:10025000FDFD00000948804709480047FEE7FEE72A
:10026000FEE7FEE7FEE7FEE7FEE7FEE7FEE7FEE766
:1002700004480549054A064B70470000394B000801
:100280009501000808030020080900200805002047
:100290000805002053EA020C00F069802DE9F04BBC
:1002A0004FF00006002B1FBFB3FA83F503FA05F4E5
:1002B00024FA05F65E4012BF1643B2FA82F502FA3E
:1002C00005F4C5F120051EBF22FA05FC44EA0C0422
:1002D000203556EA044C4FEA144418BF641C4FF012
:1002E00000084FF00009904271EB030C39D300294C
:1002F00019BFB1FA81F701FA07F6B0FA80F700FAF0
:1003000007F6C7F120071EBF20FA07FC46EA0C06D5
:100310002037B6FBF4FCA7EB0507103F07F01F0BD7
:10032000CBF120060CFA0BFB2CFA06F644BFB346C1
:100330000026202FA4BF5E464FF0000B5BEA060CA0
:1003400008BF4FF0010B19EB0B09ABFB027C48EB2C
:100350000608C01B06FB02CC0BFB03CC71EB0C01A7
:10036000C1E70B46024641464846BDE8F08B13B54F
:100370004FF000004FF00001AFF30080BDE81C40DB
:10038000704700000FB41CB5074B06AA7B446946B2
:100390000090059800F0D3FB0020694600F0E2FBD6
:1003A0001CBC5DF814FB0000D507000070B50446C6
:1003B00085690068C10601D5302600E02026C00707
:1003C00007D070BDD4E9012130469047206A401C17
:1003D00020626D1EF6D570BD70B504468569007843
:1003E000C00707D170BDD4E9012120209047206AC1
:1003F000401C20626D1EF6D570BD00002DE9F04155
:100400000646002410687529314616A510D0AFF3B2
:100410000080002802DA404213A507E031688A070D
:1004200001D512A502E0490704D511A5012401E078
:10043000AFF3008000210A2206F1240709E0B0FB97
:10044000F2FCB0FBF2F302FB1C003030785418468B
:10045000491C0028F3D123462A463046BDE8F04126
:1004600000F000B9000000002D0000002B0000008B
:10047000200000002DE9F05F894604464FF0000A95
:10048000DFF824B1FB44C0F820A02046E16888478B
:1004900000287DD0252806D0D4E901219047206A84
:1004A000401C2062F1E700255F462046E16888474E
:1004B0002028064607DB312E05D2B81910F8200C8B
:1004C00008B10543F1E7A80701D525F00405C4F8F4
:1004D0001CA00027C4F818A02A2E09D0304604F02A
:1004E00097FD38B304EB8708303EC8F8186019E070
:1004F00059F8041B204604EB87029161E1688847A4
:10050000012F064618D1E069002820DA25F02005E1
:100510001DE0D8F8180000EB800006EB40003038F2
:10052000C8F818002046E1688847064604F070FDC8
:100530000028EED1012F0AD02E2E08D12046E168E6
:1005400088477F1C0646022F45F02005C4DBA069C2
:10055000002803DA404245F00105A061E80701D018
:1005600025F01005A6B1A6F14100192802D82036C1
:1005700045F400654A463146204625604D46FFF762
:1005800043FE60B1012807D0ED1D25F0070000E013
:1005900007E000F1080978E705F1040975E730463E
:1005A0007AE7206ABDE8F09F0C57000010B5203AAA
:1005B000C0F00B80B1E81850203AA0E81850B1E81C
:1005C0001850A0E81850BFF4F5AF5FEA027C24BFD2
:1005D000B1E81850A0E8185044BF18C918C0BDE8C9
:1005E00010405FEA827C24BF51F8043B40F8043B92
:1005F00008BF7047D20728BF31F8023B48BF11F847
:10060000012B28BF20F8023B48BF00F8012B7047A0
:100610004FF0000200B5134694469646203922BF9B
:10062000A0E80C50A0E80C50B1F12001BFF4F7AFE6
:10063000090728BFA0E80C5048BF0CC05DF804EBC8
:10064000890028BF40F8042B08BF704748BF20F836
:10065000022B11F0804F18BF00F8012B7047704734
:10066000704770472DE9F0470D469946924604467B
:1006700000F124080168880604D5E06921F0100122
:10068000216000E00120A84201DD471B00E00027B7
:10069000A1697A1902EB0900081AA0612078C00646
:1006A00002D42046FFF782FE002608E0D4E90121AB
:1006B0001AF806009047206A401C761C20624E45BE
:1006C000F4DB2078C0060AD52046FFF76FFE06E06F
:1006D000D4E9012130209047206A401C2062381E56
:1006E000A7F10107F4DC07E0D4E9012118F80500BF
:1006F0009047206A401C2062281EA5F10105F3DC0A
:100700002046FFF769FE2078000602D50220BDE8EA
:10071000F0870120FBE770472DE9FF4F0C461E468E
:100720004FF0FF378BB0D2E90001DDF860800A900E
:100730008A46C1F30A5505B93D46002108464FF0E7
:100740000000BAF1000F00F4400005DA00EB800071
:100750004FF4400101EA50004FEA9059B9F1010FFE
:1007600000DDB9460A9850EA4A000ED044F610500F
:10077000A5F2FF3545432F14B8F1000F1ED0754286
:10078000291E1EDDC9F100021CE0B8F1010F4FF077
:10079000000001D0302103E0F24305E02154401C69
:1007A000B042FBDB30460022002121540B99C1F8F6
:1007B0000880C1E900200FB0BDE8F08FBD1B6D1CA3
:1007C000DEE74A4600DA694206A800F05BFA06ABAB
:1007D00093E8070003AB83E8070050460A9900F04E
:1007E0003CFB8DE80700A0F500501F3800900398EF
:1007F000002D0ADD42F21F014A460844002303A9E6
:100800000390684600F0A5FD09E0A0F500504A46B7
:100810001F38002303A90390684600F0AFFD8DE860
:1008200007000004000C03D04FF0FF30410800E047
:100830001046B8F1000F03D00022009215461EE0CA
:10084000751E05D400F098F9303262556D1EF9D549
:10085000B3460122084302D000227F1C04E0207826
:10086000302801D100227F1E002A099784D01DE084
:10087000112D07DA00F080F9303262556D1C50EA14
:100880000102F5D1084302D00098C8B10EE0002162
:10089000681E05E0235C625C63542254401E491CC0
:1008A0008142F7DBAB46A81B401E0990002004F8EC
:1008B0000B000B98099AC0F80880C0E9002B7AE772
:1008C00011264FF0000857E72DE9F04F88460446FF
:1008D000D21D22F0070191B0D1E90001CDE90A0152
:1008E00004F06EFB02460B98C00F01D02D2007E0EC
:1008F0002068810701D52B2002E0202101EAC000F9
:10090000032A099001D0072A05DB03464146204609
:1009100000F078F90BE12078800601D5E06900E06D
:100920000620B8F1650F814606D0B8F1660F18D0E1
:10093000B8F1670F70D131E00020B9F1110F0090CC
:1009400001DB112301E009F101030AAA01A90CA8A6
:10095000FFF7E2FEDDE90C70002609F10105834690
:1009600047E001204B4600904FF000470AAA01A93A
:100970000CA8FFF7D1FEDDE90DB00C995D4600260D
:1009800010B909F101000D18B9EB050003D4C0F14D
:10099000FF3609F10105A5EB09002BE0B9F1010FC4
:1009A00001DA4FF001090020B9F1110F009048461B
:1009B00001DD112300E003460AAA01A90CA8FFF7F4
:1009C000ABFEDDE90C704D4600268346207800071B
:1009D0000AD4AB4500DA5D4601A8012D04DD4119BA
:1009E00011F8011C302907D04F4502DA17F1040F26
:1009F00004DA012082460FE06D1EEEE7002F02DCD4
:100A0000ED1B3E4403E0781CA84200DD7D1CB81BB2
:100A100000F1010A4FF000472078000703D4AA45EF
:100A200001DB4FF0FF3A0021B7F1004F0DF1430811
:100A30008DF8431024D002202B23002F01DA7F42AF
:100A40002D230A21021EA0F1010000DC5FB197FBFB
:100A5000F1FC97FBF1F201FB1C7C17460CF1300C0A
:100A600008F801CDEEE7A8F101000370218809051F
:100A700001D5452100E06521A0F1010800F8011C25
:100A800009980FA9A1EB0807FF1D00B1012041192A
:100A900001EBEA70A1693844081A401EA061207871
:100AA000C00602D42046FFF781FC099828B1D4E99A
:100AB00001219047206A401C20622078C00622D580
:100AC0002046FFF773FC1EE0002E04DBB34502DD79
:100AD00001A8805D00E03020D4E901219047206A20
:100AE000401C2062761CAAF101005FEA000A0AD1CC
:100AF00000F03EF8C0680168405CD4E901219047ED
:100B0000206A401C2062281EA5F10105DCDC07E0FC
:100B1000D4E9012118F8010B9047206A401C20629B
:100B2000381EA7F10107F3DC2046FFF755FC032030
:100B300011B041E601694A1C02610878704700B5AE
:100B40008FB0CDE901310021059105497944CDE906
:100B5000031011466846FFF78DFC0FB000BD000082
:100B6000E5FFFFFF0A6802F8010B0A60704700000A
:100B700000487047C402002030B5B0F10A024FEAC5
:100B8000900E71F100034EEA817EB0EB0E0061EB36
:100B900091014FEA101E4EEA017E10EB0E0041EB70
:100BA00011114FEA102E4EEA016E10EB0E0041EBD0
:100BB00011214FEA104E4EEA014E10EB0E0041EBB0
:100BC0001141401841F100014FEAD00040EA417064
:100BD0004FEAD10110EB80054FEA810444EA90749A
:100BE00044EB01046D1944EB0404521BA3414FF084
:100BF000000348BF0A3200D530BD401C41F100015E
:100C000030BD00002DE9F0411F460446032601686F
:100C1000072A01F4006004DB08B116A505E016A55B
:100C200003E008B115A500E015A521F01000206033
:100C3000A069C01EA0610FB1401EA0612046FFF751
:100C4000B5FB4FB1D4E9012138469047206A401CDA
:100C50002062C01C206206E0206AFAE7D4E9012184
:100C600015F8010B9047761EF8D22046FFF7B4FB2B
:100C7000BDE8F0814E414E006E616E00494E460067
:100C8000696E66002DE9F047814616468AB0354800
:100C900078440DC88DE80D0032487844801C03ACC0
:100CA0000DC884E80D0041F69B300844372190FBC5
:100CB000F1F290FBF1F5A5F1800501FB12041B3C5C
:100CC00002D56442012000E00020DFF898A08046B1
:100CD0000027FA44AAF1BE0A0EE0E0070AD0324625
:100CE000684607EB470101230AEB810100F046FB50
:100CF0008DE8070064107F1C002CEED1194F7F4453
:100D0000AE3F19E0E80715D007EB04100DF1180A03
:100D100090E80E008AE80E00C068F04201D19819F0
:100D200008903246012306A903A800F027FB03AB75
:100D300083E807006D10641C002DE3D14FF0010320
:100D400032466946B8F1000F03A802D000F001FB5B
:100D500001E000F013FBC9E90001C9F808200AB05E
:100D6000BDE8F087904F000000487047A4020020C3
:100D70007546FFF7F9FFAE4605006946534620F079
:100D80000700854618B020B5FFF772FABDE820408D
:100D90004FF000064FF000074FF000084FF0000B37
:100DA00021F00701AC46ACE8C009ACE8C009ACE8EA
:100DB000C009ACE8C0098D46704710B50446AFF3D2
:100DC00000802046BDE81040FFF73DBA4FF0013CDF
:100DD00050F8042B51F8043B9A4221D1A2EB0C03AA
:100DE000934313EACC1317D150F8042B51F8043B6A
:100DF0009A4215D1A2EB0C03934313EACC130BD107
:100E000050F8042B51F8043B9A4209D1A2EB0C0391
:100E1000934313EACC13DBD04FF00000704700BFC0
:100E2000D01A01BAB1FA81F101F0180122FA01F0E9
:100E3000CB40C1F12001DBB2C0B2C01A2CFA01F3E1
:100E4000D11A914311EAC311E6D170470149182024
:100E5000ABBEFEE72600020070475FEA400C08BF09
:100E600091F0000F4FEA8C234FEAC12243EA51511F
:100E70004FEA1C5018BF00F5F0404FEA300018BF91
:100E800041F000415FEA6C5C00F02980BCF1FF3F5B
:100E900008BF40F080407047130C06BF12044FF0AB
:100EA000100C4FF0000C130E04BF12020CF1080CD2
:100EB000130F04BF12010CF1040C930F04BF920036
:100EC0000CF1020CD30F04BF52000CF1010C1146BF
:100ED0004FF00002A0F11F00A0EB0C00704711F0D2
:100EE000004F08BF704731F000413FF4D5AF0B0C05
:100EF00006BF09044FF0100C4FF0000C0B0E04BF9E
:100F000009020CF1080C0B0F04BF09010CF1040CD1
:100F10008B0F04BF89000CF1020CCB0F04BF4900FA
:100F20000CF1010CCCF12003A0EB0C0022FA03F32E
:100F300002FA0CF241EA030100F10100704720F0CF
:100F40007F4C80EA030023F07F47ACEB070303F5F7
:100F50007C5300F0004003F1FF032DE980494FEA84
:100F6000154B09B44FEA144325EA0B4E24EA034813
:100F70000FF2042606EB132749083E785FEA320297
:100F800003FB0667C7F5000707FB06F64FEA543771
:100F90004FEAD64606F1020607FB066CCCF1005C70
:100FA0004FEA1C472CEA074C07FB06F40CFB06F53E
:100FB00004EB15464FEA961634BF00204FF0004070
:100FC0004FEAD13706FB07FC4FEA1C4C0CFB0BF732
:100FD000D21B03FB0CF761EB07010CFB0EF7B0EB28
:100FE000074072EB17420CFB08F734BFA2EB074235
:100FF000B2EB074261EB17414FEA0C444FEA91070D
:1010000006FB07FC4FEA1C4C0CFB0BF7B0EBC74090
:1010100072EB573203FB0CF734BFA2EBC742B2EBC3
:10102000C74261EB57310CFB0EF7B0EBC70072EB18
:1010300057720CFB08F734BFA2EBC702B2EBC70232
:1010400061EB5771039F4FEA816141EA921104EB12
:10105000CC044FEAD1374FEA826206FB07FC42EA32
:1010600090124FEA80604FEA1C4C0CFB0BF7D21B2E
:1010700003FB0CF761EB07010CFB0EF7B0EB07402D
:1010800072EB17420CFB08F734BFA2EB0742B2EB3E
:10109000074261EB17414FEA8C554FEA910704EB89
:1010A0009C2406FB07FC4FEA1C4C0CFB0BF7B0EB37
:1010B000C74072EB573203FB0CF734BFA2EBC742B9
:1010C000B2EBC74261EB57310CFB0EF7B0EBC70038
:1010D00072EB57720CFB08F734BFA2EBC702B2EBFE
:1010E000C70261EB577115EB4C254FEA816141EA6C
:1010F00092114FEA82624FEAD13742EA901206FB20
:1011000007FC44F100044FEA80604FEA1C4C0CFBE2
:101110000BF7D21B03FB0CF761EB07010CFB0EF77F
:10112000B0EB074072EB17420CFB08F734BFA2EBA1
:101130000742B2EB074261EB174115EB1C154FEA72
:10114000813141EA92414FEA823242EA90424FEACB
:1011500080304FEA0C7644F1000448EA03434EEA3B
:101160000B484FF0000EB2EB080C71EB030724BFE5
:10117000624639464EEB0E0E4FF0000B00185241FE
:1011800049414BEB0B0BB2EB080C71EB03077BF106
:10119000000B24BF624639464EEB0E0E4FF0000B9B
:1011A0000018524149414BEB0B0BB2EB080C71EBB1
:1011B00003077BF1000B24BF624639464EEB0E0E4F
:1011C00051EA020718BF46F0010616EB0E7655F1FC
:1011D000000254F1000103D5BDE88901BDE8008893
:1011E000BDE88901BDE80048B619524141EB010153
:1011F000A3F10103704780807F7E7D7C7B7A7978C4
:10120000777676757473727171706F6E6E6D6C6CCB
:101210006B6A6A696868676666656464636362616D
:101220006160605F5F5E5E5D5D5C5C5B5B5A5A59EE
:10123000595858575756565555555454535352525A
:101240005251515050504F4F4F4E4E4D4D4D4C4CB2
:101250004C4B4B4B4A4A4A494949484848474747FB
:101260004746464645454544444444434343434238
:10127000424242414141002B9C4630D477002BD062
:101280001CB54FEA370703B44FF010004FF01001C0
:10129000BAF1000F06D0BCF1000FDCBF40F008002F
:1012A00040F008014FF000000FBCBDE810400BF10A
:1012B000010BBBF1010F08BF5FEA170722BF12F154
:1012C000010211F101014FF0004143F1000300F070
:1012D000004043EA00007047F9D35708D0E746EAD8
:1012E000064613F1400F4FEA16461FDD13F1200F9B
:1012F000DFBF16430A46002120335B42BED0C3F154
:10130000200746EA064602FA07F74FEA164646EA7B
:101310000706C3F1200722FA03F201FA07F721FAC0
:1013200003F14FF0000342EA0702A7E746EA02068C
:1013300046EA06464FEA164646EA0106BCBF46EABA
:101340000646360C4FF000034FF000024FF000014C
:1013500094E72DE9804C9A46934670B491E83800A2
:1013600007C831EA400C48BF34EA430C03D5FFF705
:10137000E6FDFFF780FFF0BCBDE8008C2DE9804C56
:101380009A46934670B491E8380007C810F0804F31
:1013900008BF13F0804F03D100F005F8FFF76BFF93
:1013A000F0BCBDE8008C20F07F4780EA030023F00A
:1013B0007F4C07EB0C03A3F57C5300F00040A3F136
:1013C000FE0392F0000F00F0B38095F0000F00F0E4
:1013D00077802DE901494FEA11404FEA144621EA8E
:1013E000004800FB06FC24EA064708FB06F607FB5C
:1013F00008F800FB07F718EB06484CEB164C4FEAD1
:10140000124B18EB07484FEA15464CEB174022EAFF
:101410000B4E0BFB06FC25EA06470EFB06F607FB08
:101420000EFE0BFB07F71EEB064E4CEB164C4FF077
:1014300000061EEB074E4CEB174B18EB0B0840F168
:10144000000018EB0E0B58EB000840F100008F1A5B
:101450004FF000013CBFC943661B14BFB5EB040C41
:1014600000213CBFC943F61B4FEA17444EEA8E0EDB
:1014700027EA04454FEA1C4704FB07622CEA074CA5
:1014800005FB07F70CFB05F604FB0CFC16EB074607
:1014900042EB174216EB0C4642EB1C421BEB0606D6
:1014A00058EB0202414146EA9E0601D5BDE801899A
:1014B000B619524141EB0101A3F10103BDE80189D5
:1014C0004FEA14454FEA114724EA054621EA074C42
:1014D00005FB07F406FB07F70CFB06F105FB0CFC0C
:1014E00011EB074144EB17444FEA124711EB0C4153
:1014F00044EB1C4422EA074C05FB07F206FB07F706
:101500000CFB06F605FB0CFC16EB074642EB1742FC
:1015100016EB0C4642EB1C456A1854F1000148BF1B
:101520007047B619524141EB0101A3F10103704725
:1015300095F0000F37D04FEA11424FEA144721EAE5
:10154000024624EA074C02FB07F106FB07F70CFBF7
:1015500006F402FB0CFC14EB074441EB17414FEA85
:10156000154714EB0C4441EB1C4125EA074C02FBE8
:1015700007F506FB07F70CFB06F602FB0CFC16EB67
:10158000074645EB174516EB0C4645EB1C42121976
:1015900051F1000148BF7047B619524141EB0101BA
:1015A000A3F1010370474FEA14454FEA114724EABB
:1015B000054621EA074C05FB07F106FB07F70CFB84
:1015C00006F24FF0000605FB0CFC12EB074241EB64
:1015D000174112EB0C4251EB1C4148BF7047921867
:1015E00041EB0101A3F10103704700007CB5002528
:1015F00006226946322002F0BBFE9DF800009DF8ED
:1016000001102C4600EB012060F30F049DF802004E
:101610009DF80310002600EB012060F31F449DF8A5
:1016200004009DF8051000EB012060F30F05062271
:101630006946322002F09CFE9DF800009DF80110E2
:101640009DF8053000EB01229DF802009DF8031083
:10165000224400EB01209DF8041062F30F0400EB1C
:10166000244001EB032160F31F44681860F30F0569
:101670000A2000F025FD761C642ED8DB21B2642000
:1016800091FBF0F161F30F04211491FBF0F161F390
:101690001F4429B291FBF0F060F30F050648E143C7
:1016A000491C01806FEA1441491C4180143DE94303
:1016B000491C81807CBD00000000002010B507E0BF
:1016C00003780C78A34201D0104610BD401C491C81
:1016D000521E92B2F4D2002010BDFEE72DE9F04771
:1016E0002DED048B84B001794278C37801EB02615F
:1016F00082785C4C120402EB032201EB020A81792E
:10170000427901EB02210FB2017AC27901EB022189
:101710000EB2817A407A01EB002005B2206904F014
:10172000A9F941EC190B384603F0A4FF9FED4E8B4D
:1017300053EC182B03F0B6FF53EC192B03F0F2FE19
:1017400003F0BEFE8146606904F094F941EC190B88
:10175000304603F08FFF53EC182B03F0A3FF53EC3C
:10176000192B03F0DFFE03F0ABFE0746A06904F07F
:1017700081F941EC190B284603F07CFF53EC182B40
:1017800003F090FF53EC192B03F0CCFE03F098FE0E
:10179000DFF8DC800646402088F80000012552462C
:1017A00034A16846FEF7EEFD00206C46215C08F887
:1017B00005106D1C401CEDB20628F7DB4FF02C0A1B
:1017C00008F805A06D1CEDB2484604F053F941EC51
:1017D000100B2AA153EC102B6846FEF7D3FD002016
:1017E0004146225C4A556D1C401CEDB20528F8DBD1
:1017F00008F805A06D1CD146EDB2384604F03AF960
:1018000041EC100B1DA153EC102B6846FEF7BAFDFE
:1018100000204746215C79556D1C401CEDB205281F
:10182000F8DB07F805906D1CEDB2304604F022F9A4
:1018300041EC100B11A153EC102B6846FEF7A2FDF2
:101840000020215C79556D1C401CEDB20528F8DBA9
:101850000A20785504B06D1CBDEC048BE8B2BDE8DD
:10186000F087000018000020581CCEFC6A0E403F94
:1018700054010020253036640000000025302E344D
:10188000660000002DE9F0472DED048B84B001794E
:101890004278C37801EB026182785C4C120402EB5F
:1018A000032201EB020A8179427901EB02210FB296
:1018B000017AC27901EB02210EB2817A407A01EB02
:1018C000002005B2606804F0D5F841EC190B3846E9
:1018D00003F0D0FE9FED4E8B53EC182B03F0E2FE8D
:1018E00053EC192B03F01EFE03F0EAFD8146A068BD
:1018F00004F0C0F841EC190B304603F0BBFE53EC8A
:10190000182B03F0CFFE53EC192B03F00BFE03F062
:10191000D7FD0746E06804F0ADF841EC190B284606
:1019200003F0A8FE53EC182B03F0BCFE53EC192B6C
:1019300003F0F8FD03F0C4FDDFF8DC800646242048
:1019400088F800000125524634A16846FEF71AFDCA
:1019500000206C46215C08F805106D1C401CEDB29F
:101960000628F7DB4FF02C0A08F805A06D1CEDB235
:10197000484604F07FF841EC100B2AA153EC102BE1
:101980006846FEF7FFFC00204146225C4A556D1C6C
:10199000401CEDB20528F8DB08F805A06D1CD14607
:1019A000EDB2384604F066F841EC100B1DA153EC83
:1019B000102B6846FEF7E6FC00204746215C79556F
:1019C0006D1C401CEDB20528F8DB07F805906D1C76
:1019D000EDB2304604F04EF841EC100B11A153EC7F
:1019E000102B6846FEF7CEFC0020215C79556D1C5B
:1019F000401CEDB20528F8DB0A20785504B06D1CB8
:101A0000BDEC048BE8B2BDE8F087000018000020B0
:101A1000581CCEFC6A0E403F54010020253036642D
:101A20000000000025302E3466000000014800F060
:101A30000DBA0000E4010020014800F007BA0000E0
:101A40004402002001681823CAB2103AB2FBF3F234
:101A5000054B6FF30901032A9B5CC36500D9091D7F
:101A60008165084670470000745B000810B50146A8
:101A700000208B698A6A4FF0C07453B1B3F5005FE0
:101A800015D072B1012A0CD0022A0AD0032A09D13A
:101A900004E01AB1012A06D0022A03D1C96AC90199
:101AA00000D5012010BDC96AA142FAD010BD002A9C
:101AB000F7D0012AF2D0022AF3D0032AF3D010BDC6
:101AC000704710B50446000E00F00EF8C4F307404E
:101AD00000F00AF8C4F3072000F006F8E0B2BDE811
:101AE000104000F001B800000EB50109092900D925
:101AF000C91D303100F00F008DF80010092800D901
:101B0000C01D30308DF801000A23022269460248C8
:101B100001F064FE0EBD00000C01002072B6FEE76D
:101B200038B514A109680091010C8DF80110010A63
:101B30008DF802108DF80300062002F097FF0E4D7D
:101B40004FF4807400222146284600F0C0FB4FF479
:101B50007A7304226946094801F085FB0122214677
:101B6000284600F0B4FB00BF00F070F8C007FBD1BE
:101B700038BD0000D800000000000240B400002082
:101B80002DE9F84388461AA1144609680091010C12
:101B90008DF80110010A8DF802108DF8030000BFC6
:101BA00000F054F8C007FBD1124E4FF480750022AC
:101BB0002946304600F08BFB4FF47A773B460422EF
:101BC00069460D4801F04FFB3B46032241460A4857
:101BD00001F09EFA3B4622464146074801F098FA3A
:101BE00001222946304600F072FBBDE8F883000070
:101BF0000300000000000240B40000207CB510A0EB
:101C0000104D00684FF48074019000222146284650
:101C100000F05DFB4FF47A763346042201A90A48AE
:101C200001F021FB334601226946074801F070FAB2
:101C300001222146284600F04AFB9DF800007CBDA9
:101C4000AB00000000000240B40000207CB505207D
:101C50000F4D8DF800004FF4807400222146284675
:101C600000F035FB6423012269460A4801F0FBFAC3
:101C70004FF4FA73012201A9064801F049FA012242
:101C80002146284600F023FB9DF804007CBD00009F
:101C900000000240B400002038B566208DF8000036
:101CA00099200C4D8DF801004FF4807400222146DC
:101CB000284600F00CFB642302226946064801F026
:101CC000D2FA01222146284600F001FB322000F022
:101CD000F7F938BD00000240B40000202DE9F041C2
:101CE000C2B0884604464FF480751646294601A8BE
:101CF000FEF78EFC174800680090200C8DF801005C
:101D0000200A8DF802008DF8034000BFFFF79EFF08
:101D1000C007FBD100F040F80F4C002229462046B6
:101D200000F0D5FA4FF47A773B46042269460B4817
:101D300001F099FA3B4632464146084801F093FAD1
:101D400001222946204600F0C2FA00F009F842B00C
:101D5000BDE8F081705B000800000240B400002084
:101D600038B5042084010A4D8DF800000022214678
:101D7000284600F0ACFA4FF47A7301226946054810
:101D800001F071FA01222146284600F0A0FA38BD80
:101D900000000240B400002038B506200B4D8DF83D
:101DA00000004FF4807400222146284600F08FFA8C
:101DB0004FF47A7301226946054801F054FA012272
:101DC0002146284600F083FA38BD0000000002409A
:101DD000B400002030B50223437103689C6844F0CE
:101DE00001049C60002304E0056851F823402C6046
:101DF0005B1C9342F8D301680968012242710846CE
:101E000030BD10B5040002D0607910B106E00120A9
:101E100010BD00202071204600F004F80120607100
:101E2000002010BD08B500680649884208D1064860
:101E3000016841F480510160006800F48050009016
:101E400008BD000000300240303802402DE9F84360
:101E500004464FF00009CDF8009063484FF4165146
:101E6000A56D0068B0FBF1F72E6894F85C100820AF
:101E700000FA01F131420FD021680A6852070BD5F0
:101E80000A6822F004020A6094F85C108840A86096
:101E9000606D40F00100606594F85C104FF001083F
:101EA00008FA01F0304208D021684969090604D5D2
:101EB000A860606D40F00200606594F85C1004203A
:101EC0008840304208D021680968890704D5A86095
:101ED000606D40F00400606594F85C10102088404C
:101EE000304218D021680968090714D5A860206815
:101EF0000168490304D50068000308D5A16C07E018
:101F00000168C90503D4016821F008010160216C52
:101F100009B12046884794F85C1020208840304260
:101F200031D021680968C9062DD5A86094F835001C
:101F300005282068016806D0490347D500680003DA
:101F40001DD4616C1CE021F016010160206841691C
:101F500021F080014161206C08B9A06C20B120689B
:101F6000016821F00801016094F85C103F2088406E
:101F7000A86084F8358084F83490216D1FE0E16B0F
:101F800009B120468847606D00282BD0606DC007DE
:101F900014D0052084F835002068016821F0010183
:101FA00001600098401C0090B84203D82068006887
:101FB000C007F6D184F8358084F83490E16C0029AC
:101FC00010D001B02046BDE8F04308470168C905BC
:101FD000D5D4016821F01001016084F8358084F8BF
:101FE0003490CCE7BDE8F8835C0000202DE9F04197
:101FF000044600F071F906465CB1022084F8350011
:10200000002584F834502068016821F00101016046
:102010000DE00120BDE8F08100F05EF9801B05288D
:1020200005D920206065032084F83500F2E7206898
:102030000068C007F0D12268116820480140D4E947
:1020400001031843D4E90336334318436369184343
:10205000A3691843E3691843236A18430843616A74
:10206000042903D1D4E90B131943084310602068F5
:102070004069666A20F0070130460E4301270428B4
:102080000CD1A06A0643E06A40B12046FFF7EEFC9F
:1020900020B14020606584F83570BAE72068466159
:1020A0002046FFF7CFFC94F85C203F2191408160EF
:1020B000656584F835700020ACE700003F8010F0C3
:1020C00070B5044600F008F90546601C02D00448CB
:1020D0000078044400F000F9401BA042FAD370BD20
:1020E000500000202DE9F84FDFF8B8A100220124AC
:1020F00003254FF00F090AF1040BAAF1040E00BFEB
:102100000B6804FA02F63340B34273D10F7907F03B
:102110000307012F01D0022F16D187684FEA42082A
:1021200005FA08FC27EA0C07D1F80CC00CFA08FCE9
:102130004CEA070CC0F808C04768B7430E79C6F3ED
:10214000001696403E4346600E79F643B6070DD022
:10215000C768560005FA06FC27EA0C07D1F808C044
:102160000CFA06FC4CEA070CC0F80CC00E7906F01D
:102170000306022E10D1D60800EB8608D8F820609E
:1021800057074FEAD76C09FA0CF7BE430F6907FAF5
:102190000CF73743C8F8207006684FEA420C05FA7E
:1021A0000CF7BE430F7907F0030707FA0CF7374324
:1021B00007604E6816F4403F6DD03B4E376847F4D9
:1021C00080473760366822F0030706F480460096A1
:1021D000364E07EB060CDCF8086897073F0F09FA44
:1021E00007F826EA0806DFF8C880404503D14FF01B
:1021F00000081EE04FE0DFF8BC80404502D14FF000
:10220000010816E0DFF8B080404502D14FF0020827
:102210000FE0DFF8A880404502D14FF0030808E046
:10222000DFF89C80404502D14FF0040801E04FF0F8
:10223000070808FA07F848EA0608CCF80888DAF828
:1022400000605746D1F804C09E435FEACC2C00D50D
:102250001E433E60DBF800605F46D1F804C09E4339
:102260005FEA8C2C00D51E433E60DEF800607746A6
:10227000D1F804C09E435FEA8C3C00D51E433E600B
:10228000084F083F3E68D1F804C09E435FEACC3C4B
:1022900000D51E433E60521C102AFFF431AFBDE84A
:1022A000F88F0000083C01404438024000300140F3
:1022B000000002400004024000080240000C0240FE
:1022C000001002400069084000D0012070470AB1A8
:1022D000816170470904FBE701488068704700008E
:1022E0005000002070B5040025D094F83D00002572
:1022F00020B984F83C50204600F008FB242084F8E4
:102300003D002068016821F001010160206801683A
:1023100041F4004101602068016821F4004101603E
:1023200000F05CFC4D4A6168914201D84C4900E0E4
:102330004C49884201D2012070BD4B492368B0FB53
:10234000F1F15E6826F03F060E435E6063689342DB
:1023500006D94FF4967359434FF47A73B1FBF3F1F6
:102360002368491C1E6A26F03F06314319626168E2
:10237000914210D84900401EB0FBF1F2521CC2F34A
:102380000B02042A01D2042022E0B0FBF1F0401C31
:10239000C0F30B001CE0A268F2B301EBC10303EB36
:1023A0000116431EB3FBF6F35B1C43F480431B058D
:1023B00049D092B301EBC10202EB0111401EB0FB08
:1023C000F1F0401CC0F30B0040F4804040F40040AA
:1023D0002168CA694CF6FF739A431043C861D4E977
:1023E000071001432068026822F0C0021143016017
:1023F000D4E9030101432068826848F2FF339A431D
:1024000011438160D4E9050108432168CA6822F0BC
:10241000FF021043C86001E00EE016E0206801688A
:1024200041F0010101602564202084F83D0025630E
:1024300084F83E50002070BD01EB4106431EB3FB03
:10244000F6F35B1CB3E70120C2E701EB4101401E3C
:10245000B0FBF1F0401CC0F30B00B7E7A086010011
:1024600080841E0000093D0040420F002DE9FF4F0F
:1024700081B089460446FFF72FFF054694F83D00DA
:102480004FF0000820287DD1192301225049204611
:10249000009501F009FB002874D194F83C00012854
:1024A00070D0012084F83C0020680168C90703D17E
:1024B000016841F0010101602068016821F40061B8
:1024C0000160242084F83D00002626644148E06233
:1024D0004FF0011B20272068016841F480710160E2
:1024E0000095002259462046049B01F0DDFA50B1C8
:1024F00020680068C00502D54FF4007020640320F6
:1025000005B0BDE8F08F216809F0FE000861FFF713
:10251000E3FE2168054648694969C0F34000C1F3FC
:1025200080214FF0A00A0FE0FFF7D6FE411B049870
:10253000814200D808B984F83DA0216848694969FA
:10254000C0F34000C1F3802194F83D20A02A02D0BE
:1025500008B90029E8D084F83D7020684169C94372
:10256000890716D4016841F400710160206841694F
:1025700080691923012216492046009501F094FA3A
:10258000B8B900E021E084F83D7084F83C60002098
:10259000B6E7016841F40071016021686FF4806062
:1025A0004861192301220A492046009501F07CFA6E
:1025B00008B10120A4E7039808F1010880458AD3F7
:1025C00084F83D7084F83C60F3E7022098E700004F
:1025D000020010000000FFFF2DE9FF4F83B09A4674
:1025E000DDE9118793460446DDF84090FFF774FE5D
:1025F000054694F83D00202870D119230122744922
:102600002046009501F050FA0028F5D194F83C00DE
:10261000012863D0012084F83C0020680168C907C4
:1026200003D1016841F0010101602068016821F4D3
:1026300000610160222084F83D00402084F83E00C3
:1026400000262664C4F82490A4F82A80608D208592
:102650006048E062CDE9007553465A462046049929
:1026600001F024F9002879D1208DD0B1012821D0A2
:102670000228206824D0416980690090208D0328B9
:1026800066D801282BD0544902283B464FF000025F
:10269000009557D08846204601F006FA00285DD103
:1026A0003AE02068416981690091016841F4007154
:1026B00001607DE02068016821F480610160F0E73D
:1026C000016821F4806101602068016841F40061C3
:1026D0000160206841698069009069E075E02A46E0
:1026E0003946204601F086FA88BB54E0206801682C
:1026F00041F40071016020680069616A0870606AD5
:10270000401C6062218D491E2185618D491E6185B5
:1027100021680969017042E02068016821F4806144
:10272000016020680069616A0870606A401C60622C
:10273000208D401E2085608D401E60853B46002216
:1027400041460095204601F0AFF900B9CEE705E01B
:102750002A463946204601F04DFA18B1012007B04B
:10276000BDE8F08F20680069616A0870606A401CEB
:102770006062208D401E81B22185608D401E608583
:1027800020684269D243520712D4032903D1016859
:1027900021F48061016020680069616A0870606AE4
:1027A000401C6062208D401E2085608D401E60852B
:1027B000208D00287FF462AF202084F83D0084F84B
:1027C0003E6084F83C600020C9E70220C7E70000B3
:1027D000020010000000FFFF040001002DE9FF4F80
:1027E00083B09A46DDE9119793460446DDF84080B0
:1027F000FFF772FD054694F83D0020287FD119238C
:10280000012240492046009501F04EF9002876D17A
:1028100094F83C00012872D0012084F83C00206824
:102820000168C90703D1016841F001010160206816
:10283000016821F400610160212084F83D004020FE
:1028400084F83E0000262664C4F82480A4F82A9068
:10285000608D20852C48E062CDE9007553465A46CC
:102860002046049901F0A0F870B930E02A463946B4
:10287000204601F0F7F958B1206C042804D12068F3
:10288000016841F400710160012007B0BDE8F08FDC
:10289000606A216800780861606A401C6062218D6E
:1028A000491E89B22185628D521E62852268536954
:1028B000DB435B070BD469B100781061606A401C90
:1028C0006062208D401E2085608D401E6085208DB9
:1028D0000028CBD12A463946204601F0B9F8002815
:1028E000CAD154F83D0B016841F400710160202009
:1028F00004F81E09E67766770020C6E7FFE70220A6
:10290000C3E70000020010000000FFFF10B586B012
:10291000044614216846FDF77BFE1349206888426F
:1029200020D112480021026842F0020202600068D1
:1029300000F002000590C02000901220CDE90101B6
:10294000032003900420049069460948FFF7CAFB5E
:1029500006481030016841F400110160006800F47D
:102960000010059006B010BD005400403038024001
:102970000004024002488168027811448160704777
:10298000500000200B4810B5016841F4007101604F
:10299000016841F480610160016841F48071016067
:1029A000032000F06FF80F2000F006F800F024F884
:1029B000002010BD003C024070B50D4D04464FF4A0
:1029C0007A712878B1FBF0F00A490968B1FBF0F0A0
:1029D00000F0F7FD48B9102C07D200222146501E06
:1029E00000F030F800206C6070BD012070BD000068
:1029F000500000205C0000200A4808B5016841F43E
:102A000080410160006800F4804000900548001F8C
:102A1000016841F080510160006800F08050009032
:102A200008BD000044380240002809DB00F01F0206
:102A3000012191404009800000F1E020C0F8001120
:102A400070470000F0B40E4B1B680C46C3F3022322
:102A5000C3F10705042D00D90425191D072901D24A
:102A6000002300E0DB1E012606FA05F1491E214085
:102A700099409E40761E16403143F0BC02F0B8BA31
:102A80000CED00E0064900F0070208684FF6FF036E
:102A9000184040EA0220034A1043086070470000D3
:102AA0000CED00E00000FA052DE9F0470E460500A8
:102AB00065D0DFF81481D8F80000F7B200F0070005
:102AC000B04207D288F80070D8F8000000F0070084
:102AD000B04254D128683D4C810712D5400703D538
:102AE000206840F4E05020602878000703D5206873
:102AF00040F4604020602068A96820F0F00008439E
:102B000020602878C0072DD030496868083901282E
:102B100012D0022813D0032811D009688907002990
:102B20002DDA216821F0030101432160FFF7D4FB76
:102B3000814641F2883A0EE009688903EFE70968A7
:102B40008901ECE7FFF7C8FBA0EB0901514502D969
:102B50000320BDE8F0872068696800F00C00B0EB46
:102B6000810FEFD1D8F80010404601F00701B142C3
:102B700007D90770006800F00700B04201D00120BB
:102B8000E7E72878400705D52068E96820F4E05099
:102B9000084320602878000706D52068296920F4BA
:102BA000604040EAC100206000F038F82168084A1F
:102BB000C1F30311515CC84006490860064800682B
:102BC000FFF7FAFE0020C4E7003C0240083802404C
:102BD0007C5B00085C00002054000020044805498C
:102BE00000680968044AC1F38221515CC8407047FB
:102BF0005C000020083802408C5B0008044805494E
:102C000000680968044AC1F34231515CC84070470A
:102C10005C000020083802408C5B0008154810B5A5
:102C2000006810F00C02144813D01449042A0FD085
:102C3000082A0ED10F4C241F2268236802F03F029D
:102C40005B0207D52068C0F38810A0FB010106E0F5
:102C5000084610BD2168C1F38811A1FB00010023C3
:102C6000FDF718FB2168C1F30141491C4900B0FB85
:102C7000F1F010BD083802400024F40040787D01D6
:102C80002DE9F84F04006ED02078DFF84C93C00790
:102C9000A9F104054AD009F104000168C1F38101DA
:102CA000012908D00068C0F3810002280AD1D9F8B0
:102CB0000000400206D52868800337D560680028E8
:102CC000E1D033E06068B0F5803F10D0B0F5A02FC0
:102CD000286810D020F480302860286820F48020F4
:102CE00028606068A8B1FFF7F7FA06460DE028688B
:102CF00040F48030F4E740F480202860F7E700BF1C
:102D0000FFF7EAFA801B642873D828688003F7D598
:102D10000CE0FFF7E1FA064605E000BFFFF7DCFA3A
:102D2000801B6428F0D828688003F7D42078DFF867
:102D3000AC8280074FF0000A3ED5A748001D01680D
:102D400011F00C0F08D00068C0F3810002280BD1ED
:102D5000D9F80000400207D42868800716D5E0683B
:102D6000012800D112E033E1E068B8B10120C8F8D1
:102D70000000FFF7B1FA064605E000BFFFF7ACFA26
:102D8000801B0228C0D828688007F7D528682169E9
:102D900020F0F80040EAC10028600DE0C8F800A06B
:102DA000FFF79AFA064604E0FFF796FA801B02281E
:102DB0001FD828688007F7D42078000722D5864FCF
:102DC00087486169703771B101210160FFF784FAAA
:102DD000064604E0FFF780FA801B022809D838680D
:102DE0008007F7D50EE0C0F800A0FFF775FA064699
:102DF00005E082E0FFF770FA801B02287DD8386872
:102E00008007F7D42078400768D5DFF8CCB10027D9
:102E10000BF13C0BDBF80000C0000BD4DBF800101A
:102E200041F08051CBF80010DBF80000012700F0E2
:102E3000805000906B4E3068C00510D4306840F46C
:102E400080703060FFF748FA009005E0FFF744FA21
:102E50000099401A022850D83068C005F6D55E4E59
:102E6000A0686C3601280FD00528306810D020F0FB
:102E700001003060306820F004003060A068B8B114
:102E8000FFF72AFA00900FE0306840F00100F4E705
:102E900040F004003060F7E7FFF71EFA0099411A8E
:102EA00041F28830814266D830688007F4D50EE060
:102EB000FFF712FA009007E0FFF70EFA0099411AA7
:102EC00041F28830814256D830688007F4D42FB15F
:102ED000DBF8001021F08051CBF80010A069C8B3D6
:102EE0003D49091D0968C1F3810102294AD0022820
:102EF000504607D0C8F8600000E03CE0FFF7ECF96E
:102F000004463BE04746C8F86000FFF7E5F906468F
:102F100005E000BFFFF7E0F9801B02282BD82868E6
:102F20008001F7D4D4E907010843A16A2E4A490871
:102F300002EB0141626A41EA8211084394F82C10C5
:102F400040EA0161C9F8001001203866FFF7C4F9B2
:102F5000044606E03EE000BFFFF7BEF9001B022872
:102F600009D828688001F7D534E000BFFFF7B4F92D
:102F7000001B022802D90320BDE8F88F28688001D1
:102F8000F4D427E00128F7D0D9F80000E26900F472
:102F9000800191421CD1226A00F03F01914217D179
:102FA00047F6C071626A0140B1EB821F10D1A26A7C
:102FB0004FF0FF3300F4403103EB5202B1EB024F0C
:102FC00006D194F82C1000F07060B0EB016F01D0C6
:102FD0000120D1E70020CFE704380240000047423B
:102FE000800E4742007000400000FFFF70B50400F3
:102FF00009D0606A002540B125616561A56294F839
:10300000510040B10CE0012070BD6068B0F5827FD6
:10301000F4D0E561F2E784F85050204600F044F81F
:10302000022084F851002068016821F0400101600D
:10303000A088218900F4827001F404410843A18929
:1030400001F400610843217C01F002010843217D65
:1030500001F001010843218B01F400710843217F35
:1030600001F03801084394F8201001F08001084372
:10307000218D01F40051084321680860A0690421F2
:1030800001EA104094F8241001F01001084321686F
:1030900048602068C16921F40061C1616565012053
:1030A00084F85100002070BD10B586B0044614218C
:1030B0006846FDF7ADFA13492068884220D11248CE
:1030C0000021026842F480520260006800F48050DF
:1030D00005900D481438026842F001020260006851
:1030E00000F001000590E02000900220CDE90101F0
:1030F000032003900520049069460448FEF7F2FF80
:1031000006B010BD003001404438024000000240CB
:103110002DE9F84F044690F85100984616460F46A0
:103120000025012801D0022598E060684FF0040BCB
:10313000B0F5827F01D1A068F8B194F85000012861
:1031400026D04FF0010984F85090FFF7C5F8824669
:10315000002F7FD0002E7DD084F851B00020606514
:10316000A763A687E6872063A086E0862064606464
:10317000A068B0F5004F0DD016E084F851B01346AA
:103180000A462046CDF8008000F024F9BDE8F88F0B
:103190000220FBE72068016821F0400101602068FF
:1031A000016821F48041016020680168490603D468
:1031B000016841F040010160E068D8B13BE020685F
:1031C0008168C90709D0007BA16B0870A06B401C07
:1031D000A063E08F401EE0870CE0FFF77DF8A0EBD6
:1031E0000A01414503D3B8F1FF3F03D006E0B8F12F
:1031F000000F03D0E08F0028E1D11FE003252BE072
:1032000020688168C90709D0C068A16B0880A06BDD
:10321000801CA063E08F401EE0870CE0FFF75CF8A5
:10322000A0EB0A01414503D3B8F1FF3F03D0E5E726
:10323000B8F1000FE2D0E08F0028E1D152464146BC
:10324000204601F051FB08B120206065606D00E070
:1032500000E008B1012501E084F85190002084F8D5
:103260005000284692E72DE9F84F044690F85000A8
:103270000026984615468A4601280CD0012784F876
:103280005070FFF729F8814694F85100B3460128A1
:1032900004D002269AE00220BDE8F88FBAF1000FB0
:1032A0006FD0002D6DD0032084F85100C4F854B0C5
:1032B000C4F830A0A586E586C4F838B0A4F83CB0C0
:1032C000A4F83EB0C4F844B0C4F840B0A068B0F56B
:1032D000004F09D12068016821F040010160206899
:1032E000016841F48041016020680168490603D407
:1032F000016841F040010160E068B0F5006F60686E
:1033000003D058B3012D29D049E008B1012D1FD1B8
:10331000206B21680088C86006E020688168890702
:1033200009D5216B0988C160206B801C2063E08E69
:10333000401EE0860CE0FEF7CFFFA0EB09014145FF
:1033400003D3B8F1FF3F03D006E0B8F1000F03D07C
:10335000E08E0028E1D125E0032635E0206B2168CE
:103360000078087306E02068816889070AD5216B18
:1033700009780173206B401C2063E08E401EE086BC
:103380000DE01FE0FEF7A8FFA0EB0901414503D3C4
:10339000B8F1FF3F03D0DFE7B8F1000FDCD0E08EDB
:1033A0000028E0D14A464146204601F0CBFA08B158
:1033B00020206065A06818B92068C1688068009006
:1033C000606D08B1012601E084F8517084F850B0B6
:1033D000304661E72DE9FF4F81B0044690F8500078
:1033E00000260E9F1D4693464FF0010901280FD07D
:1033F0004FF0010A84F850A0FEF76EFF804694F863
:103400005100616801280DD0B1F5827F08D103E039
:10341000022005B0BDE8F08FA16809B9042801D0E9
:103420000226C9E00298002865D0BBF1000FFBD04E
:10343000002DF9D094F85100042802D0052084F81A
:10344000510000206065C4F838B0E587A58702996F
:103450002163E586A58620646064206801684906CA
:1034600003D4016841F040010160E068B0F5006FED
:10347000606803D0F0B3012D47D081E008B1012D81
:103480003CD1206B21680088C860206B801C2063C1
:10349000E08E401EE08631E02068816889070FD504
:1034A000E18E69B1B9F1010F0AD1216B0988C160C0
:1034B000206B801C2063E08E401EE0864FF00009E8
:1034C00020688168C9070CD0E18F51B1C068A16B39
:1034D0000880A06B801CA063E08F401EE0874FF047
:1034E0000109FEF7F9FEA0EB0800B84206D3781CEC
:1034F00004D001E009E05BE003265BE0E08E0028F9
:10350000CAD1E08F0028C7D140E0206B2168007845
:103510000873206B401C2063E08E401EE0862FE085
:103520002068816889070FD5E18E69B1B9F1010F73
:103530000AD1216B09780173206B401C2063E08E57
:10354000401EE0864FF0000920688168C9070CD052
:10355000E18F51B1C068A16B0870A06B401CA063E3
:10356000E08F401EE0874FF00109FEF7B5FEA0EBAB
:103570000800B84202D3781C02D0BAE7002FB8D0B6
:10358000E08E0028CCD1E08F0028C9D142463946D0
:10359000204601F0D7F918B10126202060650BE024
:1035A000A06818B92068C16880680090606D08B193
:1035B000012601E084F851A0002084F85000304634
:1035C00027E710B5401EB0F1807F01D3012010BD68
:1035D0004FF0E02460610F21601701F009FD002029
:1035E000A06107202061002010BD70B5040004D048
:1035F00094F84100002510B106E0012070BD84F868
:103600004050204600F024F8242084F8410020682F
:10361000C16821F40051C160204601F0BDFA206864
:10362000016921F4904101612068416921F02A017A
:1036300041612068C16841F40051C1606564202087
:1036400084F8410084F842006563002070BD0000EA
:103650002DE9F04186B0064614216846FCF7D8FFF4
:103660002C493068884251D12B480024016841F030
:1036700010010160006800F0100005902648143821
:10368000016841F0010101600068694600F0010035
:1036900005904FF4C06000900220CDE901040320A2
:1036A0000390072004901D48FEF71CFD1D4D1C488B
:1036B0004FF000672860C5E901744FF48068C5E9E0
:1036C000034880156C61C5E906400002C5E908049D
:1036D0002846FEF78BFC08B1FEF720FAF563AE63CF
:1036E0000F48114D7830E5E802074020A5E81101A8
:1036F0000D4845F81449AC61EC612C626C62FEF730
:1037000075FC08B1FEF70AFAB563AE6306B0BDE812
:10371000F0810000001001404438024000000240E7
:1037200040640240E4010020440200202DE9F84FEB
:10373000044690F842009A4616460D46202802D0CC
:103740000220BDE8F88FB5B1AEB10020606422213F
:1037500084F842102063FEF7BFFDA6858146E6850A
:10376000A0684FF480582027404501D1206920B13E
:103770002E46002529E00120E3E7002625E04B4600
:10378000002220212046CDF800A001F08BFA18B1CC
:1037900084F842700320D4E726B1A06840451AD0CF
:1037A00038B108E020684068C0F3080025F8020B33
:1037B00008E0206978B12068406800F07F0000BF11
:1037C00006F8010BE08D401EE085E08D0028D6D183
:1037D00084F84270B5E720684068F1E72DE9F843C6
:1037E000044690F84100984616460D46202802D01F
:1037F0000220BDE8F88385B17EB1002060642120FD
:1038000084F84100FEF768FDA6848146E684A0683E
:103810002027B0F5805F02D003E00120E9E72069AE
:1038200010B12E4600250EE000260CE08021204637
:1038300001F038FAA8B9C6B116F8010B2168486042
:10384000E08C401EE084E08C4B464FF00002CDF847
:1038500000800028EAD14FF04001204601F022FA12
:1038600040B184F841700320C3E735F8020BC0F380
:103870000800E3E784F841700020BAE7FEE701683A
:103880004A69D24352050FD46FF480624A61002125
:1038900040F8301F202242738173026942F0040213
:1038A0000261017301207047002070472DE9F84F35
:1038B0000446006889460B9D01689846174641F406
:1038C000806101602068016841F4807101600095A9
:1038D0004FF0011B0022594620460A9B00F0E4F8F5
:1038E0004FF4007A40B120680068C00501D5C4F8E3
:1038F00040A00320BDE8F88F216809F0FE000861B0
:103900002B46284920460A9A00F016F9F0BB206899
:103910004169806900902A4620460A9900F0A2F980
:1039200040B1206C04283AD12068016841F400714C
:10393000016034E0FEB2B8F1010F09D02168380A05
:1039400008612A4620460A9900F08CF90028E8D13F
:10395000206806612A4620460A9900F083F900286B
:10396000DFD12068016841F4807101600095002278
:10397000594620460A9B00F097F80028B3D12168E9
:1039800009F0FF0040F00100086100E007E02B466D
:10399000044920460A9A00F0CFF80028AAD0012056
:1039A000A8E70000020001002DE9F8430446006882
:1039B0000D46DDE9089701689846164641F4807186
:1039C00001604B4600224FF001112046009700F0A5
:1039D0006BF848B120680068C00502D54FF400704C
:1039E00020640320BDE8F883216805F0FE0008612B
:1039F0003B464A461549204600F09EF888B92068A3
:103A00004169806900903A464946204600F02AF90B
:103A100048B1206C042804D12068016841F4007189
:103A200001600120DEE7F5B2B8F1010F09D021688D
:103A3000300A08613A464946204600F013F900284A
:103A4000E7D1206805610020CCE7000002000100FA
:103A500070B516460D4604461EE02046FFF70FFFE0
:103A600008B1012070BD681C16D0FEF735FC801B24
:103A7000A84200D885B920684069C04340070BD5EB
:103A8000002044F8300F20216173A073216941F0B8
:103A9000200121612073E4E720684069C0434007AA
:103AA000DBD4002070BD00002DE9F0479846174692
:103AB0000D460446C1F30746DDF820902AE000BF1A
:103AC000B8F1FF3F26D0FEF707FCA0EB0901414506
:103AD00002D8B8F1000F1DD12068012E16D08069E0
:103AE00025EA00000004000C12D00020B84211D1D9
:103AF000002044F8300F20216173A073216941F048
:103B00002001216120730120BDE8F0874069E7E7CB
:103B10000120EBE72068012E0AD0806925EA000029
:103B20000004000C06D00020B842C9D00020EBE70A
:103B30004069F3E70120F7E72DE9F047984616467C
:103B40000D4604464FF000094FF0200AC1F3074725
:103B500023E020684069C043400515D4206801680F
:103B600041F40071016021686FF480604861C4F81D
:103B7000309084F83DA084F83E90216C41F004011F
:103B8000216484F83C9021E0701C06D0FEF7A4FB71
:103B9000A0EB0800B04203D816B1012F1FD021E0DE
:103BA0002068012F15D0806925EA00000004000C70
:103BB00018D000BF44F8309F84F80DA084F80E9010
:103BC000216941F02001216184F80C900120BDE8B9
:103BD000F087406925EA00000004000CEAD1206863
:103BE000406901E02068806925EA00000004000CBB
:103BF000AFD1ECE72DE9F041002590460E46044692
:103C0000202728E04069C043C0060CD454F8301B7C
:103C10006FF01000486144F810596777A577206A63
:103C20002062257714E0FEF757FBA0EB0800B042B6
:103C300000D886B920684069C04340060BD544F8D7
:103C4000305F6773A573206940F020002061257301
:103C50000120BDE8F08120684169C9434906D1D4FB
:103C60000020F6E770B516460D4604461EE02046D5
:103C7000FFF705FE08B1012070BD681C16D0FEF7E5
:103C80002BFB801BA84200D885B920684069C0433F
:103C900000060BD5002044F8300F20216173A0737B
:103CA000216941F0200121612073E4E72068406927
:103CB000C0430006DBD4002070BD70B500F008FBE7
:103CC000E52801D0002070BD2C24204600F028FB00
:103CD00000F0E00040F00D01204601F029F92D240C
:103CE0000421204601F024F96420FEF7E9F920467A
:103CF00000F016FB00F0C00040F00801204601F083
:103D000017F93124204600F00BFB0B21204601F06F
:103D10000FF93024204600F003FB8021204601F0FB
:103D200007F93825284600F0FBFA002421462846EA
:103D300001F0FEF82E25284600F0F2FA214628462A
:103D400001F0F6F8FDF752FC012070BD10B5FDF74B
:103D5000A3FF02E06420FEF7B3F9FDF74FFF182838
:103D6000F8D1012010BD00002DE9F04F00263446A7
:103D7000254697B0A946CB46DA467520049600F052
:103D80001DFB712809D00A230E22F9A1FC48FFF778
:103D900025FD17B03046BDE8F08F80216B2001F083
:103DA000F5F86420FEF78CF980216B2001F0EEF825
:103DB0006420FEF785F901216B2001F0E7F800216E
:103DC0006C2001F0E3F8C820FEF77AF900213820D2
:103DD00001F0DCF80021232001F0D8F800216B204D
:103DE00001F0D4F80021242001F0D0F800216A204D
:103DF00001F0CCF80C216A2001F0C8F80F20FEF782
:103E00005FF901211A2001F0C1F80021192001F009
:103E1000BDF800211B2001F0B9F800211C2001F0A1
:103E2000B5F84FF480400D9040216A2001F0AEF8C3
:103E30007821232001F0AAF82820FEF741F900217B
:103E4000232001F0A3F864230522D021CD48FEF7FA
:103E50000DFB0028F7D1642202210FA88DE807008E
:103E600001237222D021C748FEF7B6FBBDF83C0003
:103E70000C2140BAB0FBF1F6002736E0642305229E
:103E8000D021C048FEF7F2FA0028F7D164220C21B5
:103E90000FA88DE8070001237422D021B948FEF74E
:103EA0009BFBBDF83C007F1C40BA0FFA80FCBDF8BC
:103EB0003E00E34440BA03B2BDF840009A4440BA21
:103EC0000FFA80FEBDF84200049B40BA02B2BDF872
:103ED0004400734440BA01B2BDF84600144440BAED
:103EE00000B20D448144BFB20493B742C6D30498D4
:103EF00094FBF6F390FBF6F09BFBF6F89AFBF6F7D3
:103F000095FBF6F199FBF6F20D9C002801DD041BF0
:103F100000E004445842C31700EB9370830A8DF805
:103F20003C3080088DF83D004842C11700EB91708D
:103F3000810A8DF83E1080088DF83F005042C1176D
:103F400000EB9170810A4FF0000A8DF84010800854
:103F50008DF84100CDF828A0CDF82CA0CDF830A0E8
:103F600064230522D0218748FEF780FA0028F7D184
:103F700002260DF13C0BCDE900B664250123772222
:103F8000D02102957F48FEF727FB9DF83C009DF865
:103F90003D10000200B208430A9064230522D0219C
:103FA0007848FEF763FA0028F7D1A9465D468DE808
:103FB000600201237A22D0217248FEF70DFB9DF8A2
:103FC0003C009DF83D10000200B208430B906423B2
:103FD0000522D0216B48FEF749FA0028F7D18DE879
:103FE000600201237D22D0216648FEF7F5FA9DF894
:103FF0003C009DF83D10000200B2084301210C90E6
:10400000CDF850A000200AAA14AB0D4652F820604B
:104010000E4200D01D54401C80B20328F6D34FEA54
:10402000E8720A9908EB5270A1EBE0000A90F917C8
:104030000B9807EB5171A0EBE1000B90E1170C9886
:1040400004EB5171A0EBE1000C900A98000A8DF886
:104050003C009DF850100A9808438DF83D000B98DD
:10406000000A8DF83E009DF851100B9808438DF81A
:104070003F000C989DF85210000A8DF840000C98F3
:1040800008438DF8410000216B2000F07FFF642081
:10409000FEF716F801216B2000F078FF03211A20AB
:1040A00000F074FF0421192000F070FF1B2000F0C5
:1040B00085F9354C20F01A00617840EAC100C1B2A0
:1040C0001B2000F063FF1C2000F078F9217820F01D
:1040D000180040EAC100C1B21C2000F057FF1D20AB
:1040E00000F06CF920F00F0040F003011D2000F0FB
:1040F0004DFF2221372000F049FF0121382000F038
:1041000045FF00210A2000F0F9FE0A20FDF7D8FF44
:104110000F210A2000F0F2FE0A20FDF7D1FF6423F0
:10412000052218211748FEF7A1F90028F7D103212D
:1041300016AACDE900210123CDF8089010221821FC
:104140001048FEF749FA00210A2000F0D7FE0A20A5
:10415000FDF7B6FFE078A17840EA0110C1B20A206D
:1041600000F0CCFE0A20FDF7ABFF012611E60000AF
:104170000A4D5055204E6F7420466F756E640000D6
:104180000C01002060000020140000202DE9F04701
:1041900086B014216846FCF73BFA374800250168D1
:1041A00041F001010160016801F001010591016820
:1041B00041F0020101600068DFF8C09000F00200E9
:1041C00005902A4641F20F014846FEF780F84FF469
:1041D0000148012241464846FEF779F8DFF8A0A0E1
:1041E000012210215046FEF772F803270124CDE981
:1041F0000074022669464846CDE90267FDF772FF62
:104200000C208DE85100694648460396FDF76AFF89
:104210000097CDE9015669465046FDF763FF4FF41C
:10422000204000904FF48810CDE9010569465046C2
:10423000FDF758FFCDE90084CDE9024769464846BD
:10424000FDF750FF20038DE831006946484603958D
:10425000FDF748FF0820CDE9000569460294504665
:10426000FDF740FF10208DE8710069465046FDF7CC
:1042700039FF06B0BDE8F087303802400000024048
:10428000000402400F4810B50D4901604FF48271DF
:104290004160002102228160C0E9031201224261D3
:1042A000520282612022C0E90721416281620A2113
:1042B000C162FEF79BFE002801D072B6FEE710BD7A
:1042C00000300140B4000020FEE7FEE77047000028
:1042D00038B5C020104D8DF800004FF40044002286
:1042E00021462846FDF7F3FF0A23012269460B48C1
:1042F000FEF7B9FF00208DF8000064230122694613
:104300000648FEF705FF012221462846FDF7DFFF9C
:104310009DF8000038BD000000000240B4000020FD
:1043200038B540F0C000104D8DF800004FF4004447
:10433000002221462846FDF7CAFF0A2301226946CA
:104340000A48FEF790FF00208DF800000A230122A2
:1043500069460648FEF7DCFE012221462846FDF7A5
:10436000B6FF9DF8000038BD00000240B4000020F8
:10437000F8B540F0C0000F4F14460D468DF8000010
:104380004FF40046002231463846FDF7A0FF1423C3
:10439000012269460848FEF766FF4FF47A73224609
:1043A00029460548FEF7B4FE012231463846FDF79E
:1043B0008EFFF8BD00000240B40000201FB5044687
:1043C00064230522D0210A48FEF750F80028F7D1CF
:1043D0000121642203A88DE807000B462246D02164
:1043E0000348FEF7F9F89DF80C0004B010BD00007A
:1043F00060000020FEB514460D46064664230522E3
:10440000D0210848FEF732F80028F7D16420009543
:10441000CDE9014001233246D0210248FEF7DCF805
:10442000FEBD0000600000202DE9F04198B04FF47F
:1044300080341C224CA10FA8FCF7B8F84FF47A7610
:104440003046FDF73DFE32231A224EA15448FFF7B5
:10445000C5F91722694640F6FD70FDF791FB9DF8FE
:104460001600412805D04D2803D032231A224DA131
:1044700073E09DF800009DF8011001EB00209DF80D
:10448000021001EB00209DF8031001EB0025242011
:104490008DF83F002A464AA16846FBF773FF0020CB
:1044A00069460FAA0B5C1718401CC0B27B71072825
:1044B000F8D33046FDF704FEDFF80C81012202211B
:1044C0004046FDF704FF0AAE3DE000270E220AA990
:1044D000E01EFDF755FB0120315C401C3944C0B2A1
:1044E000CFB20B28F8D39DF83300B8420AD1294641
:1044F0000AA8FDF7C7F92A4902460A234831284885
:10450000FFF76CF904F10B0000270E220AA90E3404
:10451000FDF736FB0120315C401C3944C0B2CFB2FC
:104520000B28F8D39DF83300B8420AD129460AA8CF
:10453000FDF7D4F81A4902460A2348311848FFF714
:104540004DF90E346D1E002DBFD1002202214046D0
:10455000FDF7BDFE32231A221CA11148FFF73EF9D8
:1045600018B0BDE8F08100000A5B2C582C303030C8
:10457000303030302C2C3132333435363131323228
:104580002C5D00000A5B2D476574205265616479DB
:1045900020546F204C6F6720446174612D5D0000D2
:1045A0000C0100200A5B2D56616C69642044617423
:1045B0006120204E6F7420466F756E642D5D000083
:1045C0002530376400000000000002400A5B2D2DFA
:1045D0002D53746F72656420204461746120456EB0
:1045E00064732D2D2D5D000070B59EB047F23050E4
:1045F000019000251C229CA117A8FBF7D7FFFFF70D
:10460000B3FBFFF75AFB19231A229EA1A448FFF718
:10461000E5F801221146A348FDF759FEA24C02E03D
:104620000A20FDF74DFD01212046FDF74BFE002835
:10463000F6D04FF47A7000E00A20FDF741FD012129
:104640002046FDF73FFE0128F6D0964C01220421BA
:104650002046FDF73CFE4FF4803619231A2293A121
:104660008F48FFF7BBF8C820FDF72AFD0022042180
:104670002046FDF72CFE002201212046FDF727FEF3
:10468000012202212046FDF722FE854C48340622F5
:1046900002A93B20FFF7AEFE24202070280E1690C2
:1046A0006070C5F307401590A070C5F30720149003
:1046B000E070E8B2139020719DF8080060719DF8D9
:1046C0000900A0719DF80A00E0719DF80B002072AE
:1046D0009DF80C0060729DF80D20A27200210B2243
:1046E0005FF0010314F803C05B1C6144DBB2C9B284
:1046F0000B2BF7D3A154521C0D21A154521C0A209C
:10470000A054674930464831521CFDF7E7FA0622AB
:1047100002A932200E36FFF72BFE40212170169998
:1047200061701599A1701499E170139921719DF828
:10473000081061719DF80910A1719DF80A10E171CE
:104740009DF80B1021729DF80C1061729DF80D10F0
:104750000020A1720B220121635C491C1844C9B2DC
:10476000C0B20B29F8D3A054521C0D20A054521CE7
:104770000A20A0544A4930464831521CFDF7AEFA8F
:1047800001986D1C0E36854281D3464C01220821CA
:104790002046FDF79CFDC820FDF792FC0022082171
:1047A0002046FDF794FD002201212046FDF78FFDF4
:1047B000002202212046FDF78AFD280E8DF8100008
:1047C000280C8DF81100280A8DF81200300E8DF893
:1047D0001400300C8DF81500300A8DF816008DF895
:1047E0001870380A8DF81900380C8DF81A00380E38
:1047F0008DF81B008DF81C904FEA19208DF81D00D4
:104800004FEA1B608DF81E004FEA18208DF820003B
:104810004FEA18408DF821004FEA1A208DF8220047
:104820004FEA1A408DF823008DF813508DF8176069
:104830008DF81F80082204A92348FDF7CBFA002138
:104840008DF824108DF825004D208DF826001722B4
:1048500004A9A014FDF742FA19231A221BA110483B
:10486000FEF7BCFF1EB070BD5B2D4672616D6573B7
:104870002053746F7265643D303030303030302DED
:104880005D0A00000A5B2D57616974696E672066D6
:104890006F72205573657220204B65792D5D000085
:1048A0000C01002000000240000402400A5B2D4C75
:1048B0006F6767696E6720313030736563732020DE
:1048C000444154412D5D0000380000200A5B2D4C0E
:1048D0006F6767696E6720446174612053746F70FD
:1048E000706564202D5D0000F8B5044640684FF403
:1048F0008273984221D1A0684FF48065B0F5004FD3
:1049000001D0A8420AD12068066826F04006066059
:104910006068984211D1A068A8420ED000920B4660
:1049200000228021204600F043F8002804D0606D6A
:1049300040F0200060650320F8BD00920B46002285
:104940000121EFE7F8B515460E460B4600920446E6
:104950000122022100F02CF8A0B913481349006885
:10496000B0FBF1F04FF47A71484300906068B0F505
:10497000827F0DD13346002280212046009500F031
:1049800017F870B1606D40F0200060650320F8BD3D
:10499000009830B1401E009020688068C043000637
:1049A000F6D50020F8BD00005C00002000366E0146
:1049B0002DE9F8431E46914688460446089DFDF7BA
:1049C0008BFC401B351AFDF787FC0746254800681D
:1049D000C0F3CB30684338E0701C37D0FDF77CFC67
:1049E000C01BA84203D215B1009860B32CE0206828
:1049F000416821F0E00141606068B0F5827F0BD131
:104A0000A068B0F5004F02D0B0F5806F04D12068E7
:104A1000016821F040010160A06AB0F5005F09D192
:104A20002068016821F4005101602068016841F4A8
:104A300000510160012084F85100002084F85000EA
:104A40000320BDE8F8830025401E0090206881689F
:104A500038EA010004D000214945BDD10020F0E72B
:104A60000121F9E75C0000207047000031B50A4DD4
:104A70004FF48074002221462846FDF728FC4FF4AD
:104A80007A73012269460548FEF7EDFB01222146B3
:104A90002846FDF71CFC38BD00000240B400002091
:104AA000FDF768BF30B593B030216846FBF7B0FD25
:104AB00014210CA8FBF7ACFD1D480024016841F04F
:104AC00080510160006800F0805011901948016821
:104AD00021F4404141F4004101600068022500F4E6
:104AE00040401190012003901020049000950695FD
:104AF0000820CDE907405420CDE9090504200B909A
:104B00006846FEF7BDF808B172B6FEE70F20CDE9A2
:104B10000C054FF48050CDE90E4002210CA81094F2
:104B2000FDF7C2FF002801D072B6FEE713B030BD1A
:104B300040380240007000400248016841F47001B2
:104B40000160704788ED00E001680C3151E8002FEA
:104B500022F4907241E80023002BF5D10168143152
:104B600051E8002F22F0010241E80023002BF5D18B
:104B7000016B012909D101680C3151E8002F22F0A5
:104B8000100241E80023002BF5D1202180F84210CB
:104B9000002101637047000070B504460068016998
:104BA000E26821F44051114301612169A068E26982
:104BB00008436169114308432168CA6849F20C63DC
:104BC0009A430243CA6020684169A26921F4407196
:104BD0001143416131492068884202D030498842FE
:104BE00002D1FEF70BF801E0FDF7F8FFE2690023C0
:104BF000192164253226B2F5004F626828D0A0FB47
:104C00000101930F9200FBF745FB0146B0FBF5F065
:104C10006FF01802504301EB800006EB0010B0FB70
:104C2000F5F000F0F002B1FBF5F002EB0012B1FB81
:104C3000F5F06FF01803584301EB800006EB00100D
:104C4000B0FBF5F000F00F0021681044886070BDE3
:104C5000A0FB010192185B41FBF71CFB0146B0FB76
:104C6000F5F00201B1FBF5F06FF01803584301EBCA
:104C7000800006EBC000B0FBF5F000F0F80002EB9E
:104C80004002B1FBF5F0584301EB800006EBC00099
:104C9000B0FBF5F000F00700D6E70000001001407F
:104CA000001401402DE9F843984617460D46044686
:104CB000089E24E0701C22D0FDF70EFBA0EB08003C
:104CC000B0421AD8CEB12068C168490717D5802DE7
:104CD00015D0402D13D00168C94309070FD40168CE
:104CE0000025406800902046FFF72EFF08206064F2
:104CF00084F840500120BDE8F8830320FBE72068DA
:104D0000006835EA000004D00020B842D2D000206C
:104D1000F1E70120F9E7FEE72DE9F04F2DED048BD7
:104D20008DB000260127FFF71FF80020024601A9D9
:104D30000A54401C0628FBDB06223B20FFF75AFBE7
:104D40009DF805009DF80410644C00EB01200FFA5B
:104D500080F89DF807009DF8061000EB012005B2D1
:104D60009DF809009DF8081000EB01200FFA80FB68
:104D7000606800F07FFE41EC190B404600F07AFCC1
:104D80009FED578B53EC182B00F08CFC53EC192B38
:104D900000F0C8FB00F094FB8146A06800F06AFEBA
:104DA00041EC190B284600F065FC53EC182B00F081
:104DB00079FC53EC192B00F0B5FB00F081FB824627
:104DC000E06800F057FE41EC190B584600F052FC29
:104DD00053EC182B00F066FC53EC192B00F0A2FBEF
:104DE00000F06EFBDFF800818346242088F8000085
:104DF00001253A463DA103A8FBF7C4FA002003AC05
:104E0000215C08F805106D1C401CEDB20528F7DB8D
:104E10002C2008F805006D1CEDB2484600F02AFE73
:104E200041EC100B33A153EC102B03A8FBF7AAFAAB
:104E300000204146225C4A556D1C401CEDB20528FD
:104E4000F8DB4FF02C0908F805906D1CEDB25046C8
:104E500000F010FE41EC100B26A153EC102B03A820
:104E6000FBF790FA00204146225C4A556D1C401C1D
:104E7000EDB20528F8DB08F805906D1CEDB2584638
:104E800000F0F8FD41EC100B1AA153EC102B03A815
:104E9000FBF778FA00204146225C4A556D1C401C05
:104EA000EDB20528F8DB0A2008F805000E496D1C54
:104EB000EAB21423A1F14800FEF790FC7F1C761C97
:104EC000BFB2F6B26420FDF7FBF8642EFFF42DAFFD
:104ED0000DB0BDEC048BBDE8F08F00001800002081
:104EE000581CCEFC6A0E403F54010020253035642A
:104EF0000000000025302E34660000001FB5044677
:104F00008DF80C1064230522D0210848FDF7AEFA75
:104F10000028F7D10121642203A88DE807000B4681
:104F2000224618210148FDF759FC1FBD60000020F2
:104F300033B581B0134D8DF800004FF400440022CA
:104F400021462846FDF7C3F96423012269460E482D
:104F5000FEF789F96423012202A90B48FEF783F9C1
:104F6000012221462846FDF7B2F99DF80000FFF71F
:104F7000D7F99DF80810884201D000203EBD0120DD
:104F80003EBD000000000240B40000201FB50446F2
:104F90008DF80C1064230522D0210848FDF766FA2D
:104FA0000028F7D10121642203A88DE807000B46F1
:104FB0002246D0210148FDF711FC1FBD60000020F2
:104FC00003B401984100009850EAC12018BF0420A2
:104FD0004A0D18BF40F0010040F2FF72B2EB515F82
:104FE00008BF40F00200012808BF052002B070474A
:104FF0000907090E002804DB00F1E02080F8001406
:10500000704700F00F0000F1E02080F8141D704799
:1050100030380A2801D20120704700207047000074
:1050200096B0302431270025FDF7ACFCFFF73AFDA0
:10503000FFF7ACF8C5480026016841F48001016023
:105040000068324600F48000159031463A20FDF7A2
:10505000F9FC3A20FDF7E8FC002211464620FDF756
:10506000F1FC4620FDF7E0FCBA48B94901604FF475
:105070006131C0E901160C21C660C0E90461866196
:10508000C661FEF7B2FA08B172B6FEE7FFF7FAF8AA
:10509000B048B149AC384FF480480160AF49C0E92D
:1050A0000116C0E9036846618661C6610662FDF7C4
:1050B00019F908B172B6FEE7AA49A948086008467E
:1050C000FCF79FFE08B172B6FEE7FEF73FFE8DF8D3
:1050D00018404FF47A763346012206A99D48FEF720
:1050E00025FB9DF81800312817D0322819D0332815
:1050F0001BD0342821D00A2308229BA19548FEF713
:105100006DFB00BF8DF818406D1CEDB2052DE2D38C
:105110009DF81800302814D015E00A23082295A124
:10512000ECE70A23082296A102E00A23082297A1AD
:105130008848FEF753FB0525E6E7FFF7EDFD05255B
:10514000E0E78DF81870944D012204212846FDF700
:10515000BEF8012208212846FDF7B9F8FA20FCF72D
:10516000AFFF002204212846FDF7B1F800220821F4
:105170002846FDF7ACF87B4841F6FD7920380F2230
:10518000447069464846FCF7FBFC102283A1684640
:10519000FCF794FA42F6FD7A0F2209A95046FCF773
:1051A000EFFC102281A16846FCF788FA43F6FD7BEC
:1051B0000F220FA95846FCF7E3FC10227FA1684696
:1051C000FCF77CFA0BE01E231A2280A16148FEF74F
:1051D00005FB3346012206A95E48FEF7A7FA9DF8B3
:1051E00018003028EFD0312806D032282CD03328B0
:1051F00044D058287ED0A6E00F2269464846FCF7E6
:10520000BFFC0F2265A16846FCF758FAC0B10F2217
:105210000FA95846FCF7B4FC0F2268A10FA8FCF7B1
:105220004DFA30B1142317226FA14A48FEF7D6FA7F
:1052300021E0FFF7D9F90F2258A14FF4005018E0F0
:10524000142317226EA1F0E70F2269464846FCF7A7
:1052500097FC0F2251A16846FCF730FA18B10F23D2
:105260001A466DA1E1E7FFF7DFF80F224FA14FF4D7
:105270004050FCF733FD8DF8184064E00F2209A977
:105280005046FCF77DFC0F2248A109A8FCF716FA4E
:1052900018B11423132264A1C7E7FEF757FD0128B4
:1052A00003D00A231A4665A1BFE732231A2266A15A
:1052B0002848FEF793FA00273D463846FCF730FCB5
:1052C00002231A4667A12348FEF788FA3846FCF7FE
:1052D000F8FB0A230F2264A11E48FEF77FFA6D1C1B
:1052E00007F58037412DE8DB0F2234A14046FCF75B
:1052F000F5FC00E003E032231A225FA195E70027C6
:105300003D463846FCF70CFC02231A4655A11148CD
:10531000FEF764FA3846FCF7D4FB0A230F2252A1A9
:105320000C48FEF75BFA6D1C07F58037412DE8DB72
:105330000F2222A14046FCF7D1FC32231A224EA1B3
:105340000448FEF74BFA8DF8184048E73038024021
:10535000001001400C01002000540040801A06009B
:1053600000300240380000200A4D4F44452D585867
:10537000000000000A4D4F44452D30310000000070
:105380000A4D4F44452D3032000000000A4D4F4475
:10539000452D303300000000000002405B4D454DBC
:1053A0004F525920202046554C4C5D005B4D454DD9
:1053B0004F5259202020524541445D005B4D454DE0
:1053C0004F5259204552415345445D000A312D53F7
:1053D000544F52452020322D52454C415920203304
:1053E0002D455241534500000A4552523A204D4541
:1053F0004D4F5259204E4F54204552415345440081
:105400000A4552523A204D454D20414C52454144A7
:10541000592046554C4C20000A4552523A204D45E1
:105420004D20454D505459000A4552523A204D45A1
:105430004D204E4F54205245414400000A466C61B5
:105440007368204E4F4B00000A5B45726173696EB2
:1054500067205265717569726564204D656D6F7264
:10546000795D00000A5B00002D424C4F434B204504
:1054700052415345442D5D000A5B4D656D6F727955
:105480002045726173696E6720436F6D706C65743F
:10549000655D000010B500290AD00878002807D003
:1054A00005487844FBF792FC002801D0002010BD8D
:1054B0000248784410BD0000BA070000B20700009F
:1054C00021F00042A2F16052B2F5801F01F00043CA
:1054D00028BFD2F17F6C0BD95FEA001C43EAC202FD
:1054E00042EB507018BF704728BF20F00100704792
:1054F000B2F5801FBCBF184670474FEA410C1CF53F
:10550000001F02D2084600F02BBB70B500F074F902
:1055100000000089FFF7F6BF4FF00040A0F58000C3
:105520007047000010B591EA030F48BF83F00043B5
:1055300000F1BE81841A71EB030C05D2121943EB02
:105540000C03001B61EB0C01DFF824E14FEA11545E
:10555000A4EB135C1EEA430F18BF9EEA445F73D0AE
:1055600023EA0E03DCF1200E21EA045143F48013F8
:1055700032D322FA0CFE10EB0E0023FA0CFE41EBA4
:105580000E01CCF1200E03FA0EFE10EB0E0051F1CD
:105590000001B1F5801FCCF1200E32D201EB045195
:1055A00012FA0EF2BDE8104058BF7047401C38BFD9
:1055B0005FEA420218BF7047002814BF20F00100C4
:1055C00041F100014FEA410313F5001F38BF704756
:1055D000A1F1C04100F05EB9012A43EB0302ACF136
:1055E000200CDCF11F0E32BF4FF0000E23FA0CF33B
:1055F00010EB030041EB0451B4EB115FD0D0A1EBF1
:10560000045101F5801149085FEA300001EB0451B3
:105610000ED350F1000038BF12FA0EFE08D1BDE8DB
:105620001040C9E7401C38BF5FEA4202CAD1C3E755
:10563000BDE810404FEA410313F5001F38BF704723
:10564000A1F1C04100F026B99EEA445F08D011EAFA
:105650005E0FBDE8104004BF01F00041002070471C
:10566000BDE8104070B500F0C7F800BF64FBBE3E57
:105670000000E0FF10F0004248BF4042B0FA80F363
:1056800010FA03F10AD0C3F11D0303F580634FEA5A
:10569000415002EB035202EBD12170474FF0000062
:1056A00070470000DFF848C170B51CEA111E1EBF2C
:1056B0001CEA13159EEA0C0F95EA0C0F00F06F80A0
:1056C00081EA030423EA4C134EEAD47E21EA4C110A
:1056D00041F4801143F48013AE44A1FB024CA0FBC3
:1056E0000365AEF17F7E361955EB0C05A1FB034C2B
:1056F0004CF10003A0FB021C16EB0C06654153F1B4
:105700000003094218BF46F0010613F4007F0BD1D5
:105710004FEA03314FEA0530340341EA155140EABC
:1057200016506FF003020AE04FEAC3214FEAC5208A
:10573000F40241EA555140EA56506FF0020202EB82
:105740002E4201EB025585EACE710AD05FEA440C85
:1057500018BF24F0004450F1000041F1000120EA9C
:10576000D47040F2FE7C624500D270BDA84214BFE6
:105770004FF080444FF04044002E08BF0024BEF19B
:10578000806FA8BFA1F1C041BDE8704080F2828067
:105790004FF0000001F1C04101F0004170479EEA66
:1057A0000C0F0CEA131518BF95EA0C0F06D04FF03A
:1057B000000081EA030E0EF0004170BD00F01CF8FD
:1057C0008900013E00F007B800F009B84FEA430C29
:1057D0005FEA5C5C08D081EA030100F05BB84FEA45
:1057E000410C5FEA5C5CF6D14FF000000149704764
:1057F0000000FF070000F87F0EF1020E2EF0030EEE
:105800005EF8046B364205D4012A43EB030515F517
:10581000001F12D8012841EB010C1CF5001F0CD809
:105820000ED14FEAD17C15F5001F0CEB4C0C0CF19E
:10583000020C08BF4CEBD37C04E04FF0080C01E0F5
:105840004FEAD37C0CEB4C0526FA05F606F007066A
:10585000B6F1040C06D20EEB860CBDE870404CF09D
:10586000010C6047DFE80CF0090B02024FF0004129
:105870004FF00000A1F5002170BD19461046012827
:1058800051EB010418BFD4F5001484BF002001F0CF
:10589000004170BD0808A0F500114FEA31017047C2
:1058A00010B591EA030F48BF83F000433FF542AEC5
:1058B000841A71EB030C07D212198CF0004C43EBE5
:1058C0000C03001B61EB0C01DFF8A4E14FEA11545B
:1058D000A4EB135C1EEA430F18BF9EEA445F00F07E
:1058E000B08023EA6E03524221EA0451C3EB6E03F7
:1058F00038BF5B1EDCF1200E25D322FA0CFE10EB24
:105900000E0043FA0CFE41EB0E01CCF1200E03FA1F
:105910000EFE10EB0E0051F10001CCF1200E29D447
:1059200012FA0EF201EB0451BDE8104058BF704767
:10593000401C1CBFB2F1004F704700280CBF491C2F
:1059400020F00100704712EB020E43EB030218BF78
:105950004FF0010E4EEA4202ACF1200CDCF11E0EBB
:1059600054D943FA0CFE10EB0E0051F1FF31CCF18B
:105970001E0ED5D50EF1010E12FA0EFE404141EB7E
:10598000010101EB445C5FEA5C5C10D910EBDE7056
:1059900001EB045138BFBEF1004FBDE8104018BF05
:1059A000704700280CBF491C20F00100704730D21E
:1059B0004FEAD42C11F5001124F400641BD0B1FA85
:1059C00081F20B3AA41AA41ED2F12003914030FABE
:1059D00003F31943904001EBCC71002C01EB04510F
:1059E000BDE81040A8BF704701F1C0414FF0000072
:1059F00001F000417047B0FA80F310FA03F100D1D2
:105A000010BDE41A173C4805C90AE4E701EB04514C
:105A100010BD491001EB0451BDE810404FEA3000C1
:105A200002E04FF0000170474A0008BF0042F8D082
:105A3000B2F5001F28BF704701F000414FF0000091
:105A400070479EEA445F07D011EA5E0FBDE8104040
:105A500004BF002100207047BDE8104070B5FFF77B
:105A6000CBFE00BF40DFF63E83F00041104670479A
:105A70000000E0FF43004FEAD30C4FEA3C0C4340E8
:105A80001FBF40070CF1605113F0FE4F70471CF030
:105A9000006F03D100200CF0004170470CF0004370
:105AA00043EA507010B540EACC0000F00EF800BF99
:105AB000000000924FEA0001FFF7ECBE4FF00041FA
:105AC0004FF00000A1F5002170470EF1020E2EF0FC
:105AD000030E5EF8044B244204D44FEA4102B2F1B3
